{
	"contacts/DAO_VotationSystem.sol": {
		"DAOVotationSystem": {
			"abi": [
				{
					"inputs": [],
					"stateMutability": "nonpayable",
					"type": "constructor"
				},
				{
					"anonymous": false,
					"inputs": [
						{
							"indexed": true,
							"internalType": "uint256",
							"name": "proposalId",
							"type": "uint256"
						},
						{
							"indexed": false,
							"internalType": "bool",
							"name": "passed",
							"type": "bool"
						},
						{
							"indexed": false,
							"internalType": "uint256",
							"name": "positiveVotesWeight",
							"type": "uint256"
						},
						{
							"indexed": false,
							"internalType": "uint256",
							"name": "negativeVotesWeight",
							"type": "uint256"
						}
					],
					"name": "Closed",
					"type": "event"
				},
				{
					"anonymous": false,
					"inputs": [
						{
							"indexed": true,
							"internalType": "uint256",
							"name": "id",
							"type": "uint256"
						},
						{
							"indexed": true,
							"internalType": "address",
							"name": "creator",
							"type": "address"
						},
						{
							"indexed": false,
							"internalType": "string",
							"name": "description",
							"type": "string"
						},
						{
							"indexed": false,
							"internalType": "uint256",
							"name": "deadline",
							"type": "uint256"
						}
					],
					"name": "NewProposal",
					"type": "event"
				},
				{
					"anonymous": false,
					"inputs": [
						{
							"indexed": true,
							"internalType": "address",
							"name": "voter",
							"type": "address"
						},
						{
							"indexed": true,
							"internalType": "uint256",
							"name": "proposalId",
							"type": "uint256"
						},
						{
							"indexed": false,
							"internalType": "bool",
							"name": "positive",
							"type": "bool"
						},
						{
							"indexed": false,
							"internalType": "uint256",
							"name": "weight",
							"type": "uint256"
						}
					],
					"name": "Vote",
					"type": "event"
				},
				{
					"inputs": [
						{
							"internalType": "uint256",
							"name": "proposalId",
							"type": "uint256"
						}
					],
					"name": "closeProposal",
					"outputs": [],
					"stateMutability": "nonpayable",
					"type": "function"
				},
				{
					"inputs": [
						{
							"internalType": "uint256",
							"name": "proposalId",
							"type": "uint256"
						},
						{
							"internalType": "address",
							"name": "voter",
							"type": "address"
						}
					],
					"name": "hasVoted",
					"outputs": [
						{
							"internalType": "bool",
							"name": "",
							"type": "bool"
						}
					],
					"stateMutability": "view",
					"type": "function"
				},
				{
					"inputs": [
						{
							"internalType": "address",
							"name": "creator",
							"type": "address"
						},
						{
							"internalType": "string",
							"name": "description",
							"type": "string"
						},
						{
							"internalType": "uint256",
							"name": "durationSeconds",
							"type": "uint256"
						}
					],
					"name": "newProposal",
					"outputs": [],
					"stateMutability": "nonpayable",
					"type": "function"
				},
				{
					"inputs": [],
					"name": "owner",
					"outputs": [
						{
							"internalType": "address",
							"name": "",
							"type": "address"
						}
					],
					"stateMutability": "view",
					"type": "function"
				},
				{
					"inputs": [
						{
							"internalType": "uint256",
							"name": "proposalId",
							"type": "uint256"
						}
					],
					"name": "proposalInfo",
					"outputs": [
						{
							"internalType": "uint256",
							"name": "id",
							"type": "uint256"
						},
						{
							"internalType": "address",
							"name": "creator",
							"type": "address"
						},
						{
							"internalType": "string",
							"name": "description",
							"type": "string"
						},
						{
							"internalType": "bool",
							"name": "isActive",
							"type": "bool"
						},
						{
							"internalType": "uint256",
							"name": "deadline",
							"type": "uint256"
						},
						{
							"internalType": "uint256",
							"name": "positiveVotes",
							"type": "uint256"
						},
						{
							"internalType": "uint256",
							"name": "positiveVotesWeight",
							"type": "uint256"
						},
						{
							"internalType": "uint256",
							"name": "negativeVotes",
							"type": "uint256"
						},
						{
							"internalType": "uint256",
							"name": "negativeVotesWeight",
							"type": "uint256"
						}
					],
					"stateMutability": "view",
					"type": "function"
				},
				{
					"inputs": [],
					"name": "proposalsCount",
					"outputs": [
						{
							"internalType": "uint256",
							"name": "",
							"type": "uint256"
						}
					],
					"stateMutability": "view",
					"type": "function"
				},
				{
					"inputs": [
						{
							"internalType": "address",
							"name": "voter",
							"type": "address"
						},
						{
							"internalType": "uint256",
							"name": "weight",
							"type": "uint256"
						}
					],
					"name": "setVoteWeight",
					"outputs": [],
					"stateMutability": "nonpayable",
					"type": "function"
				},
				{
					"inputs": [
						{
							"internalType": "uint256",
							"name": "proposalId",
							"type": "uint256"
						},
						{
							"internalType": "bool",
							"name": "positive",
							"type": "bool"
						}
					],
					"name": "vote",
					"outputs": [],
					"stateMutability": "nonpayable",
					"type": "function"
				},
				{
					"inputs": [
						{
							"internalType": "address",
							"name": "",
							"type": "address"
						}
					],
					"name": "voteWeight",
					"outputs": [
						{
							"internalType": "uint256",
							"name": "",
							"type": "uint256"
						}
					],
					"stateMutability": "view",
					"type": "function"
				}
			],
			"devdoc": {
				"kind": "dev",
				"methods": {},
				"version": 1
			},
			"evm": {
				"assembly": "    /* \"contacts/DAO_VotationSystem.sol\":60:4578  contract DAOVotationSystem {... */\n  mstore(0x40, 0x80)\n    /* \"contacts/DAO_VotationSystem.sol\":228:279  constructor() {... */\n  callvalue\n  dup1\n  iszero\n  tag_1\n  jumpi\n  0x00\n  dup1\n  revert\ntag_1:\n  pop\n    /* \"contacts/DAO_VotationSystem.sol\":261:271  msg.sender */\n  caller\n    /* \"contacts/DAO_VotationSystem.sol\":253:258  owner */\n  0x00\n  dup1\n    /* \"contacts/DAO_VotationSystem.sol\":253:271  owner = msg.sender */\n  0x0100\n  exp\n  dup2\n  sload\n  dup2\n  0xffffffffffffffffffffffffffffffffffffffff\n  mul\n  not\n  and\n  swap1\n  dup4\n  0xffffffffffffffffffffffffffffffffffffffff\n  and\n  mul\n  or\n  swap1\n  sstore\n  pop\n    /* \"contacts/DAO_VotationSystem.sol\":60:4578  contract DAOVotationSystem {... */\n  dataSize(sub_0)\n  dup1\n  dataOffset(sub_0)\n  0x00\n  codecopy\n  0x00\n  return\nstop\n\nsub_0: assembly {\n        /* \"contacts/DAO_VotationSystem.sol\":60:4578  contract DAOVotationSystem {... */\n      mstore(0x40, 0x80)\n      callvalue\n      dup1\n      iszero\n      tag_1\n      jumpi\n      0x00\n      dup1\n      revert\n    tag_1:\n      pop\n      jumpi(tag_2, lt(calldatasize, 0x04))\n      shr(0xe0, calldataload(0x00))\n      dup1\n      0x7eadebfe\n      gt\n      tag_12\n      jumpi\n      dup1\n      0x7eadebfe\n      eq\n      tag_7\n      jumpi\n      dup1\n      0x8da5cb5b\n      eq\n      tag_8\n      jumpi\n      dup1\n      0xae092e89\n      eq\n      tag_9\n      jumpi\n      dup1\n      0xc9d27afe\n      eq\n      tag_10\n      jumpi\n      dup1\n      0xcf8e65f9\n      eq\n      tag_11\n      jumpi\n      jump(tag_2)\n    tag_12:\n      dup1\n      0x0386a016\n      eq\n      tag_3\n      jumpi\n      dup1\n      0x0a9f46ad\n      eq\n      tag_4\n      jumpi\n      dup1\n      0x190a6a00\n      eq\n      tag_5\n      jumpi\n      dup1\n      0x43859632\n      eq\n      tag_6\n      jumpi\n    tag_2:\n      0x00\n      dup1\n      revert\n        /* \"contacts/DAO_VotationSystem.sol\":2868:3358  function closeProposal(uint proposalId) external onlyOwner {... */\n    tag_3:\n      tag_13\n      0x04\n      dup1\n      calldatasize\n      sub\n      dup2\n      add\n      swap1\n      tag_14\n      swap2\n      swap1\n      tag_15\n      jump\t// in\n    tag_14:\n      tag_16\n      jump\t// in\n    tag_13:\n      stop\n        /* \"contacts/DAO_VotationSystem.sol\":4259:4357  function proposalsCount() external view returns (uint256) {... */\n    tag_4:\n      tag_17\n      tag_18\n      jump\t// in\n    tag_17:\n      mload(0x40)\n      tag_19\n      swap2\n      swap1\n      tag_20\n      jump\t// in\n    tag_19:\n      mload(0x40)\n      dup1\n      swap2\n      sub\n      swap1\n      return\n        /* \"contacts/DAO_VotationSystem.sol\":1392:1964  function newProposal(address creator, string calldata description, uint256 durationSeconds) external onlyOwner {... */\n    tag_5:\n      tag_21\n      0x04\n      dup1\n      calldatasize\n      sub\n      dup2\n      add\n      swap1\n      tag_22\n      swap2\n      swap1\n      tag_23\n      jump\t// in\n    tag_22:\n      tag_24\n      jump\t// in\n    tag_21:\n      stop\n        /* \"contacts/DAO_VotationSystem.sol\":4365:4575  function hasVoted(uint proposalId, address voter) external view returns (bool) {... */\n    tag_6:\n      tag_25\n      0x04\n      dup1\n      calldatasize\n      sub\n      dup2\n      add\n      swap1\n      tag_26\n      swap2\n      swap1\n      tag_27\n      jump\t// in\n    tag_26:\n      tag_28\n      jump\t// in\n    tag_25:\n      mload(0x40)\n      tag_29\n      swap2\n      swap1\n      tag_30\n      jump\t// in\n    tag_29:\n      mload(0x40)\n      dup1\n      swap2\n      sub\n      swap1\n      return\n        /* \"contacts/DAO_VotationSystem.sol\":1127:1172  mapping(address => uint256) public voteWeight */\n    tag_7:\n      tag_31\n      0x04\n      dup1\n      calldatasize\n      sub\n      dup2\n      add\n      swap1\n      tag_32\n      swap2\n      swap1\n      tag_33\n      jump\t// in\n    tag_32:\n      tag_34\n      jump\t// in\n    tag_31:\n      mload(0x40)\n      tag_35\n      swap2\n      swap1\n      tag_20\n      jump\t// in\n    tag_35:\n      mload(0x40)\n      dup1\n      swap2\n      sub\n      swap1\n      return\n        /* \"contacts/DAO_VotationSystem.sol\":123:143  address public owner */\n    tag_8:\n      tag_36\n      tag_37\n      jump\t// in\n    tag_36:\n      mload(0x40)\n      tag_38\n      swap2\n      swap1\n      tag_39\n      jump\t// in\n    tag_38:\n      mload(0x40)\n      dup1\n      swap2\n      sub\n      swap1\n      return\n        /* \"contacts/DAO_VotationSystem.sol\":3366:4251  function proposalInfo(uint proposalId)... */\n    tag_9:\n      tag_40\n      0x04\n      dup1\n      calldatasize\n      sub\n      dup2\n      add\n      swap1\n      tag_41\n      swap2\n      swap1\n      tag_15\n      jump\t// in\n    tag_41:\n      tag_42\n      jump\t// in\n    tag_40:\n      mload(0x40)\n      tag_43\n      swap10\n      swap9\n      swap8\n      swap7\n      swap6\n      swap5\n      swap4\n      swap3\n      swap2\n      swap1\n      tag_44\n      jump\t// in\n    tag_43:\n      mload(0x40)\n      dup1\n      swap2\n      sub\n      swap1\n      return\n        /* \"contacts/DAO_VotationSystem.sol\":2005:2817  function vote(uint proposalId, bool positive) external {... */\n    tag_10:\n      tag_45\n      0x04\n      dup1\n      calldatasize\n      sub\n      dup2\n      add\n      swap1\n      tag_46\n      swap2\n      swap1\n      tag_47\n      jump\t// in\n    tag_46:\n      tag_48\n      jump\t// in\n    tag_45:\n      stop\n        /* \"contacts/DAO_VotationSystem.sol\":1215:1333  function setVoteWeight(address voter, uint256 weight) external onlyOwner {... */\n    tag_11:\n      tag_49\n      0x04\n      dup1\n      calldatasize\n      sub\n      dup2\n      add\n      swap1\n      tag_50\n      swap2\n      swap1\n      tag_51\n      jump\t// in\n    tag_50:\n      tag_52\n      jump\t// in\n    tag_49:\n      stop\n        /* \"contacts/DAO_VotationSystem.sol\":2868:3358  function closeProposal(uint proposalId) external onlyOwner {... */\n    tag_16:\n        /* \"contacts/DAO_VotationSystem.sol\":195:200  owner */\n      0x00\n      dup1\n      sload\n      swap1\n      0x0100\n      exp\n      swap1\n      div\n      0xffffffffffffffffffffffffffffffffffffffff\n      and\n        /* \"contacts/DAO_VotationSystem.sol\":181:200  msg.sender == owner */\n      0xffffffffffffffffffffffffffffffffffffffff\n      and\n        /* \"contacts/DAO_VotationSystem.sol\":181:191  msg.sender */\n      caller\n        /* \"contacts/DAO_VotationSystem.sol\":181:200  msg.sender == owner */\n      0xffffffffffffffffffffffffffffffffffffffff\n      and\n      eq\n        /* \"contacts/DAO_VotationSystem.sol\":173:214  require(msg.sender == owner, \"not owner\") */\n      tag_54\n      jumpi\n      mload(0x40)\n      0x08c379a000000000000000000000000000000000000000000000000000000000\n      dup2\n      mstore\n      0x04\n      add\n      tag_55\n      swap1\n      tag_56\n      jump\t// in\n    tag_55:\n      mload(0x40)\n      dup1\n      swap2\n      sub\n      swap1\n      revert\n    tag_54:\n        /* \"contacts/DAO_VotationSystem.sol\":2959:2973  _proposalCount */\n      sload(0x01)\n        /* \"contacts/DAO_VotationSystem.sol\":2946:2956  proposalId */\n      dup2\n        /* \"contacts/DAO_VotationSystem.sol\":2946:2973  proposalId < _proposalCount */\n      lt\n        /* \"contacts/DAO_VotationSystem.sol\":2938:2994  require(proposalId < _proposalCount, \"Invalid proposal\") */\n      tag_58\n      jumpi\n      mload(0x40)\n      0x08c379a000000000000000000000000000000000000000000000000000000000\n      dup2\n      mstore\n      0x04\n      add\n      tag_59\n      swap1\n      tag_60\n      jump\t// in\n    tag_59:\n      mload(0x40)\n      dup1\n      swap2\n      sub\n      swap1\n      revert\n    tag_58:\n        /* \"contacts/DAO_VotationSystem.sol\":3005:3023  Proposal storage p */\n      0x00\n        /* \"contacts/DAO_VotationSystem.sol\":3026:3036  _proposals */\n      0x02\n        /* \"contacts/DAO_VotationSystem.sol\":3026:3048  _proposals[proposalId] */\n      0x00\n        /* \"contacts/DAO_VotationSystem.sol\":3037:3047  proposalId */\n      dup4\n        /* \"contacts/DAO_VotationSystem.sol\":3026:3048  _proposals[proposalId] */\n      dup2\n      mstore\n      0x20\n      add\n      swap1\n      dup2\n      mstore\n      0x20\n      add\n      0x00\n      keccak256\n        /* \"contacts/DAO_VotationSystem.sol\":3005:3048  Proposal storage p = _proposals[proposalId] */\n      swap1\n      pop\n        /* \"contacts/DAO_VotationSystem.sol\":3067:3068  p */\n      dup1\n        /* \"contacts/DAO_VotationSystem.sol\":3067:3077  p.isActive */\n      0x07\n      add\n      0x00\n      swap1\n      sload\n      swap1\n      0x0100\n      exp\n      swap1\n      div\n      0xff\n      and\n        /* \"contacts/DAO_VotationSystem.sol\":3059:3096  require(p.isActive, \"Already closed\") */\n      tag_61\n      jumpi\n      mload(0x40)\n      0x08c379a000000000000000000000000000000000000000000000000000000000\n      dup2\n      mstore\n      0x04\n      add\n      tag_62\n      swap1\n      tag_63\n      jump\t// in\n    tag_62:\n      mload(0x40)\n      dup1\n      swap2\n      sub\n      swap1\n      revert\n    tag_61:\n        /* \"contacts/DAO_VotationSystem.sol\":3134:3135  p */\n      dup1\n        /* \"contacts/DAO_VotationSystem.sol\":3134:3144  p.deadline */\n      0x08\n      add\n      sload\n        /* \"contacts/DAO_VotationSystem.sol\":3115:3130  block.timestamp */\n      timestamp\n        /* \"contacts/DAO_VotationSystem.sol\":3115:3144  block.timestamp >= p.deadline */\n      lt\n      iszero\n        /* \"contacts/DAO_VotationSystem.sol\":3107:3161  require(block.timestamp >= p.deadline, \"Still active\") */\n      tag_64\n      jumpi\n      mload(0x40)\n      0x08c379a000000000000000000000000000000000000000000000000000000000\n      dup2\n      mstore\n      0x04\n      add\n      tag_65\n      swap1\n      tag_66\n      jump\t// in\n    tag_65:\n      mload(0x40)\n      dup1\n      swap2\n      sub\n      swap1\n      revert\n    tag_64:\n        /* \"contacts/DAO_VotationSystem.sol\":3185:3190  false */\n      0x00\n        /* \"contacts/DAO_VotationSystem.sol\":3172:3173  p */\n      dup2\n        /* \"contacts/DAO_VotationSystem.sol\":3172:3182  p.isActive */\n      0x07\n      add\n      0x00\n        /* \"contacts/DAO_VotationSystem.sol\":3172:3190  p.isActive = false */\n      0x0100\n      exp\n      dup2\n      sload\n      dup2\n      0xff\n      mul\n      not\n      and\n      swap1\n      dup4\n      iszero\n      iszero\n      mul\n      or\n      swap1\n      sstore\n      pop\n        /* \"contacts/DAO_VotationSystem.sol\":3203:3214  bool passed */\n      0x00\n        /* \"contacts/DAO_VotationSystem.sol\":3241:3242  p */\n      dup2\n        /* \"contacts/DAO_VotationSystem.sol\":3241:3262  p.negativeVotesWeight */\n      0x06\n      add\n      sload\n        /* \"contacts/DAO_VotationSystem.sol\":3217:3218  p */\n      dup3\n        /* \"contacts/DAO_VotationSystem.sol\":3217:3238  p.positiveVotesWeight */\n      0x04\n      add\n      sload\n        /* \"contacts/DAO_VotationSystem.sol\":3217:3262  p.positiveVotesWeight > p.negativeVotesWeight */\n      gt\n        /* \"contacts/DAO_VotationSystem.sol\":3203:3262  bool passed = p.positiveVotesWeight > p.negativeVotesWeight */\n      swap1\n      pop\n        /* \"contacts/DAO_VotationSystem.sol\":3285:3295  proposalId */\n      dup3\n        /* \"contacts/DAO_VotationSystem.sol\":3278:3350  Closed(proposalId, passed, p.positiveVotesWeight, p.negativeVotesWeight) */\n      0xf95ef50931b734b89e19f38404652cff9a20adaf4d2994a190a4ca2c48e8afed\n        /* \"contacts/DAO_VotationSystem.sol\":3297:3303  passed */\n      dup3\n        /* \"contacts/DAO_VotationSystem.sol\":3305:3306  p */\n      dup5\n        /* \"contacts/DAO_VotationSystem.sol\":3305:3326  p.positiveVotesWeight */\n      0x04\n      add\n      sload\n        /* \"contacts/DAO_VotationSystem.sol\":3328:3329  p */\n      dup6\n        /* \"contacts/DAO_VotationSystem.sol\":3328:3349  p.negativeVotesWeight */\n      0x06\n      add\n      sload\n        /* \"contacts/DAO_VotationSystem.sol\":3278:3350  Closed(proposalId, passed, p.positiveVotesWeight, p.negativeVotesWeight) */\n      mload(0x40)\n      tag_67\n      swap4\n      swap3\n      swap2\n      swap1\n      tag_68\n      jump\t// in\n    tag_67:\n      mload(0x40)\n      dup1\n      swap2\n      sub\n      swap1\n      log2\n        /* \"contacts/DAO_VotationSystem.sol\":2927:3358  {... */\n      pop\n      pop\n        /* \"contacts/DAO_VotationSystem.sol\":2868:3358  function closeProposal(uint proposalId) external onlyOwner {... */\n      pop\n      jump\t// out\n        /* \"contacts/DAO_VotationSystem.sol\":4259:4357  function proposalsCount() external view returns (uint256) {... */\n    tag_18:\n        /* \"contacts/DAO_VotationSystem.sol\":4308:4315  uint256 */\n      0x00\n        /* \"contacts/DAO_VotationSystem.sol\":4335:4349  _proposalCount */\n      sload(0x01)\n        /* \"contacts/DAO_VotationSystem.sol\":4328:4349  return _proposalCount */\n      swap1\n      pop\n        /* \"contacts/DAO_VotationSystem.sol\":4259:4357  function proposalsCount() external view returns (uint256) {... */\n      swap1\n      jump\t// out\n        /* \"contacts/DAO_VotationSystem.sol\":1392:1964  function newProposal(address creator, string calldata description, uint256 durationSeconds) external onlyOwner {... */\n    tag_24:\n        /* \"contacts/DAO_VotationSystem.sol\":195:200  owner */\n      0x00\n      dup1\n      sload\n      swap1\n      0x0100\n      exp\n      swap1\n      div\n      0xffffffffffffffffffffffffffffffffffffffff\n      and\n        /* \"contacts/DAO_VotationSystem.sol\":181:200  msg.sender == owner */\n      0xffffffffffffffffffffffffffffffffffffffff\n      and\n        /* \"contacts/DAO_VotationSystem.sol\":181:191  msg.sender */\n      caller\n        /* \"contacts/DAO_VotationSystem.sol\":181:200  msg.sender == owner */\n      0xffffffffffffffffffffffffffffffffffffffff\n      and\n      eq\n        /* \"contacts/DAO_VotationSystem.sol\":173:214  require(msg.sender == owner, \"not owner\") */\n      tag_71\n      jumpi\n      mload(0x40)\n      0x08c379a000000000000000000000000000000000000000000000000000000000\n      dup2\n      mstore\n      0x04\n      add\n      tag_72\n      swap1\n      tag_56\n      jump\t// in\n    tag_72:\n      mload(0x40)\n      dup1\n      swap2\n      sub\n      swap1\n      revert\n    tag_71:\n        /* \"contacts/DAO_VotationSystem.sol\":1550:1551  0 */\n      0x00\n        /* \"contacts/DAO_VotationSystem.sol\":1528:1539  description */\n      dup4\n      dup4\n        /* \"contacts/DAO_VotationSystem.sol\":1522:1547  bytes(description).length */\n      swap1\n      pop\n        /* \"contacts/DAO_VotationSystem.sol\":1522:1551  bytes(description).length > 0 */\n      gt\n        /* \"contacts/DAO_VotationSystem.sol\":1514:1573  require(bytes(description).length > 0, \"Empty description\") */\n      tag_74\n      jumpi\n      mload(0x40)\n      0x08c379a000000000000000000000000000000000000000000000000000000000\n      dup2\n      mstore\n      0x04\n      add\n      tag_75\n      swap1\n      tag_76\n      jump\t// in\n    tag_75:\n      mload(0x40)\n      dup1\n      swap2\n      sub\n      swap1\n      revert\n    tag_74:\n        /* \"contacts/DAO_VotationSystem.sol\":1610:1611  0 */\n      0x00\n        /* \"contacts/DAO_VotationSystem.sol\":1592:1607  durationSeconds */\n      dup2\n        /* \"contacts/DAO_VotationSystem.sol\":1592:1611  durationSeconds > 0 */\n      gt\n        /* \"contacts/DAO_VotationSystem.sol\":1584:1628  require(durationSeconds > 0, \"Bad duration\") */\n      tag_77\n      jumpi\n      mload(0x40)\n      0x08c379a000000000000000000000000000000000000000000000000000000000\n      dup2\n      mstore\n      0x04\n      add\n      tag_78\n      swap1\n      tag_79\n      jump\t// in\n    tag_78:\n      mload(0x40)\n      dup1\n      swap2\n      sub\n      swap1\n      revert\n    tag_77:\n        /* \"contacts/DAO_VotationSystem.sol\":1641:1651  uint256 id */\n      0x00\n        /* \"contacts/DAO_VotationSystem.sol\":1654:1668  _proposalCount */\n      0x01\n      0x00\n        /* \"contacts/DAO_VotationSystem.sol\":1654:1670  _proposalCount++ */\n      dup2\n      sload\n      dup1\n      swap3\n      swap2\n      swap1\n      tag_80\n      swap1\n      tag_81\n      jump\t// in\n    tag_80:\n      swap2\n      swap1\n      pop\n      sstore\n        /* \"contacts/DAO_VotationSystem.sol\":1641:1670  uint256 id = _proposalCount++ */\n      swap1\n      pop\n        /* \"contacts/DAO_VotationSystem.sol\":1681:1699  Proposal storage p */\n      0x00\n        /* \"contacts/DAO_VotationSystem.sol\":1702:1712  _proposals */\n      0x02\n        /* \"contacts/DAO_VotationSystem.sol\":1702:1716  _proposals[id] */\n      0x00\n        /* \"contacts/DAO_VotationSystem.sol\":1713:1715  id */\n      dup4\n        /* \"contacts/DAO_VotationSystem.sol\":1702:1716  _proposals[id] */\n      dup2\n      mstore\n      0x20\n      add\n      swap1\n      dup2\n      mstore\n      0x20\n      add\n      0x00\n      keccak256\n        /* \"contacts/DAO_VotationSystem.sol\":1681:1716  Proposal storage p = _proposals[id] */\n      swap1\n      pop\n        /* \"contacts/DAO_VotationSystem.sol\":1734:1736  id */\n      dup2\n        /* \"contacts/DAO_VotationSystem.sol\":1727:1728  p */\n      dup2\n        /* \"contacts/DAO_VotationSystem.sol\":1727:1731  p.id */\n      0x00\n      add\n        /* \"contacts/DAO_VotationSystem.sol\":1727:1736  p.id = id */\n      dup2\n      swap1\n      sstore\n      pop\n        /* \"contacts/DAO_VotationSystem.sol\":1759:1766  creator */\n      dup6\n        /* \"contacts/DAO_VotationSystem.sol\":1747:1748  p */\n      dup2\n        /* \"contacts/DAO_VotationSystem.sol\":1747:1756  p.creator */\n      0x01\n      add\n      0x00\n        /* \"contacts/DAO_VotationSystem.sol\":1747:1766  p.creator = creator */\n      0x0100\n      exp\n      dup2\n      sload\n      dup2\n      0xffffffffffffffffffffffffffffffffffffffff\n      mul\n      not\n      and\n      swap1\n      dup4\n      0xffffffffffffffffffffffffffffffffffffffff\n      and\n      mul\n      or\n      swap1\n      sstore\n      pop\n        /* \"contacts/DAO_VotationSystem.sol\":1793:1804  description */\n      dup5\n      dup5\n        /* \"contacts/DAO_VotationSystem.sol\":1777:1778  p */\n      dup3\n        /* \"contacts/DAO_VotationSystem.sol\":1777:1790  p.description */\n      0x02\n      add\n        /* \"contacts/DAO_VotationSystem.sol\":1777:1804  p.description = description */\n      swap2\n      dup3\n      tag_82\n      swap3\n      swap2\n      swap1\n      tag_83\n      jump\t// in\n    tag_82:\n      pop\n        /* \"contacts/DAO_VotationSystem.sol\":1828:1832  true */\n      0x01\n        /* \"contacts/DAO_VotationSystem.sol\":1815:1816  p */\n      dup2\n        /* \"contacts/DAO_VotationSystem.sol\":1815:1825  p.isActive */\n      0x07\n      add\n      0x00\n        /* \"contacts/DAO_VotationSystem.sol\":1815:1832  p.isActive = true */\n      0x0100\n      exp\n      dup2\n      sload\n      dup2\n      0xff\n      mul\n      not\n      and\n      swap1\n      dup4\n      iszero\n      iszero\n      mul\n      or\n      swap1\n      sstore\n      pop\n        /* \"contacts/DAO_VotationSystem.sol\":1874:1889  durationSeconds */\n      dup3\n        /* \"contacts/DAO_VotationSystem.sol\":1856:1871  block.timestamp */\n      timestamp\n        /* \"contacts/DAO_VotationSystem.sol\":1856:1889  block.timestamp + durationSeconds */\n      tag_84\n      swap2\n      swap1\n      tag_85\n      jump\t// in\n    tag_84:\n        /* \"contacts/DAO_VotationSystem.sol\":1843:1844  p */\n      dup2\n        /* \"contacts/DAO_VotationSystem.sol\":1843:1853  p.deadline */\n      0x08\n      add\n        /* \"contacts/DAO_VotationSystem.sol\":1843:1889  p.deadline = block.timestamp + durationSeconds */\n      dup2\n      swap1\n      sstore\n      pop\n        /* \"contacts/DAO_VotationSystem.sol\":1923:1930  creator */\n      dup6\n        /* \"contacts/DAO_VotationSystem.sol\":1907:1956  NewProposal(id, creator, description, p.deadline) */\n      0xffffffffffffffffffffffffffffffffffffffff\n      and\n        /* \"contacts/DAO_VotationSystem.sol\":1919:1921  id */\n      dup3\n        /* \"contacts/DAO_VotationSystem.sol\":1907:1956  NewProposal(id, creator, description, p.deadline) */\n      0x6838db3c5996fec3de968e640e7dd8000add88d4b31235fa327d85cdb8ffce5c\n        /* \"contacts/DAO_VotationSystem.sol\":1932:1943  description */\n      dup8\n      dup8\n        /* \"contacts/DAO_VotationSystem.sol\":1945:1946  p */\n      dup6\n        /* \"contacts/DAO_VotationSystem.sol\":1945:1955  p.deadline */\n      0x08\n      add\n      sload\n        /* \"contacts/DAO_VotationSystem.sol\":1907:1956  NewProposal(id, creator, description, p.deadline) */\n      mload(0x40)\n      tag_86\n      swap4\n      swap3\n      swap2\n      swap1\n      tag_87\n      jump\t// in\n    tag_86:\n      mload(0x40)\n      dup1\n      swap2\n      sub\n      swap1\n      log3\n        /* \"contacts/DAO_VotationSystem.sol\":1503:1964  {... */\n      pop\n      pop\n        /* \"contacts/DAO_VotationSystem.sol\":1392:1964  function newProposal(address creator, string calldata description, uint256 durationSeconds) external onlyOwner {... */\n      pop\n      pop\n      pop\n      pop\n      jump\t// out\n        /* \"contacts/DAO_VotationSystem.sol\":4365:4575  function hasVoted(uint proposalId, address voter) external view returns (bool) {... */\n    tag_28:\n        /* \"contacts/DAO_VotationSystem.sol\":4438:4442  bool */\n      0x00\n        /* \"contacts/DAO_VotationSystem.sol\":4476:4490  _proposalCount */\n      sload(0x01)\n        /* \"contacts/DAO_VotationSystem.sol\":4463:4473  proposalId */\n      dup4\n        /* \"contacts/DAO_VotationSystem.sol\":4463:4490  proposalId < _proposalCount */\n      lt\n        /* \"contacts/DAO_VotationSystem.sol\":4455:4511  require(proposalId < _proposalCount, \"Invalid proposal\") */\n      tag_89\n      jumpi\n      mload(0x40)\n      0x08c379a000000000000000000000000000000000000000000000000000000000\n      dup2\n      mstore\n      0x04\n      add\n      tag_90\n      swap1\n      tag_60\n      jump\t// in\n    tag_90:\n      mload(0x40)\n      dup1\n      swap2\n      sub\n      swap1\n      revert\n    tag_89:\n        /* \"contacts/DAO_VotationSystem.sol\":4529:4539  _proposals */\n      0x02\n        /* \"contacts/DAO_VotationSystem.sol\":4529:4551  _proposals[proposalId] */\n      0x00\n        /* \"contacts/DAO_VotationSystem.sol\":4540:4550  proposalId */\n      dup5\n        /* \"contacts/DAO_VotationSystem.sol\":4529:4551  _proposals[proposalId] */\n      dup2\n      mstore\n      0x20\n      add\n      swap1\n      dup2\n      mstore\n      0x20\n      add\n      0x00\n      keccak256\n        /* \"contacts/DAO_VotationSystem.sol\":4529:4560  _proposals[proposalId].hasVoted */\n      0x09\n      add\n        /* \"contacts/DAO_VotationSystem.sol\":4529:4567  _proposals[proposalId].hasVoted[voter] */\n      0x00\n        /* \"contacts/DAO_VotationSystem.sol\":4561:4566  voter */\n      dup4\n        /* \"contacts/DAO_VotationSystem.sol\":4529:4567  _proposals[proposalId].hasVoted[voter] */\n      0xffffffffffffffffffffffffffffffffffffffff\n      and\n      0xffffffffffffffffffffffffffffffffffffffff\n      and\n      dup2\n      mstore\n      0x20\n      add\n      swap1\n      dup2\n      mstore\n      0x20\n      add\n      0x00\n      keccak256\n      0x00\n      swap1\n      sload\n      swap1\n      0x0100\n      exp\n      swap1\n      div\n      0xff\n      and\n        /* \"contacts/DAO_VotationSystem.sol\":4522:4567  return _proposals[proposalId].hasVoted[voter] */\n      swap1\n      pop\n        /* \"contacts/DAO_VotationSystem.sol\":4365:4575  function hasVoted(uint proposalId, address voter) external view returns (bool) {... */\n      swap3\n      swap2\n      pop\n      pop\n      jump\t// out\n        /* \"contacts/DAO_VotationSystem.sol\":1127:1172  mapping(address => uint256) public voteWeight */\n    tag_34:\n      mstore(0x20, 0x03)\n      dup1\n      0x00\n      mstore\n      keccak256(0x00, 0x40)\n      0x00\n      swap2\n      pop\n      swap1\n      pop\n      sload\n      dup2\n      jump\t// out\n        /* \"contacts/DAO_VotationSystem.sol\":123:143  address public owner */\n    tag_37:\n      0x00\n      dup1\n      sload\n      swap1\n      0x0100\n      exp\n      swap1\n      div\n      0xffffffffffffffffffffffffffffffffffffffff\n      and\n      dup2\n      jump\t// out\n        /* \"contacts/DAO_VotationSystem.sol\":3366:4251  function proposalInfo(uint proposalId)... */\n    tag_42:\n        /* \"contacts/DAO_VotationSystem.sol\":3469:3476  uint id */\n      0x00\n        /* \"contacts/DAO_VotationSystem.sol\":3491:3506  address creator */\n      dup1\n        /* \"contacts/DAO_VotationSystem.sol\":3521:3546  string memory description */\n      0x60\n        /* \"contacts/DAO_VotationSystem.sol\":3561:3574  bool isActive */\n      0x00\n        /* \"contacts/DAO_VotationSystem.sol\":3589:3605  uint256 deadline */\n      dup1\n        /* \"contacts/DAO_VotationSystem.sol\":3620:3641  uint256 positiveVotes */\n      0x00\n        /* \"contacts/DAO_VotationSystem.sol\":3656:3683  uint256 positiveVotesWeight */\n      dup1\n        /* \"contacts/DAO_VotationSystem.sol\":3698:3719  uint256 negativeVotes */\n      0x00\n        /* \"contacts/DAO_VotationSystem.sol\":3734:3761  uint256 negativeVotesWeight */\n      dup1\n        /* \"contacts/DAO_VotationSystem.sol\":3810:3824  _proposalCount */\n      sload(0x01)\n        /* \"contacts/DAO_VotationSystem.sol\":3797:3807  proposalId */\n      dup11\n        /* \"contacts/DAO_VotationSystem.sol\":3797:3824  proposalId < _proposalCount */\n      lt\n        /* \"contacts/DAO_VotationSystem.sol\":3789:3845  require(proposalId < _proposalCount, \"Invalid proposal\") */\n      tag_92\n      jumpi\n      mload(0x40)\n      0x08c379a000000000000000000000000000000000000000000000000000000000\n      dup2\n      mstore\n      0x04\n      add\n      tag_93\n      swap1\n      tag_60\n      jump\t// in\n    tag_93:\n      mload(0x40)\n      dup1\n      swap2\n      sub\n      swap1\n      revert\n    tag_92:\n        /* \"contacts/DAO_VotationSystem.sol\":3856:3874  Proposal storage p */\n      0x00\n        /* \"contacts/DAO_VotationSystem.sol\":3877:3887  _proposals */\n      0x02\n        /* \"contacts/DAO_VotationSystem.sol\":3877:3899  _proposals[proposalId] */\n      0x00\n        /* \"contacts/DAO_VotationSystem.sol\":3888:3898  proposalId */\n      dup13\n        /* \"contacts/DAO_VotationSystem.sol\":3877:3899  _proposals[proposalId] */\n      dup2\n      mstore\n      0x20\n      add\n      swap1\n      dup2\n      mstore\n      0x20\n      add\n      0x00\n      keccak256\n        /* \"contacts/DAO_VotationSystem.sol\":3856:3899  Proposal storage p = _proposals[proposalId] */\n      swap1\n      pop\n        /* \"contacts/DAO_VotationSystem.sol\":3915:3916  p */\n      dup1\n        /* \"contacts/DAO_VotationSystem.sol\":3915:3919  p.id */\n      0x00\n      add\n      sload\n        /* \"contacts/DAO_VotationSystem.sol\":3910:3919  id = p.id */\n      swap10\n      pop\n        /* \"contacts/DAO_VotationSystem.sol\":3940:3941  p */\n      dup1\n        /* \"contacts/DAO_VotationSystem.sol\":3940:3949  p.creator */\n      0x01\n      add\n      0x00\n      swap1\n      sload\n      swap1\n      0x0100\n      exp\n      swap1\n      div\n      0xffffffffffffffffffffffffffffffffffffffff\n      and\n        /* \"contacts/DAO_VotationSystem.sol\":3930:3949  creator = p.creator */\n      swap9\n      pop\n        /* \"contacts/DAO_VotationSystem.sol\":3974:3975  p */\n      dup1\n        /* \"contacts/DAO_VotationSystem.sol\":3974:3987  p.description */\n      0x02\n      add\n        /* \"contacts/DAO_VotationSystem.sol\":3960:3987  description = p.description */\n      dup1\n      sload\n      tag_94\n      swap1\n      tag_95\n      jump\t// in\n    tag_94:\n      dup1\n      0x1f\n      add\n      0x20\n      dup1\n      swap2\n      div\n      mul\n      0x20\n      add\n      mload(0x40)\n      swap1\n      dup2\n      add\n      0x40\n      mstore\n      dup1\n      swap3\n      swap2\n      swap1\n      dup2\n      dup2\n      mstore\n      0x20\n      add\n      dup3\n      dup1\n      sload\n      tag_96\n      swap1\n      tag_95\n      jump\t// in\n    tag_96:\n      dup1\n      iszero\n      tag_97\n      jumpi\n      dup1\n      0x1f\n      lt\n      tag_98\n      jumpi\n      0x0100\n      dup1\n      dup4\n      sload\n      div\n      mul\n      dup4\n      mstore\n      swap2\n      0x20\n      add\n      swap2\n      jump(tag_97)\n    tag_98:\n      dup3\n      add\n      swap2\n      swap1\n      0x00\n      mstore\n      keccak256(0x00, 0x20)\n      swap1\n    tag_99:\n      dup2\n      sload\n      dup2\n      mstore\n      swap1\n      0x01\n      add\n      swap1\n      0x20\n      add\n      dup1\n      dup4\n      gt\n      tag_99\n      jumpi\n      dup3\n      swap1\n      sub\n      0x1f\n      and\n      dup3\n      add\n      swap2\n    tag_97:\n      pop\n      pop\n      pop\n      pop\n      pop\n      swap8\n      pop\n        /* \"contacts/DAO_VotationSystem.sol\":4009:4010  p */\n      dup1\n        /* \"contacts/DAO_VotationSystem.sol\":4009:4019  p.isActive */\n      0x07\n      add\n      0x00\n      swap1\n      sload\n      swap1\n      0x0100\n      exp\n      swap1\n      div\n      0xff\n      and\n        /* \"contacts/DAO_VotationSystem.sol\":3998:4019  isActive = p.isActive */\n      swap7\n      pop\n        /* \"contacts/DAO_VotationSystem.sol\":4041:4042  p */\n      dup1\n        /* \"contacts/DAO_VotationSystem.sol\":4041:4051  p.deadline */\n      0x08\n      add\n      sload\n        /* \"contacts/DAO_VotationSystem.sol\":4030:4051  deadline = p.deadline */\n      swap6\n      pop\n        /* \"contacts/DAO_VotationSystem.sol\":4078:4079  p */\n      dup1\n        /* \"contacts/DAO_VotationSystem.sol\":4078:4093  p.positiveVotes */\n      0x03\n      add\n      sload\n        /* \"contacts/DAO_VotationSystem.sol\":4062:4093  positiveVotes = p.positiveVotes */\n      swap5\n      pop\n        /* \"contacts/DAO_VotationSystem.sol\":4126:4127  p */\n      dup1\n        /* \"contacts/DAO_VotationSystem.sol\":4126:4147  p.positiveVotesWeight */\n      0x04\n      add\n      sload\n        /* \"contacts/DAO_VotationSystem.sol\":4104:4147  positiveVotesWeight = p.positiveVotesWeight */\n      swap4\n      pop\n        /* \"contacts/DAO_VotationSystem.sol\":4174:4175  p */\n      dup1\n        /* \"contacts/DAO_VotationSystem.sol\":4174:4189  p.negativeVotes */\n      0x05\n      add\n      sload\n        /* \"contacts/DAO_VotationSystem.sol\":4158:4189  negativeVotes = p.negativeVotes */\n      swap3\n      pop\n        /* \"contacts/DAO_VotationSystem.sol\":4222:4223  p */\n      dup1\n        /* \"contacts/DAO_VotationSystem.sol\":4222:4243  p.negativeVotesWeight */\n      0x06\n      add\n      sload\n        /* \"contacts/DAO_VotationSystem.sol\":4200:4243  negativeVotesWeight = p.negativeVotesWeight */\n      swap2\n      pop\n        /* \"contacts/DAO_VotationSystem.sol\":3778:4251  {... */\n      pop\n        /* \"contacts/DAO_VotationSystem.sol\":3366:4251  function proposalInfo(uint proposalId)... */\n      swap2\n      swap4\n      swap6\n      swap8\n      swap10\n      swap1\n      swap3\n      swap5\n      swap7\n      swap9\n      pop\n      jump\t// out\n        /* \"contacts/DAO_VotationSystem.sol\":2005:2817  function vote(uint proposalId, bool positive) external {... */\n    tag_48:\n        /* \"contacts/DAO_VotationSystem.sol\":2092:2106  _proposalCount */\n      sload(0x01)\n        /* \"contacts/DAO_VotationSystem.sol\":2079:2089  proposalId */\n      dup3\n        /* \"contacts/DAO_VotationSystem.sol\":2079:2106  proposalId < _proposalCount */\n      lt\n        /* \"contacts/DAO_VotationSystem.sol\":2071:2127  require(proposalId < _proposalCount, \"Invalid proposal\") */\n      tag_101\n      jumpi\n      mload(0x40)\n      0x08c379a000000000000000000000000000000000000000000000000000000000\n      dup2\n      mstore\n      0x04\n      add\n      tag_102\n      swap1\n      tag_60\n      jump\t// in\n    tag_102:\n      mload(0x40)\n      dup1\n      swap2\n      sub\n      swap1\n      revert\n    tag_101:\n        /* \"contacts/DAO_VotationSystem.sol\":2138:2156  Proposal storage p */\n      0x00\n        /* \"contacts/DAO_VotationSystem.sol\":2159:2169  _proposals */\n      0x02\n        /* \"contacts/DAO_VotationSystem.sol\":2159:2181  _proposals[proposalId] */\n      0x00\n        /* \"contacts/DAO_VotationSystem.sol\":2170:2180  proposalId */\n      dup5\n        /* \"contacts/DAO_VotationSystem.sol\":2159:2181  _proposals[proposalId] */\n      dup2\n      mstore\n      0x20\n      add\n      swap1\n      dup2\n      mstore\n      0x20\n      add\n      0x00\n      keccak256\n        /* \"contacts/DAO_VotationSystem.sol\":2138:2181  Proposal storage p = _proposals[proposalId] */\n      swap1\n      pop\n        /* \"contacts/DAO_VotationSystem.sol\":2200:2201  p */\n      dup1\n        /* \"contacts/DAO_VotationSystem.sol\":2200:2210  p.isActive */\n      0x07\n      add\n      0x00\n      swap1\n      sload\n      swap1\n      0x0100\n      exp\n      swap1\n      div\n      0xff\n      and\n        /* \"contacts/DAO_VotationSystem.sol\":2192:2234  require(p.isActive, \"Proposal not active\") */\n      tag_103\n      jumpi\n      mload(0x40)\n      0x08c379a000000000000000000000000000000000000000000000000000000000\n      dup2\n      mstore\n      0x04\n      add\n      tag_104\n      swap1\n      tag_105\n      jump\t// in\n    tag_104:\n      mload(0x40)\n      dup1\n      swap2\n      sub\n      swap1\n      revert\n    tag_103:\n        /* \"contacts/DAO_VotationSystem.sol\":2271:2272  p */\n      dup1\n        /* \"contacts/DAO_VotationSystem.sol\":2271:2281  p.deadline */\n      0x08\n      add\n      sload\n        /* \"contacts/DAO_VotationSystem.sol\":2253:2268  block.timestamp */\n      timestamp\n        /* \"contacts/DAO_VotationSystem.sol\":2253:2281  block.timestamp < p.deadline */\n      lt\n        /* \"contacts/DAO_VotationSystem.sol\":2245:2302  require(block.timestamp < p.deadline, \"Proposal expired\") */\n      tag_106\n      jumpi\n      mload(0x40)\n      0x08c379a000000000000000000000000000000000000000000000000000000000\n      dup2\n      mstore\n      0x04\n      add\n      tag_107\n      swap1\n      tag_108\n      jump\t// in\n    tag_107:\n      mload(0x40)\n      dup1\n      swap2\n      sub\n      swap1\n      revert\n    tag_106:\n        /* \"contacts/DAO_VotationSystem.sol\":2322:2323  p */\n      dup1\n        /* \"contacts/DAO_VotationSystem.sol\":2322:2332  p.hasVoted */\n      0x09\n      add\n        /* \"contacts/DAO_VotationSystem.sol\":2322:2344  p.hasVoted[msg.sender] */\n      0x00\n        /* \"contacts/DAO_VotationSystem.sol\":2333:2343  msg.sender */\n      caller\n        /* \"contacts/DAO_VotationSystem.sol\":2322:2344  p.hasVoted[msg.sender] */\n      0xffffffffffffffffffffffffffffffffffffffff\n      and\n      0xffffffffffffffffffffffffffffffffffffffff\n      and\n      dup2\n      mstore\n      0x20\n      add\n      swap1\n      dup2\n      mstore\n      0x20\n      add\n      0x00\n      keccak256\n      0x00\n      swap1\n      sload\n      swap1\n      0x0100\n      exp\n      swap1\n      div\n      0xff\n      and\n        /* \"contacts/DAO_VotationSystem.sol\":2321:2344  !p.hasVoted[msg.sender] */\n      iszero\n        /* \"contacts/DAO_VotationSystem.sol\":2313:2362  require(!p.hasVoted[msg.sender], \"Already voted\") */\n      tag_109\n      jumpi\n      mload(0x40)\n      0x08c379a000000000000000000000000000000000000000000000000000000000\n      dup2\n      mstore\n      0x04\n      add\n      tag_110\n      swap1\n      tag_111\n      jump\t// in\n    tag_110:\n      mload(0x40)\n      dup1\n      swap2\n      sub\n      swap1\n      revert\n    tag_109:\n        /* \"contacts/DAO_VotationSystem.sol\":2375:2389  uint256 weight */\n      0x00\n        /* \"contacts/DAO_VotationSystem.sol\":2392:2402  voteWeight */\n      0x03\n        /* \"contacts/DAO_VotationSystem.sol\":2392:2414  voteWeight[msg.sender] */\n      0x00\n        /* \"contacts/DAO_VotationSystem.sol\":2403:2413  msg.sender */\n      caller\n        /* \"contacts/DAO_VotationSystem.sol\":2392:2414  voteWeight[msg.sender] */\n      0xffffffffffffffffffffffffffffffffffffffff\n      and\n      0xffffffffffffffffffffffffffffffffffffffff\n      and\n      dup2\n      mstore\n      0x20\n      add\n      swap1\n      dup2\n      mstore\n      0x20\n      add\n      0x00\n      keccak256\n      sload\n        /* \"contacts/DAO_VotationSystem.sol\":2375:2414  uint256 weight = voteWeight[msg.sender] */\n      swap1\n      pop\n        /* \"contacts/DAO_VotationSystem.sol\":2443:2444  1 */\n      0x01\n        /* \"contacts/DAO_VotationSystem.sol\":2433:2439  weight */\n      dup2\n        /* \"contacts/DAO_VotationSystem.sol\":2433:2444  weight >= 1 */\n      lt\n      iszero\n        /* \"contacts/DAO_VotationSystem.sol\":2425:2463  require(weight >= 1, \"No vote weight\") */\n      tag_112\n      jumpi\n      mload(0x40)\n      0x08c379a000000000000000000000000000000000000000000000000000000000\n      dup2\n      mstore\n      0x04\n      add\n      tag_113\n      swap1\n      tag_114\n      jump\t// in\n    tag_113:\n      mload(0x40)\n      dup1\n      swap2\n      sub\n      swap1\n      revert\n    tag_112:\n        /* \"contacts/DAO_VotationSystem.sol\":2501:2505  true */\n      0x01\n        /* \"contacts/DAO_VotationSystem.sol\":2476:2477  p */\n      dup3\n        /* \"contacts/DAO_VotationSystem.sol\":2476:2486  p.hasVoted */\n      0x09\n      add\n        /* \"contacts/DAO_VotationSystem.sol\":2476:2498  p.hasVoted[msg.sender] */\n      0x00\n        /* \"contacts/DAO_VotationSystem.sol\":2487:2497  msg.sender */\n      caller\n        /* \"contacts/DAO_VotationSystem.sol\":2476:2498  p.hasVoted[msg.sender] */\n      0xffffffffffffffffffffffffffffffffffffffff\n      and\n      0xffffffffffffffffffffffffffffffffffffffff\n      and\n      dup2\n      mstore\n      0x20\n      add\n      swap1\n      dup2\n      mstore\n      0x20\n      add\n      0x00\n      keccak256\n      0x00\n        /* \"contacts/DAO_VotationSystem.sol\":2476:2505  p.hasVoted[msg.sender] = true */\n      0x0100\n      exp\n      dup2\n      sload\n      dup2\n      0xff\n      mul\n      not\n      and\n      swap1\n      dup4\n      iszero\n      iszero\n      mul\n      or\n      swap1\n      sstore\n      pop\n        /* \"contacts/DAO_VotationSystem.sol\":2522:2530  positive */\n      dup3\n        /* \"contacts/DAO_VotationSystem.sol\":2518:2746  if (positive) {... */\n      iszero\n      tag_115\n      jumpi\n        /* \"contacts/DAO_VotationSystem.sol\":2559:2560  p */\n      dup2\n        /* \"contacts/DAO_VotationSystem.sol\":2559:2574  p.positiveVotes */\n      0x03\n      add\n      0x00\n        /* \"contacts/DAO_VotationSystem.sol\":2559:2576  p.positiveVotes++ */\n      dup2\n      sload\n      dup1\n      swap3\n      swap2\n      swap1\n      0x01\n      add\n      swap2\n      swap1\n      pop\n      sstore\n      pop\n        /* \"contacts/DAO_VotationSystem.sol\":2618:2624  weight */\n      dup1\n        /* \"contacts/DAO_VotationSystem.sol\":2593:2594  p */\n      dup3\n        /* \"contacts/DAO_VotationSystem.sol\":2593:2614  p.positiveVotesWeight */\n      0x04\n      add\n      0x00\n        /* \"contacts/DAO_VotationSystem.sol\":2593:2624  p.positiveVotesWeight += weight */\n      dup3\n      dup3\n      sload\n      tag_116\n      swap2\n      swap1\n      tag_85\n      jump\t// in\n    tag_116:\n      swap3\n      pop\n      pop\n      dup2\n      swap1\n      sstore\n      pop\n        /* \"contacts/DAO_VotationSystem.sol\":2518:2746  if (positive) {... */\n      jump(tag_117)\n    tag_115:\n        /* \"contacts/DAO_VotationSystem.sol\":2669:2670  p */\n      dup2\n        /* \"contacts/DAO_VotationSystem.sol\":2669:2684  p.negativeVotes */\n      0x05\n      add\n      0x00\n        /* \"contacts/DAO_VotationSystem.sol\":2669:2686  p.negativeVotes++ */\n      dup2\n      sload\n      dup1\n      swap3\n      swap2\n      swap1\n      0x01\n      add\n      swap2\n      swap1\n      pop\n      sstore\n      pop\n        /* \"contacts/DAO_VotationSystem.sol\":2728:2734  weight */\n      dup1\n        /* \"contacts/DAO_VotationSystem.sol\":2703:2704  p */\n      dup3\n        /* \"contacts/DAO_VotationSystem.sol\":2703:2724  p.negativeVotesWeight */\n      0x06\n      add\n      0x00\n        /* \"contacts/DAO_VotationSystem.sol\":2703:2734  p.negativeVotesWeight += weight */\n      dup3\n      dup3\n      sload\n      tag_118\n      swap2\n      swap1\n      tag_85\n      jump\t// in\n    tag_118:\n      swap3\n      pop\n      pop\n      dup2\n      swap1\n      sstore\n      pop\n        /* \"contacts/DAO_VotationSystem.sol\":2518:2746  if (positive) {... */\n    tag_117:\n        /* \"contacts/DAO_VotationSystem.sol\":2780:2790  proposalId */\n      dup4\n        /* \"contacts/DAO_VotationSystem.sol\":2768:2778  msg.sender */\n      caller\n        /* \"contacts/DAO_VotationSystem.sol\":2763:2809  Vote(msg.sender, proposalId, positive, weight) */\n      0xffffffffffffffffffffffffffffffffffffffff\n      and\n      0x65f8c50a40ae46ed6b244ba59b93d321216c9638f156760e7f851c2536a3add2\n        /* \"contacts/DAO_VotationSystem.sol\":2792:2800  positive */\n      dup6\n        /* \"contacts/DAO_VotationSystem.sol\":2802:2808  weight */\n      dup5\n        /* \"contacts/DAO_VotationSystem.sol\":2763:2809  Vote(msg.sender, proposalId, positive, weight) */\n      mload(0x40)\n      tag_119\n      swap3\n      swap2\n      swap1\n      tag_120\n      jump\t// in\n    tag_119:\n      mload(0x40)\n      dup1\n      swap2\n      sub\n      swap1\n      log3\n        /* \"contacts/DAO_VotationSystem.sol\":2060:2817  {... */\n      pop\n      pop\n        /* \"contacts/DAO_VotationSystem.sol\":2005:2817  function vote(uint proposalId, bool positive) external {... */\n      pop\n      pop\n      jump\t// out\n        /* \"contacts/DAO_VotationSystem.sol\":1215:1333  function setVoteWeight(address voter, uint256 weight) external onlyOwner {... */\n    tag_52:\n        /* \"contacts/DAO_VotationSystem.sol\":195:200  owner */\n      0x00\n      dup1\n      sload\n      swap1\n      0x0100\n      exp\n      swap1\n      div\n      0xffffffffffffffffffffffffffffffffffffffff\n      and\n        /* \"contacts/DAO_VotationSystem.sol\":181:200  msg.sender == owner */\n      0xffffffffffffffffffffffffffffffffffffffff\n      and\n        /* \"contacts/DAO_VotationSystem.sol\":181:191  msg.sender */\n      caller\n        /* \"contacts/DAO_VotationSystem.sol\":181:200  msg.sender == owner */\n      0xffffffffffffffffffffffffffffffffffffffff\n      and\n      eq\n        /* \"contacts/DAO_VotationSystem.sol\":173:214  require(msg.sender == owner, \"not owner\") */\n      tag_122\n      jumpi\n      mload(0x40)\n      0x08c379a000000000000000000000000000000000000000000000000000000000\n      dup2\n      mstore\n      0x04\n      add\n      tag_123\n      swap1\n      tag_56\n      jump\t// in\n    tag_123:\n      mload(0x40)\n      dup1\n      swap2\n      sub\n      swap1\n      revert\n    tag_122:\n        /* \"contacts/DAO_VotationSystem.sol\":1319:1325  weight */\n      dup1\n        /* \"contacts/DAO_VotationSystem.sol\":1299:1309  voteWeight */\n      0x03\n        /* \"contacts/DAO_VotationSystem.sol\":1299:1316  voteWeight[voter] */\n      0x00\n        /* \"contacts/DAO_VotationSystem.sol\":1310:1315  voter */\n      dup5\n        /* \"contacts/DAO_VotationSystem.sol\":1299:1316  voteWeight[voter] */\n      0xffffffffffffffffffffffffffffffffffffffff\n      and\n      0xffffffffffffffffffffffffffffffffffffffff\n      and\n      dup2\n      mstore\n      0x20\n      add\n      swap1\n      dup2\n      mstore\n      0x20\n      add\n      0x00\n      keccak256\n        /* \"contacts/DAO_VotationSystem.sol\":1299:1325  voteWeight[voter] = weight */\n      dup2\n      swap1\n      sstore\n      pop\n        /* \"contacts/DAO_VotationSystem.sol\":1215:1333  function setVoteWeight(address voter, uint256 weight) external onlyOwner {... */\n      pop\n      pop\n      jump\t// out\n        /* \"#utility.yul\":88:205   */\n    tag_126:\n        /* \"#utility.yul\":197:198   */\n      0x00\n        /* \"#utility.yul\":194:195   */\n      dup1\n        /* \"#utility.yul\":187:199   */\n      revert\n        /* \"#utility.yul\":211:328   */\n    tag_127:\n        /* \"#utility.yul\":320:321   */\n      0x00\n        /* \"#utility.yul\":317:318   */\n      dup1\n        /* \"#utility.yul\":310:322   */\n      revert\n        /* \"#utility.yul\":334:411   */\n    tag_128:\n        /* \"#utility.yul\":371:378   */\n      0x00\n        /* \"#utility.yul\":400:405   */\n      dup2\n        /* \"#utility.yul\":389:405   */\n      swap1\n      pop\n        /* \"#utility.yul\":334:411   */\n      swap2\n      swap1\n      pop\n      jump\t// out\n        /* \"#utility.yul\":417:539   */\n    tag_129:\n        /* \"#utility.yul\":490:514   */\n      tag_197\n        /* \"#utility.yul\":508:513   */\n      dup2\n        /* \"#utility.yul\":490:514   */\n      tag_128\n      jump\t// in\n    tag_197:\n        /* \"#utility.yul\":483:488   */\n      dup2\n        /* \"#utility.yul\":480:515   */\n      eq\n        /* \"#utility.yul\":470:533   */\n      tag_198\n      jumpi\n        /* \"#utility.yul\":529:530   */\n      0x00\n        /* \"#utility.yul\":526:527   */\n      dup1\n        /* \"#utility.yul\":519:531   */\n      revert\n        /* \"#utility.yul\":470:533   */\n    tag_198:\n        /* \"#utility.yul\":417:539   */\n      pop\n      jump\t// out\n        /* \"#utility.yul\":545:684   */\n    tag_130:\n        /* \"#utility.yul\":591:596   */\n      0x00\n        /* \"#utility.yul\":629:635   */\n      dup2\n        /* \"#utility.yul\":616:636   */\n      calldataload\n        /* \"#utility.yul\":607:636   */\n      swap1\n      pop\n        /* \"#utility.yul\":645:678   */\n      tag_200\n        /* \"#utility.yul\":672:677   */\n      dup2\n        /* \"#utility.yul\":645:678   */\n      tag_129\n      jump\t// in\n    tag_200:\n        /* \"#utility.yul\":545:684   */\n      swap3\n      swap2\n      pop\n      pop\n      jump\t// out\n        /* \"#utility.yul\":690:1019   */\n    tag_15:\n        /* \"#utility.yul\":749:755   */\n      0x00\n        /* \"#utility.yul\":798:800   */\n      0x20\n        /* \"#utility.yul\":786:795   */\n      dup3\n        /* \"#utility.yul\":777:784   */\n      dup5\n        /* \"#utility.yul\":773:796   */\n      sub\n        /* \"#utility.yul\":769:801   */\n      slt\n        /* \"#utility.yul\":766:885   */\n      iszero\n      tag_202\n      jumpi\n        /* \"#utility.yul\":804:883   */\n      tag_203\n      tag_126\n      jump\t// in\n    tag_203:\n        /* \"#utility.yul\":766:885   */\n    tag_202:\n        /* \"#utility.yul\":924:925   */\n      0x00\n        /* \"#utility.yul\":949:1002   */\n      tag_204\n        /* \"#utility.yul\":994:1001   */\n      dup5\n        /* \"#utility.yul\":985:991   */\n      dup3\n        /* \"#utility.yul\":974:983   */\n      dup6\n        /* \"#utility.yul\":970:992   */\n      add\n        /* \"#utility.yul\":949:1002   */\n      tag_130\n      jump\t// in\n    tag_204:\n        /* \"#utility.yul\":939:1002   */\n      swap2\n      pop\n        /* \"#utility.yul\":895:1012   */\n      pop\n        /* \"#utility.yul\":690:1019   */\n      swap3\n      swap2\n      pop\n      pop\n      jump\t// out\n        /* \"#utility.yul\":1025:1143   */\n    tag_131:\n        /* \"#utility.yul\":1112:1136   */\n      tag_206\n        /* \"#utility.yul\":1130:1135   */\n      dup2\n        /* \"#utility.yul\":1112:1136   */\n      tag_128\n      jump\t// in\n    tag_206:\n        /* \"#utility.yul\":1107:1110   */\n      dup3\n        /* \"#utility.yul\":1100:1137   */\n      mstore\n        /* \"#utility.yul\":1025:1143   */\n      pop\n      pop\n      jump\t// out\n        /* \"#utility.yul\":1149:1371   */\n    tag_20:\n        /* \"#utility.yul\":1242:1246   */\n      0x00\n        /* \"#utility.yul\":1280:1282   */\n      0x20\n        /* \"#utility.yul\":1269:1278   */\n      dup3\n        /* \"#utility.yul\":1265:1283   */\n      add\n        /* \"#utility.yul\":1257:1283   */\n      swap1\n      pop\n        /* \"#utility.yul\":1293:1364   */\n      tag_208\n        /* \"#utility.yul\":1361:1362   */\n      0x00\n        /* \"#utility.yul\":1350:1359   */\n      dup4\n        /* \"#utility.yul\":1346:1363   */\n      add\n        /* \"#utility.yul\":1337:1343   */\n      dup5\n        /* \"#utility.yul\":1293:1364   */\n      tag_131\n      jump\t// in\n    tag_208:\n        /* \"#utility.yul\":1149:1371   */\n      swap3\n      swap2\n      pop\n      pop\n      jump\t// out\n        /* \"#utility.yul\":1377:1503   */\n    tag_132:\n        /* \"#utility.yul\":1414:1421   */\n      0x00\n        /* \"#utility.yul\":1454:1496   */\n      0xffffffffffffffffffffffffffffffffffffffff\n        /* \"#utility.yul\":1447:1452   */\n      dup3\n        /* \"#utility.yul\":1443:1497   */\n      and\n        /* \"#utility.yul\":1432:1497   */\n      swap1\n      pop\n        /* \"#utility.yul\":1377:1503   */\n      swap2\n      swap1\n      pop\n      jump\t// out\n        /* \"#utility.yul\":1509:1605   */\n    tag_133:\n        /* \"#utility.yul\":1546:1553   */\n      0x00\n        /* \"#utility.yul\":1575:1599   */\n      tag_211\n        /* \"#utility.yul\":1593:1598   */\n      dup3\n        /* \"#utility.yul\":1575:1599   */\n      tag_132\n      jump\t// in\n    tag_211:\n        /* \"#utility.yul\":1564:1599   */\n      swap1\n      pop\n        /* \"#utility.yul\":1509:1605   */\n      swap2\n      swap1\n      pop\n      jump\t// out\n        /* \"#utility.yul\":1611:1733   */\n    tag_134:\n        /* \"#utility.yul\":1684:1708   */\n      tag_213\n        /* \"#utility.yul\":1702:1707   */\n      dup2\n        /* \"#utility.yul\":1684:1708   */\n      tag_133\n      jump\t// in\n    tag_213:\n        /* \"#utility.yul\":1677:1682   */\n      dup2\n        /* \"#utility.yul\":1674:1709   */\n      eq\n        /* \"#utility.yul\":1664:1727   */\n      tag_214\n      jumpi\n        /* \"#utility.yul\":1723:1724   */\n      0x00\n        /* \"#utility.yul\":1720:1721   */\n      dup1\n        /* \"#utility.yul\":1713:1725   */\n      revert\n        /* \"#utility.yul\":1664:1727   */\n    tag_214:\n        /* \"#utility.yul\":1611:1733   */\n      pop\n      jump\t// out\n        /* \"#utility.yul\":1739:1878   */\n    tag_135:\n        /* \"#utility.yul\":1785:1790   */\n      0x00\n        /* \"#utility.yul\":1823:1829   */\n      dup2\n        /* \"#utility.yul\":1810:1830   */\n      calldataload\n        /* \"#utility.yul\":1801:1830   */\n      swap1\n      pop\n        /* \"#utility.yul\":1839:1872   */\n      tag_216\n        /* \"#utility.yul\":1866:1871   */\n      dup2\n        /* \"#utility.yul\":1839:1872   */\n      tag_134\n      jump\t// in\n    tag_216:\n        /* \"#utility.yul\":1739:1878   */\n      swap3\n      swap2\n      pop\n      pop\n      jump\t// out\n        /* \"#utility.yul\":1884:2001   */\n    tag_136:\n        /* \"#utility.yul\":1993:1994   */\n      0x00\n        /* \"#utility.yul\":1990:1991   */\n      dup1\n        /* \"#utility.yul\":1983:1995   */\n      revert\n        /* \"#utility.yul\":2007:2124   */\n    tag_137:\n        /* \"#utility.yul\":2116:2117   */\n      0x00\n        /* \"#utility.yul\":2113:2114   */\n      dup1\n        /* \"#utility.yul\":2106:2118   */\n      revert\n        /* \"#utility.yul\":2130:2247   */\n    tag_138:\n        /* \"#utility.yul\":2239:2240   */\n      0x00\n        /* \"#utility.yul\":2236:2237   */\n      dup1\n        /* \"#utility.yul\":2229:2241   */\n      revert\n        /* \"#utility.yul\":2267:2820   */\n    tag_139:\n        /* \"#utility.yul\":2325:2333   */\n      0x00\n        /* \"#utility.yul\":2335:2341   */\n      dup1\n        /* \"#utility.yul\":2385:2388   */\n      dup4\n        /* \"#utility.yul\":2378:2382   */\n      0x1f\n        /* \"#utility.yul\":2370:2376   */\n      dup5\n        /* \"#utility.yul\":2366:2383   */\n      add\n        /* \"#utility.yul\":2362:2389   */\n      slt\n        /* \"#utility.yul\":2352:2474   */\n      tag_221\n      jumpi\n        /* \"#utility.yul\":2393:2472   */\n      tag_222\n      tag_136\n      jump\t// in\n    tag_222:\n        /* \"#utility.yul\":2352:2474   */\n    tag_221:\n        /* \"#utility.yul\":2506:2512   */\n      dup3\n        /* \"#utility.yul\":2493:2513   */\n      calldataload\n        /* \"#utility.yul\":2483:2513   */\n      swap1\n      pop\n        /* \"#utility.yul\":2536:2554   */\n      0xffffffffffffffff\n        /* \"#utility.yul\":2528:2534   */\n      dup2\n        /* \"#utility.yul\":2525:2555   */\n      gt\n        /* \"#utility.yul\":2522:2639   */\n      iszero\n      tag_223\n      jumpi\n        /* \"#utility.yul\":2558:2637   */\n      tag_224\n      tag_137\n      jump\t// in\n    tag_224:\n        /* \"#utility.yul\":2522:2639   */\n    tag_223:\n        /* \"#utility.yul\":2672:2676   */\n      0x20\n        /* \"#utility.yul\":2664:2670   */\n      dup4\n        /* \"#utility.yul\":2660:2677   */\n      add\n        /* \"#utility.yul\":2648:2677   */\n      swap2\n      pop\n        /* \"#utility.yul\":2726:2729   */\n      dup4\n        /* \"#utility.yul\":2718:2722   */\n      0x01\n        /* \"#utility.yul\":2710:2716   */\n      dup3\n        /* \"#utility.yul\":2706:2723   */\n      mul\n        /* \"#utility.yul\":2696:2704   */\n      dup4\n        /* \"#utility.yul\":2692:2724   */\n      add\n        /* \"#utility.yul\":2689:2730   */\n      gt\n        /* \"#utility.yul\":2686:2814   */\n      iszero\n      tag_225\n      jumpi\n        /* \"#utility.yul\":2733:2812   */\n      tag_226\n      tag_138\n      jump\t// in\n    tag_226:\n        /* \"#utility.yul\":2686:2814   */\n    tag_225:\n        /* \"#utility.yul\":2267:2820   */\n      swap3\n      pop\n      swap3\n      swap1\n      pop\n      jump\t// out\n        /* \"#utility.yul\":2826:3645   */\n    tag_23:\n        /* \"#utility.yul\":2915:2921   */\n      0x00\n        /* \"#utility.yul\":2923:2929   */\n      dup1\n        /* \"#utility.yul\":2931:2937   */\n      0x00\n        /* \"#utility.yul\":2939:2945   */\n      dup1\n        /* \"#utility.yul\":2988:2990   */\n      0x60\n        /* \"#utility.yul\":2976:2985   */\n      dup6\n        /* \"#utility.yul\":2967:2974   */\n      dup8\n        /* \"#utility.yul\":2963:2986   */\n      sub\n        /* \"#utility.yul\":2959:2991   */\n      slt\n        /* \"#utility.yul\":2956:3075   */\n      iszero\n      tag_228\n      jumpi\n        /* \"#utility.yul\":2994:3073   */\n      tag_229\n      tag_126\n      jump\t// in\n    tag_229:\n        /* \"#utility.yul\":2956:3075   */\n    tag_228:\n        /* \"#utility.yul\":3114:3115   */\n      0x00\n        /* \"#utility.yul\":3139:3192   */\n      tag_230\n        /* \"#utility.yul\":3184:3191   */\n      dup8\n        /* \"#utility.yul\":3175:3181   */\n      dup3\n        /* \"#utility.yul\":3164:3173   */\n      dup9\n        /* \"#utility.yul\":3160:3182   */\n      add\n        /* \"#utility.yul\":3139:3192   */\n      tag_135\n      jump\t// in\n    tag_230:\n        /* \"#utility.yul\":3129:3192   */\n      swap5\n      pop\n        /* \"#utility.yul\":3085:3202   */\n      pop\n        /* \"#utility.yul\":3269:3271   */\n      0x20\n        /* \"#utility.yul\":3258:3267   */\n      dup6\n        /* \"#utility.yul\":3254:3272   */\n      add\n        /* \"#utility.yul\":3241:3273   */\n      calldataload\n        /* \"#utility.yul\":3300:3318   */\n      0xffffffffffffffff\n        /* \"#utility.yul\":3292:3298   */\n      dup2\n        /* \"#utility.yul\":3289:3319   */\n      gt\n        /* \"#utility.yul\":3286:3403   */\n      iszero\n      tag_231\n      jumpi\n        /* \"#utility.yul\":3322:3401   */\n      tag_232\n      tag_127\n      jump\t// in\n    tag_232:\n        /* \"#utility.yul\":3286:3403   */\n    tag_231:\n        /* \"#utility.yul\":3435:3500   */\n      tag_233\n        /* \"#utility.yul\":3492:3499   */\n      dup8\n        /* \"#utility.yul\":3483:3489   */\n      dup3\n        /* \"#utility.yul\":3472:3481   */\n      dup9\n        /* \"#utility.yul\":3468:3490   */\n      add\n        /* \"#utility.yul\":3435:3500   */\n      tag_139\n      jump\t// in\n    tag_233:\n        /* \"#utility.yul\":3417:3500   */\n      swap4\n      pop\n      swap4\n      pop\n        /* \"#utility.yul\":3212:3510   */\n      pop\n        /* \"#utility.yul\":3549:3551   */\n      0x40\n        /* \"#utility.yul\":3575:3628   */\n      tag_234\n        /* \"#utility.yul\":3620:3627   */\n      dup8\n        /* \"#utility.yul\":3611:3617   */\n      dup3\n        /* \"#utility.yul\":3600:3609   */\n      dup9\n        /* \"#utility.yul\":3596:3618   */\n      add\n        /* \"#utility.yul\":3575:3628   */\n      tag_130\n      jump\t// in\n    tag_234:\n        /* \"#utility.yul\":3565:3628   */\n      swap2\n      pop\n        /* \"#utility.yul\":3520:3638   */\n      pop\n        /* \"#utility.yul\":2826:3645   */\n      swap3\n      swap6\n      swap2\n      swap5\n      pop\n      swap3\n      pop\n      jump\t// out\n        /* \"#utility.yul\":3651:4125   */\n    tag_27:\n        /* \"#utility.yul\":3719:3725   */\n      0x00\n        /* \"#utility.yul\":3727:3733   */\n      dup1\n        /* \"#utility.yul\":3776:3778   */\n      0x40\n        /* \"#utility.yul\":3764:3773   */\n      dup4\n        /* \"#utility.yul\":3755:3762   */\n      dup6\n        /* \"#utility.yul\":3751:3774   */\n      sub\n        /* \"#utility.yul\":3747:3779   */\n      slt\n        /* \"#utility.yul\":3744:3863   */\n      iszero\n      tag_236\n      jumpi\n        /* \"#utility.yul\":3782:3861   */\n      tag_237\n      tag_126\n      jump\t// in\n    tag_237:\n        /* \"#utility.yul\":3744:3863   */\n    tag_236:\n        /* \"#utility.yul\":3902:3903   */\n      0x00\n        /* \"#utility.yul\":3927:3980   */\n      tag_238\n        /* \"#utility.yul\":3972:3979   */\n      dup6\n        /* \"#utility.yul\":3963:3969   */\n      dup3\n        /* \"#utility.yul\":3952:3961   */\n      dup7\n        /* \"#utility.yul\":3948:3970   */\n      add\n        /* \"#utility.yul\":3927:3980   */\n      tag_130\n      jump\t// in\n    tag_238:\n        /* \"#utility.yul\":3917:3980   */\n      swap3\n      pop\n        /* \"#utility.yul\":3873:3990   */\n      pop\n        /* \"#utility.yul\":4029:4031   */\n      0x20\n        /* \"#utility.yul\":4055:4108   */\n      tag_239\n        /* \"#utility.yul\":4100:4107   */\n      dup6\n        /* \"#utility.yul\":4091:4097   */\n      dup3\n        /* \"#utility.yul\":4080:4089   */\n      dup7\n        /* \"#utility.yul\":4076:4098   */\n      add\n        /* \"#utility.yul\":4055:4108   */\n      tag_135\n      jump\t// in\n    tag_239:\n        /* \"#utility.yul\":4045:4108   */\n      swap2\n      pop\n        /* \"#utility.yul\":4000:4118   */\n      pop\n        /* \"#utility.yul\":3651:4125   */\n      swap3\n      pop\n      swap3\n      swap1\n      pop\n      jump\t// out\n        /* \"#utility.yul\":4131:4221   */\n    tag_140:\n        /* \"#utility.yul\":4165:4172   */\n      0x00\n        /* \"#utility.yul\":4208:4213   */\n      dup2\n        /* \"#utility.yul\":4201:4214   */\n      iszero\n        /* \"#utility.yul\":4194:4215   */\n      iszero\n        /* \"#utility.yul\":4183:4215   */\n      swap1\n      pop\n        /* \"#utility.yul\":4131:4221   */\n      swap2\n      swap1\n      pop\n      jump\t// out\n        /* \"#utility.yul\":4227:4336   */\n    tag_141:\n        /* \"#utility.yul\":4308:4329   */\n      tag_242\n        /* \"#utility.yul\":4323:4328   */\n      dup2\n        /* \"#utility.yul\":4308:4329   */\n      tag_140\n      jump\t// in\n    tag_242:\n        /* \"#utility.yul\":4303:4306   */\n      dup3\n        /* \"#utility.yul\":4296:4330   */\n      mstore\n        /* \"#utility.yul\":4227:4336   */\n      pop\n      pop\n      jump\t// out\n        /* \"#utility.yul\":4342:4552   */\n    tag_30:\n        /* \"#utility.yul\":4429:4433   */\n      0x00\n        /* \"#utility.yul\":4467:4469   */\n      0x20\n        /* \"#utility.yul\":4456:4465   */\n      dup3\n        /* \"#utility.yul\":4452:4470   */\n      add\n        /* \"#utility.yul\":4444:4470   */\n      swap1\n      pop\n        /* \"#utility.yul\":4480:4545   */\n      tag_244\n        /* \"#utility.yul\":4542:4543   */\n      0x00\n        /* \"#utility.yul\":4531:4540   */\n      dup4\n        /* \"#utility.yul\":4527:4544   */\n      add\n        /* \"#utility.yul\":4518:4524   */\n      dup5\n        /* \"#utility.yul\":4480:4545   */\n      tag_141\n      jump\t// in\n    tag_244:\n        /* \"#utility.yul\":4342:4552   */\n      swap3\n      swap2\n      pop\n      pop\n      jump\t// out\n        /* \"#utility.yul\":4558:4887   */\n    tag_33:\n        /* \"#utility.yul\":4617:4623   */\n      0x00\n        /* \"#utility.yul\":4666:4668   */\n      0x20\n        /* \"#utility.yul\":4654:4663   */\n      dup3\n        /* \"#utility.yul\":4645:4652   */\n      dup5\n        /* \"#utility.yul\":4641:4664   */\n      sub\n        /* \"#utility.yul\":4637:4669   */\n      slt\n        /* \"#utility.yul\":4634:4753   */\n      iszero\n      tag_246\n      jumpi\n        /* \"#utility.yul\":4672:4751   */\n      tag_247\n      tag_126\n      jump\t// in\n    tag_247:\n        /* \"#utility.yul\":4634:4753   */\n    tag_246:\n        /* \"#utility.yul\":4792:4793   */\n      0x00\n        /* \"#utility.yul\":4817:4870   */\n      tag_248\n        /* \"#utility.yul\":4862:4869   */\n      dup5\n        /* \"#utility.yul\":4853:4859   */\n      dup3\n        /* \"#utility.yul\":4842:4851   */\n      dup6\n        /* \"#utility.yul\":4838:4860   */\n      add\n        /* \"#utility.yul\":4817:4870   */\n      tag_135\n      jump\t// in\n    tag_248:\n        /* \"#utility.yul\":4807:4870   */\n      swap2\n      pop\n        /* \"#utility.yul\":4763:4880   */\n      pop\n        /* \"#utility.yul\":4558:4887   */\n      swap3\n      swap2\n      pop\n      pop\n      jump\t// out\n        /* \"#utility.yul\":4893:5011   */\n    tag_142:\n        /* \"#utility.yul\":4980:5004   */\n      tag_250\n        /* \"#utility.yul\":4998:5003   */\n      dup2\n        /* \"#utility.yul\":4980:5004   */\n      tag_133\n      jump\t// in\n    tag_250:\n        /* \"#utility.yul\":4975:4978   */\n      dup3\n        /* \"#utility.yul\":4968:5005   */\n      mstore\n        /* \"#utility.yul\":4893:5011   */\n      pop\n      pop\n      jump\t// out\n        /* \"#utility.yul\":5017:5239   */\n    tag_39:\n        /* \"#utility.yul\":5110:5114   */\n      0x00\n        /* \"#utility.yul\":5148:5150   */\n      0x20\n        /* \"#utility.yul\":5137:5146   */\n      dup3\n        /* \"#utility.yul\":5133:5151   */\n      add\n        /* \"#utility.yul\":5125:5151   */\n      swap1\n      pop\n        /* \"#utility.yul\":5161:5232   */\n      tag_252\n        /* \"#utility.yul\":5229:5230   */\n      0x00\n        /* \"#utility.yul\":5218:5227   */\n      dup4\n        /* \"#utility.yul\":5214:5231   */\n      add\n        /* \"#utility.yul\":5205:5211   */\n      dup5\n        /* \"#utility.yul\":5161:5232   */\n      tag_142\n      jump\t// in\n    tag_252:\n        /* \"#utility.yul\":5017:5239   */\n      swap3\n      swap2\n      pop\n      pop\n      jump\t// out\n        /* \"#utility.yul\":5245:5344   */\n    tag_143:\n        /* \"#utility.yul\":5297:5303   */\n      0x00\n        /* \"#utility.yul\":5331:5336   */\n      dup2\n        /* \"#utility.yul\":5325:5337   */\n      mload\n        /* \"#utility.yul\":5315:5337   */\n      swap1\n      pop\n        /* \"#utility.yul\":5245:5344   */\n      swap2\n      swap1\n      pop\n      jump\t// out\n        /* \"#utility.yul\":5350:5519   */\n    tag_144:\n        /* \"#utility.yul\":5434:5445   */\n      0x00\n        /* \"#utility.yul\":5468:5474   */\n      dup3\n        /* \"#utility.yul\":5463:5466   */\n      dup3\n        /* \"#utility.yul\":5456:5475   */\n      mstore\n        /* \"#utility.yul\":5508:5512   */\n      0x20\n        /* \"#utility.yul\":5503:5506   */\n      dup3\n        /* \"#utility.yul\":5499:5513   */\n      add\n        /* \"#utility.yul\":5484:5513   */\n      swap1\n      pop\n        /* \"#utility.yul\":5350:5519   */\n      swap3\n      swap2\n      pop\n      pop\n      jump\t// out\n        /* \"#utility.yul\":5525:5773   */\n    tag_145:\n        /* \"#utility.yul\":5607:5608   */\n      0x00\n        /* \"#utility.yul\":5617:5730   */\n    tag_256:\n        /* \"#utility.yul\":5631:5637   */\n      dup4\n        /* \"#utility.yul\":5628:5629   */\n      dup2\n        /* \"#utility.yul\":5625:5638   */\n      lt\n        /* \"#utility.yul\":5617:5730   */\n      iszero\n      tag_258\n      jumpi\n        /* \"#utility.yul\":5716:5717   */\n      dup1\n        /* \"#utility.yul\":5711:5714   */\n      dup3\n        /* \"#utility.yul\":5707:5718   */\n      add\n        /* \"#utility.yul\":5701:5719   */\n      mload\n        /* \"#utility.yul\":5697:5698   */\n      dup2\n        /* \"#utility.yul\":5692:5695   */\n      dup5\n        /* \"#utility.yul\":5688:5699   */\n      add\n        /* \"#utility.yul\":5681:5720   */\n      mstore\n        /* \"#utility.yul\":5653:5655   */\n      0x20\n        /* \"#utility.yul\":5650:5651   */\n      dup2\n        /* \"#utility.yul\":5646:5656   */\n      add\n        /* \"#utility.yul\":5641:5656   */\n      swap1\n      pop\n        /* \"#utility.yul\":5617:5730   */\n      jump(tag_256)\n    tag_258:\n        /* \"#utility.yul\":5764:5765   */\n      0x00\n        /* \"#utility.yul\":5755:5761   */\n      dup5\n        /* \"#utility.yul\":5750:5753   */\n      dup5\n        /* \"#utility.yul\":5746:5762   */\n      add\n        /* \"#utility.yul\":5739:5766   */\n      mstore\n        /* \"#utility.yul\":5587:5773   */\n      pop\n        /* \"#utility.yul\":5525:5773   */\n      pop\n      pop\n      pop\n      jump\t// out\n        /* \"#utility.yul\":5779:5881   */\n    tag_146:\n        /* \"#utility.yul\":5820:5826   */\n      0x00\n        /* \"#utility.yul\":5871:5873   */\n      0x1f\n        /* \"#utility.yul\":5867:5874   */\n      not\n        /* \"#utility.yul\":5862:5864   */\n      0x1f\n        /* \"#utility.yul\":5855:5860   */\n      dup4\n        /* \"#utility.yul\":5851:5865   */\n      add\n        /* \"#utility.yul\":5847:5875   */\n      and\n        /* \"#utility.yul\":5837:5875   */\n      swap1\n      pop\n        /* \"#utility.yul\":5779:5881   */\n      swap2\n      swap1\n      pop\n      jump\t// out\n        /* \"#utility.yul\":5887:6264   */\n    tag_147:\n        /* \"#utility.yul\":5975:5978   */\n      0x00\n        /* \"#utility.yul\":6003:6042   */\n      tag_261\n        /* \"#utility.yul\":6036:6041   */\n      dup3\n        /* \"#utility.yul\":6003:6042   */\n      tag_143\n      jump\t// in\n    tag_261:\n        /* \"#utility.yul\":6058:6129   */\n      tag_262\n        /* \"#utility.yul\":6122:6128   */\n      dup2\n        /* \"#utility.yul\":6117:6120   */\n      dup6\n        /* \"#utility.yul\":6058:6129   */\n      tag_144\n      jump\t// in\n    tag_262:\n        /* \"#utility.yul\":6051:6129   */\n      swap4\n      pop\n        /* \"#utility.yul\":6138:6203   */\n      tag_263\n        /* \"#utility.yul\":6196:6202   */\n      dup2\n        /* \"#utility.yul\":6191:6194   */\n      dup6\n        /* \"#utility.yul\":6184:6188   */\n      0x20\n        /* \"#utility.yul\":6177:6182   */\n      dup7\n        /* \"#utility.yul\":6173:6189   */\n      add\n        /* \"#utility.yul\":6138:6203   */\n      tag_145\n      jump\t// in\n    tag_263:\n        /* \"#utility.yul\":6228:6257   */\n      tag_264\n        /* \"#utility.yul\":6250:6256   */\n      dup2\n        /* \"#utility.yul\":6228:6257   */\n      tag_146\n      jump\t// in\n    tag_264:\n        /* \"#utility.yul\":6223:6226   */\n      dup5\n        /* \"#utility.yul\":6219:6258   */\n      add\n        /* \"#utility.yul\":6212:6258   */\n      swap2\n      pop\n        /* \"#utility.yul\":5979:6264   */\n      pop\n        /* \"#utility.yul\":5887:6264   */\n      swap3\n      swap2\n      pop\n      pop\n      jump\t// out\n        /* \"#utility.yul\":6270:7457   */\n    tag_44:\n        /* \"#utility.yul\":6601:6605   */\n      0x00\n        /* \"#utility.yul\":6639:6642   */\n      0x0120\n        /* \"#utility.yul\":6628:6637   */\n      dup3\n        /* \"#utility.yul\":6624:6643   */\n      add\n        /* \"#utility.yul\":6616:6643   */\n      swap1\n      pop\n        /* \"#utility.yul\":6653:6724   */\n      tag_266\n        /* \"#utility.yul\":6721:6722   */\n      0x00\n        /* \"#utility.yul\":6710:6719   */\n      dup4\n        /* \"#utility.yul\":6706:6723   */\n      add\n        /* \"#utility.yul\":6697:6703   */\n      dup13\n        /* \"#utility.yul\":6653:6724   */\n      tag_131\n      jump\t// in\n    tag_266:\n        /* \"#utility.yul\":6734:6806   */\n      tag_267\n        /* \"#utility.yul\":6802:6804   */\n      0x20\n        /* \"#utility.yul\":6791:6800   */\n      dup4\n        /* \"#utility.yul\":6787:6805   */\n      add\n        /* \"#utility.yul\":6778:6784   */\n      dup12\n        /* \"#utility.yul\":6734:6806   */\n      tag_142\n      jump\t// in\n    tag_267:\n        /* \"#utility.yul\":6853:6862   */\n      dup2\n        /* \"#utility.yul\":6847:6851   */\n      dup2\n        /* \"#utility.yul\":6843:6863   */\n      sub\n        /* \"#utility.yul\":6838:6840   */\n      0x40\n        /* \"#utility.yul\":6827:6836   */\n      dup4\n        /* \"#utility.yul\":6823:6841   */\n      add\n        /* \"#utility.yul\":6816:6864   */\n      mstore\n        /* \"#utility.yul\":6881:6959   */\n      tag_268\n        /* \"#utility.yul\":6954:6958   */\n      dup2\n        /* \"#utility.yul\":6945:6951   */\n      dup11\n        /* \"#utility.yul\":6881:6959   */\n      tag_147\n      jump\t// in\n    tag_268:\n        /* \"#utility.yul\":6873:6959   */\n      swap1\n      pop\n        /* \"#utility.yul\":6969:7035   */\n      tag_269\n        /* \"#utility.yul\":7031:7033   */\n      0x60\n        /* \"#utility.yul\":7020:7029   */\n      dup4\n        /* \"#utility.yul\":7016:7034   */\n      add\n        /* \"#utility.yul\":7007:7013   */\n      dup10\n        /* \"#utility.yul\":6969:7035   */\n      tag_141\n      jump\t// in\n    tag_269:\n        /* \"#utility.yul\":7045:7118   */\n      tag_270\n        /* \"#utility.yul\":7113:7116   */\n      0x80\n        /* \"#utility.yul\":7102:7111   */\n      dup4\n        /* \"#utility.yul\":7098:7117   */\n      add\n        /* \"#utility.yul\":7089:7095   */\n      dup9\n        /* \"#utility.yul\":7045:7118   */\n      tag_131\n      jump\t// in\n    tag_270:\n        /* \"#utility.yul\":7128:7201   */\n      tag_271\n        /* \"#utility.yul\":7196:7199   */\n      0xa0\n        /* \"#utility.yul\":7185:7194   */\n      dup4\n        /* \"#utility.yul\":7181:7200   */\n      add\n        /* \"#utility.yul\":7172:7178   */\n      dup8\n        /* \"#utility.yul\":7128:7201   */\n      tag_131\n      jump\t// in\n    tag_271:\n        /* \"#utility.yul\":7211:7284   */\n      tag_272\n        /* \"#utility.yul\":7279:7282   */\n      0xc0\n        /* \"#utility.yul\":7268:7277   */\n      dup4\n        /* \"#utility.yul\":7264:7283   */\n      add\n        /* \"#utility.yul\":7255:7261   */\n      dup7\n        /* \"#utility.yul\":7211:7284   */\n      tag_131\n      jump\t// in\n    tag_272:\n        /* \"#utility.yul\":7294:7367   */\n      tag_273\n        /* \"#utility.yul\":7362:7365   */\n      0xe0\n        /* \"#utility.yul\":7351:7360   */\n      dup4\n        /* \"#utility.yul\":7347:7366   */\n      add\n        /* \"#utility.yul\":7338:7344   */\n      dup6\n        /* \"#utility.yul\":7294:7367   */\n      tag_131\n      jump\t// in\n    tag_273:\n        /* \"#utility.yul\":7377:7450   */\n      tag_274\n        /* \"#utility.yul\":7445:7448   */\n      0x0100\n        /* \"#utility.yul\":7434:7443   */\n      dup4\n        /* \"#utility.yul\":7430:7449   */\n      add\n        /* \"#utility.yul\":7421:7427   */\n      dup5\n        /* \"#utility.yul\":7377:7450   */\n      tag_131\n      jump\t// in\n    tag_274:\n        /* \"#utility.yul\":6270:7457   */\n      swap11\n      swap10\n      pop\n      pop\n      pop\n      pop\n      pop\n      pop\n      pop\n      pop\n      pop\n      pop\n      jump\t// out\n        /* \"#utility.yul\":7463:7579   */\n    tag_148:\n        /* \"#utility.yul\":7533:7554   */\n      tag_276\n        /* \"#utility.yul\":7548:7553   */\n      dup2\n        /* \"#utility.yul\":7533:7554   */\n      tag_140\n      jump\t// in\n    tag_276:\n        /* \"#utility.yul\":7526:7531   */\n      dup2\n        /* \"#utility.yul\":7523:7555   */\n      eq\n        /* \"#utility.yul\":7513:7573   */\n      tag_277\n      jumpi\n        /* \"#utility.yul\":7569:7570   */\n      0x00\n        /* \"#utility.yul\":7566:7567   */\n      dup1\n        /* \"#utility.yul\":7559:7571   */\n      revert\n        /* \"#utility.yul\":7513:7573   */\n    tag_277:\n        /* \"#utility.yul\":7463:7579   */\n      pop\n      jump\t// out\n        /* \"#utility.yul\":7585:7718   */\n    tag_149:\n        /* \"#utility.yul\":7628:7633   */\n      0x00\n        /* \"#utility.yul\":7666:7672   */\n      dup2\n        /* \"#utility.yul\":7653:7673   */\n      calldataload\n        /* \"#utility.yul\":7644:7673   */\n      swap1\n      pop\n        /* \"#utility.yul\":7682:7712   */\n      tag_279\n        /* \"#utility.yul\":7706:7711   */\n      dup2\n        /* \"#utility.yul\":7682:7712   */\n      tag_148\n      jump\t// in\n    tag_279:\n        /* \"#utility.yul\":7585:7718   */\n      swap3\n      swap2\n      pop\n      pop\n      jump\t// out\n        /* \"#utility.yul\":7724:8192   */\n    tag_47:\n        /* \"#utility.yul\":7789:7795   */\n      0x00\n        /* \"#utility.yul\":7797:7803   */\n      dup1\n        /* \"#utility.yul\":7846:7848   */\n      0x40\n        /* \"#utility.yul\":7834:7843   */\n      dup4\n        /* \"#utility.yul\":7825:7832   */\n      dup6\n        /* \"#utility.yul\":7821:7844   */\n      sub\n        /* \"#utility.yul\":7817:7849   */\n      slt\n        /* \"#utility.yul\":7814:7933   */\n      iszero\n      tag_281\n      jumpi\n        /* \"#utility.yul\":7852:7931   */\n      tag_282\n      tag_126\n      jump\t// in\n    tag_282:\n        /* \"#utility.yul\":7814:7933   */\n    tag_281:\n        /* \"#utility.yul\":7972:7973   */\n      0x00\n        /* \"#utility.yul\":7997:8050   */\n      tag_283\n        /* \"#utility.yul\":8042:8049   */\n      dup6\n        /* \"#utility.yul\":8033:8039   */\n      dup3\n        /* \"#utility.yul\":8022:8031   */\n      dup7\n        /* \"#utility.yul\":8018:8040   */\n      add\n        /* \"#utility.yul\":7997:8050   */\n      tag_130\n      jump\t// in\n    tag_283:\n        /* \"#utility.yul\":7987:8050   */\n      swap3\n      pop\n        /* \"#utility.yul\":7943:8060   */\n      pop\n        /* \"#utility.yul\":8099:8101   */\n      0x20\n        /* \"#utility.yul\":8125:8175   */\n      tag_284\n        /* \"#utility.yul\":8167:8174   */\n      dup6\n        /* \"#utility.yul\":8158:8164   */\n      dup3\n        /* \"#utility.yul\":8147:8156   */\n      dup7\n        /* \"#utility.yul\":8143:8165   */\n      add\n        /* \"#utility.yul\":8125:8175   */\n      tag_149\n      jump\t// in\n    tag_284:\n        /* \"#utility.yul\":8115:8175   */\n      swap2\n      pop\n        /* \"#utility.yul\":8070:8185   */\n      pop\n        /* \"#utility.yul\":7724:8192   */\n      swap3\n      pop\n      swap3\n      swap1\n      pop\n      jump\t// out\n        /* \"#utility.yul\":8198:8672   */\n    tag_51:\n        /* \"#utility.yul\":8266:8272   */\n      0x00\n        /* \"#utility.yul\":8274:8280   */\n      dup1\n        /* \"#utility.yul\":8323:8325   */\n      0x40\n        /* \"#utility.yul\":8311:8320   */\n      dup4\n        /* \"#utility.yul\":8302:8309   */\n      dup6\n        /* \"#utility.yul\":8298:8321   */\n      sub\n        /* \"#utility.yul\":8294:8326   */\n      slt\n        /* \"#utility.yul\":8291:8410   */\n      iszero\n      tag_286\n      jumpi\n        /* \"#utility.yul\":8329:8408   */\n      tag_287\n      tag_126\n      jump\t// in\n    tag_287:\n        /* \"#utility.yul\":8291:8410   */\n    tag_286:\n        /* \"#utility.yul\":8449:8450   */\n      0x00\n        /* \"#utility.yul\":8474:8527   */\n      tag_288\n        /* \"#utility.yul\":8519:8526   */\n      dup6\n        /* \"#utility.yul\":8510:8516   */\n      dup3\n        /* \"#utility.yul\":8499:8508   */\n      dup7\n        /* \"#utility.yul\":8495:8517   */\n      add\n        /* \"#utility.yul\":8474:8527   */\n      tag_135\n      jump\t// in\n    tag_288:\n        /* \"#utility.yul\":8464:8527   */\n      swap3\n      pop\n        /* \"#utility.yul\":8420:8537   */\n      pop\n        /* \"#utility.yul\":8576:8578   */\n      0x20\n        /* \"#utility.yul\":8602:8655   */\n      tag_289\n        /* \"#utility.yul\":8647:8654   */\n      dup6\n        /* \"#utility.yul\":8638:8644   */\n      dup3\n        /* \"#utility.yul\":8627:8636   */\n      dup7\n        /* \"#utility.yul\":8623:8645   */\n      add\n        /* \"#utility.yul\":8602:8655   */\n      tag_130\n      jump\t// in\n    tag_289:\n        /* \"#utility.yul\":8592:8655   */\n      swap2\n      pop\n        /* \"#utility.yul\":8547:8665   */\n      pop\n        /* \"#utility.yul\":8198:8672   */\n      swap3\n      pop\n      swap3\n      swap1\n      pop\n      jump\t// out\n        /* \"#utility.yul\":8678:8837   */\n    tag_150:\n        /* \"#utility.yul\":8818:8829   */\n      0x6e6f74206f776e65720000000000000000000000000000000000000000000000\n        /* \"#utility.yul\":8814:8815   */\n      0x00\n        /* \"#utility.yul\":8806:8812   */\n      dup3\n        /* \"#utility.yul\":8802:8816   */\n      add\n        /* \"#utility.yul\":8795:8830   */\n      mstore\n        /* \"#utility.yul\":8678:8837   */\n      pop\n      jump\t// out\n        /* \"#utility.yul\":8843:9208   */\n    tag_151:\n        /* \"#utility.yul\":8985:8988   */\n      0x00\n        /* \"#utility.yul\":9006:9072   */\n      tag_292\n        /* \"#utility.yul\":9070:9071   */\n      0x09\n        /* \"#utility.yul\":9065:9068   */\n      dup4\n        /* \"#utility.yul\":9006:9072   */\n      tag_144\n      jump\t// in\n    tag_292:\n        /* \"#utility.yul\":8999:9072   */\n      swap2\n      pop\n        /* \"#utility.yul\":9081:9174   */\n      tag_293\n        /* \"#utility.yul\":9170:9173   */\n      dup3\n        /* \"#utility.yul\":9081:9174   */\n      tag_150\n      jump\t// in\n    tag_293:\n        /* \"#utility.yul\":9199:9201   */\n      0x20\n        /* \"#utility.yul\":9194:9197   */\n      dup3\n        /* \"#utility.yul\":9190:9202   */\n      add\n        /* \"#utility.yul\":9183:9202   */\n      swap1\n      pop\n        /* \"#utility.yul\":8843:9208   */\n      swap2\n      swap1\n      pop\n      jump\t// out\n        /* \"#utility.yul\":9214:9633   */\n    tag_56:\n        /* \"#utility.yul\":9380:9384   */\n      0x00\n        /* \"#utility.yul\":9418:9420   */\n      0x20\n        /* \"#utility.yul\":9407:9416   */\n      dup3\n        /* \"#utility.yul\":9403:9421   */\n      add\n        /* \"#utility.yul\":9395:9421   */\n      swap1\n      pop\n        /* \"#utility.yul\":9467:9476   */\n      dup2\n        /* \"#utility.yul\":9461:9465   */\n      dup2\n        /* \"#utility.yul\":9457:9477   */\n      sub\n        /* \"#utility.yul\":9453:9454   */\n      0x00\n        /* \"#utility.yul\":9442:9451   */\n      dup4\n        /* \"#utility.yul\":9438:9455   */\n      add\n        /* \"#utility.yul\":9431:9478   */\n      mstore\n        /* \"#utility.yul\":9495:9626   */\n      tag_295\n        /* \"#utility.yul\":9621:9625   */\n      dup2\n        /* \"#utility.yul\":9495:9626   */\n      tag_151\n      jump\t// in\n    tag_295:\n        /* \"#utility.yul\":9487:9626   */\n      swap1\n      pop\n        /* \"#utility.yul\":9214:9633   */\n      swap2\n      swap1\n      pop\n      jump\t// out\n        /* \"#utility.yul\":9639:9805   */\n    tag_152:\n        /* \"#utility.yul\":9779:9797   */\n      0x496e76616c69642070726f706f73616c00000000000000000000000000000000\n        /* \"#utility.yul\":9775:9776   */\n      0x00\n        /* \"#utility.yul\":9767:9773   */\n      dup3\n        /* \"#utility.yul\":9763:9777   */\n      add\n        /* \"#utility.yul\":9756:9798   */\n      mstore\n        /* \"#utility.yul\":9639:9805   */\n      pop\n      jump\t// out\n        /* \"#utility.yul\":9811:10177   */\n    tag_153:\n        /* \"#utility.yul\":9953:9956   */\n      0x00\n        /* \"#utility.yul\":9974:10041   */\n      tag_298\n        /* \"#utility.yul\":10038:10040   */\n      0x10\n        /* \"#utility.yul\":10033:10036   */\n      dup4\n        /* \"#utility.yul\":9974:10041   */\n      tag_144\n      jump\t// in\n    tag_298:\n        /* \"#utility.yul\":9967:10041   */\n      swap2\n      pop\n        /* \"#utility.yul\":10050:10143   */\n      tag_299\n        /* \"#utility.yul\":10139:10142   */\n      dup3\n        /* \"#utility.yul\":10050:10143   */\n      tag_152\n      jump\t// in\n    tag_299:\n        /* \"#utility.yul\":10168:10170   */\n      0x20\n        /* \"#utility.yul\":10163:10166   */\n      dup3\n        /* \"#utility.yul\":10159:10171   */\n      add\n        /* \"#utility.yul\":10152:10171   */\n      swap1\n      pop\n        /* \"#utility.yul\":9811:10177   */\n      swap2\n      swap1\n      pop\n      jump\t// out\n        /* \"#utility.yul\":10183:10602   */\n    tag_60:\n        /* \"#utility.yul\":10349:10353   */\n      0x00\n        /* \"#utility.yul\":10387:10389   */\n      0x20\n        /* \"#utility.yul\":10376:10385   */\n      dup3\n        /* \"#utility.yul\":10372:10390   */\n      add\n        /* \"#utility.yul\":10364:10390   */\n      swap1\n      pop\n        /* \"#utility.yul\":10436:10445   */\n      dup2\n        /* \"#utility.yul\":10430:10434   */\n      dup2\n        /* \"#utility.yul\":10426:10446   */\n      sub\n        /* \"#utility.yul\":10422:10423   */\n      0x00\n        /* \"#utility.yul\":10411:10420   */\n      dup4\n        /* \"#utility.yul\":10407:10424   */\n      add\n        /* \"#utility.yul\":10400:10447   */\n      mstore\n        /* \"#utility.yul\":10464:10595   */\n      tag_301\n        /* \"#utility.yul\":10590:10594   */\n      dup2\n        /* \"#utility.yul\":10464:10595   */\n      tag_153\n      jump\t// in\n    tag_301:\n        /* \"#utility.yul\":10456:10595   */\n      swap1\n      pop\n        /* \"#utility.yul\":10183:10602   */\n      swap2\n      swap1\n      pop\n      jump\t// out\n        /* \"#utility.yul\":10608:10772   */\n    tag_154:\n        /* \"#utility.yul\":10748:10764   */\n      0x416c726561647920636c6f736564000000000000000000000000000000000000\n        /* \"#utility.yul\":10744:10745   */\n      0x00\n        /* \"#utility.yul\":10736:10742   */\n      dup3\n        /* \"#utility.yul\":10732:10746   */\n      add\n        /* \"#utility.yul\":10725:10765   */\n      mstore\n        /* \"#utility.yul\":10608:10772   */\n      pop\n      jump\t// out\n        /* \"#utility.yul\":10778:11144   */\n    tag_155:\n        /* \"#utility.yul\":10920:10923   */\n      0x00\n        /* \"#utility.yul\":10941:11008   */\n      tag_304\n        /* \"#utility.yul\":11005:11007   */\n      0x0e\n        /* \"#utility.yul\":11000:11003   */\n      dup4\n        /* \"#utility.yul\":10941:11008   */\n      tag_144\n      jump\t// in\n    tag_304:\n        /* \"#utility.yul\":10934:11008   */\n      swap2\n      pop\n        /* \"#utility.yul\":11017:11110   */\n      tag_305\n        /* \"#utility.yul\":11106:11109   */\n      dup3\n        /* \"#utility.yul\":11017:11110   */\n      tag_154\n      jump\t// in\n    tag_305:\n        /* \"#utility.yul\":11135:11137   */\n      0x20\n        /* \"#utility.yul\":11130:11133   */\n      dup3\n        /* \"#utility.yul\":11126:11138   */\n      add\n        /* \"#utility.yul\":11119:11138   */\n      swap1\n      pop\n        /* \"#utility.yul\":10778:11144   */\n      swap2\n      swap1\n      pop\n      jump\t// out\n        /* \"#utility.yul\":11150:11569   */\n    tag_63:\n        /* \"#utility.yul\":11316:11320   */\n      0x00\n        /* \"#utility.yul\":11354:11356   */\n      0x20\n        /* \"#utility.yul\":11343:11352   */\n      dup3\n        /* \"#utility.yul\":11339:11357   */\n      add\n        /* \"#utility.yul\":11331:11357   */\n      swap1\n      pop\n        /* \"#utility.yul\":11403:11412   */\n      dup2\n        /* \"#utility.yul\":11397:11401   */\n      dup2\n        /* \"#utility.yul\":11393:11413   */\n      sub\n        /* \"#utility.yul\":11389:11390   */\n      0x00\n        /* \"#utility.yul\":11378:11387   */\n      dup4\n        /* \"#utility.yul\":11374:11391   */\n      add\n        /* \"#utility.yul\":11367:11414   */\n      mstore\n        /* \"#utility.yul\":11431:11562   */\n      tag_307\n        /* \"#utility.yul\":11557:11561   */\n      dup2\n        /* \"#utility.yul\":11431:11562   */\n      tag_155\n      jump\t// in\n    tag_307:\n        /* \"#utility.yul\":11423:11562   */\n      swap1\n      pop\n        /* \"#utility.yul\":11150:11569   */\n      swap2\n      swap1\n      pop\n      jump\t// out\n        /* \"#utility.yul\":11575:11737   */\n    tag_156:\n        /* \"#utility.yul\":11715:11729   */\n      0x5374696c6c206163746976650000000000000000000000000000000000000000\n        /* \"#utility.yul\":11711:11712   */\n      0x00\n        /* \"#utility.yul\":11703:11709   */\n      dup3\n        /* \"#utility.yul\":11699:11713   */\n      add\n        /* \"#utility.yul\":11692:11730   */\n      mstore\n        /* \"#utility.yul\":11575:11737   */\n      pop\n      jump\t// out\n        /* \"#utility.yul\":11743:12109   */\n    tag_157:\n        /* \"#utility.yul\":11885:11888   */\n      0x00\n        /* \"#utility.yul\":11906:11973   */\n      tag_310\n        /* \"#utility.yul\":11970:11972   */\n      0x0c\n        /* \"#utility.yul\":11965:11968   */\n      dup4\n        /* \"#utility.yul\":11906:11973   */\n      tag_144\n      jump\t// in\n    tag_310:\n        /* \"#utility.yul\":11899:11973   */\n      swap2\n      pop\n        /* \"#utility.yul\":11982:12075   */\n      tag_311\n        /* \"#utility.yul\":12071:12074   */\n      dup3\n        /* \"#utility.yul\":11982:12075   */\n      tag_156\n      jump\t// in\n    tag_311:\n        /* \"#utility.yul\":12100:12102   */\n      0x20\n        /* \"#utility.yul\":12095:12098   */\n      dup3\n        /* \"#utility.yul\":12091:12103   */\n      add\n        /* \"#utility.yul\":12084:12103   */\n      swap1\n      pop\n        /* \"#utility.yul\":11743:12109   */\n      swap2\n      swap1\n      pop\n      jump\t// out\n        /* \"#utility.yul\":12115:12534   */\n    tag_66:\n        /* \"#utility.yul\":12281:12285   */\n      0x00\n        /* \"#utility.yul\":12319:12321   */\n      0x20\n        /* \"#utility.yul\":12308:12317   */\n      dup3\n        /* \"#utility.yul\":12304:12322   */\n      add\n        /* \"#utility.yul\":12296:12322   */\n      swap1\n      pop\n        /* \"#utility.yul\":12368:12377   */\n      dup2\n        /* \"#utility.yul\":12362:12366   */\n      dup2\n        /* \"#utility.yul\":12358:12378   */\n      sub\n        /* \"#utility.yul\":12354:12355   */\n      0x00\n        /* \"#utility.yul\":12343:12352   */\n      dup4\n        /* \"#utility.yul\":12339:12356   */\n      add\n        /* \"#utility.yul\":12332:12379   */\n      mstore\n        /* \"#utility.yul\":12396:12527   */\n      tag_313\n        /* \"#utility.yul\":12522:12526   */\n      dup2\n        /* \"#utility.yul\":12396:12527   */\n      tag_157\n      jump\t// in\n    tag_313:\n        /* \"#utility.yul\":12388:12527   */\n      swap1\n      pop\n        /* \"#utility.yul\":12115:12534   */\n      swap2\n      swap1\n      pop\n      jump\t// out\n        /* \"#utility.yul\":12540:12970   */\n    tag_68:\n        /* \"#utility.yul\":12683:12687   */\n      0x00\n        /* \"#utility.yul\":12721:12723   */\n      0x60\n        /* \"#utility.yul\":12710:12719   */\n      dup3\n        /* \"#utility.yul\":12706:12724   */\n      add\n        /* \"#utility.yul\":12698:12724   */\n      swap1\n      pop\n        /* \"#utility.yul\":12734:12799   */\n      tag_315\n        /* \"#utility.yul\":12796:12797   */\n      0x00\n        /* \"#utility.yul\":12785:12794   */\n      dup4\n        /* \"#utility.yul\":12781:12798   */\n      add\n        /* \"#utility.yul\":12772:12778   */\n      dup7\n        /* \"#utility.yul\":12734:12799   */\n      tag_141\n      jump\t// in\n    tag_315:\n        /* \"#utility.yul\":12809:12881   */\n      tag_316\n        /* \"#utility.yul\":12877:12879   */\n      0x20\n        /* \"#utility.yul\":12866:12875   */\n      dup4\n        /* \"#utility.yul\":12862:12880   */\n      add\n        /* \"#utility.yul\":12853:12859   */\n      dup6\n        /* \"#utility.yul\":12809:12881   */\n      tag_131\n      jump\t// in\n    tag_316:\n        /* \"#utility.yul\":12891:12963   */\n      tag_317\n        /* \"#utility.yul\":12959:12961   */\n      0x40\n        /* \"#utility.yul\":12948:12957   */\n      dup4\n        /* \"#utility.yul\":12944:12962   */\n      add\n        /* \"#utility.yul\":12935:12941   */\n      dup5\n        /* \"#utility.yul\":12891:12963   */\n      tag_131\n      jump\t// in\n    tag_317:\n        /* \"#utility.yul\":12540:12970   */\n      swap5\n      swap4\n      pop\n      pop\n      pop\n      pop\n      jump\t// out\n        /* \"#utility.yul\":12976:13143   */\n    tag_158:\n        /* \"#utility.yul\":13116:13135   */\n      0x456d707479206465736372697074696f6e000000000000000000000000000000\n        /* \"#utility.yul\":13112:13113   */\n      0x00\n        /* \"#utility.yul\":13104:13110   */\n      dup3\n        /* \"#utility.yul\":13100:13114   */\n      add\n        /* \"#utility.yul\":13093:13136   */\n      mstore\n        /* \"#utility.yul\":12976:13143   */\n      pop\n      jump\t// out\n        /* \"#utility.yul\":13149:13515   */\n    tag_159:\n        /* \"#utility.yul\":13291:13294   */\n      0x00\n        /* \"#utility.yul\":13312:13379   */\n      tag_320\n        /* \"#utility.yul\":13376:13378   */\n      0x11\n        /* \"#utility.yul\":13371:13374   */\n      dup4\n        /* \"#utility.yul\":13312:13379   */\n      tag_144\n      jump\t// in\n    tag_320:\n        /* \"#utility.yul\":13305:13379   */\n      swap2\n      pop\n        /* \"#utility.yul\":13388:13481   */\n      tag_321\n        /* \"#utility.yul\":13477:13480   */\n      dup3\n        /* \"#utility.yul\":13388:13481   */\n      tag_158\n      jump\t// in\n    tag_321:\n        /* \"#utility.yul\":13506:13508   */\n      0x20\n        /* \"#utility.yul\":13501:13504   */\n      dup3\n        /* \"#utility.yul\":13497:13509   */\n      add\n        /* \"#utility.yul\":13490:13509   */\n      swap1\n      pop\n        /* \"#utility.yul\":13149:13515   */\n      swap2\n      swap1\n      pop\n      jump\t// out\n        /* \"#utility.yul\":13521:13940   */\n    tag_76:\n        /* \"#utility.yul\":13687:13691   */\n      0x00\n        /* \"#utility.yul\":13725:13727   */\n      0x20\n        /* \"#utility.yul\":13714:13723   */\n      dup3\n        /* \"#utility.yul\":13710:13728   */\n      add\n        /* \"#utility.yul\":13702:13728   */\n      swap1\n      pop\n        /* \"#utility.yul\":13774:13783   */\n      dup2\n        /* \"#utility.yul\":13768:13772   */\n      dup2\n        /* \"#utility.yul\":13764:13784   */\n      sub\n        /* \"#utility.yul\":13760:13761   */\n      0x00\n        /* \"#utility.yul\":13749:13758   */\n      dup4\n        /* \"#utility.yul\":13745:13762   */\n      add\n        /* \"#utility.yul\":13738:13785   */\n      mstore\n        /* \"#utility.yul\":13802:13933   */\n      tag_323\n        /* \"#utility.yul\":13928:13932   */\n      dup2\n        /* \"#utility.yul\":13802:13933   */\n      tag_159\n      jump\t// in\n    tag_323:\n        /* \"#utility.yul\":13794:13933   */\n      swap1\n      pop\n        /* \"#utility.yul\":13521:13940   */\n      swap2\n      swap1\n      pop\n      jump\t// out\n        /* \"#utility.yul\":13946:14108   */\n    tag_160:\n        /* \"#utility.yul\":14086:14100   */\n      0x426164206475726174696f6e0000000000000000000000000000000000000000\n        /* \"#utility.yul\":14082:14083   */\n      0x00\n        /* \"#utility.yul\":14074:14080   */\n      dup3\n        /* \"#utility.yul\":14070:14084   */\n      add\n        /* \"#utility.yul\":14063:14101   */\n      mstore\n        /* \"#utility.yul\":13946:14108   */\n      pop\n      jump\t// out\n        /* \"#utility.yul\":14114:14480   */\n    tag_161:\n        /* \"#utility.yul\":14256:14259   */\n      0x00\n        /* \"#utility.yul\":14277:14344   */\n      tag_326\n        /* \"#utility.yul\":14341:14343   */\n      0x0c\n        /* \"#utility.yul\":14336:14339   */\n      dup4\n        /* \"#utility.yul\":14277:14344   */\n      tag_144\n      jump\t// in\n    tag_326:\n        /* \"#utility.yul\":14270:14344   */\n      swap2\n      pop\n        /* \"#utility.yul\":14353:14446   */\n      tag_327\n        /* \"#utility.yul\":14442:14445   */\n      dup3\n        /* \"#utility.yul\":14353:14446   */\n      tag_160\n      jump\t// in\n    tag_327:\n        /* \"#utility.yul\":14471:14473   */\n      0x20\n        /* \"#utility.yul\":14466:14469   */\n      dup3\n        /* \"#utility.yul\":14462:14474   */\n      add\n        /* \"#utility.yul\":14455:14474   */\n      swap1\n      pop\n        /* \"#utility.yul\":14114:14480   */\n      swap2\n      swap1\n      pop\n      jump\t// out\n        /* \"#utility.yul\":14486:14905   */\n    tag_79:\n        /* \"#utility.yul\":14652:14656   */\n      0x00\n        /* \"#utility.yul\":14690:14692   */\n      0x20\n        /* \"#utility.yul\":14679:14688   */\n      dup3\n        /* \"#utility.yul\":14675:14693   */\n      add\n        /* \"#utility.yul\":14667:14693   */\n      swap1\n      pop\n        /* \"#utility.yul\":14739:14748   */\n      dup2\n        /* \"#utility.yul\":14733:14737   */\n      dup2\n        /* \"#utility.yul\":14729:14749   */\n      sub\n        /* \"#utility.yul\":14725:14726   */\n      0x00\n        /* \"#utility.yul\":14714:14723   */\n      dup4\n        /* \"#utility.yul\":14710:14727   */\n      add\n        /* \"#utility.yul\":14703:14750   */\n      mstore\n        /* \"#utility.yul\":14767:14898   */\n      tag_329\n        /* \"#utility.yul\":14893:14897   */\n      dup2\n        /* \"#utility.yul\":14767:14898   */\n      tag_161\n      jump\t// in\n    tag_329:\n        /* \"#utility.yul\":14759:14898   */\n      swap1\n      pop\n        /* \"#utility.yul\":14486:14905   */\n      swap2\n      swap1\n      pop\n      jump\t// out\n        /* \"#utility.yul\":14911:15091   */\n    tag_162:\n        /* \"#utility.yul\":14959:15036   */\n      0x4e487b7100000000000000000000000000000000000000000000000000000000\n        /* \"#utility.yul\":14956:14957   */\n      0x00\n        /* \"#utility.yul\":14949:15037   */\n      mstore\n        /* \"#utility.yul\":15056:15060   */\n      0x11\n        /* \"#utility.yul\":15053:15054   */\n      0x04\n        /* \"#utility.yul\":15046:15061   */\n      mstore\n        /* \"#utility.yul\":15080:15084   */\n      0x24\n        /* \"#utility.yul\":15077:15078   */\n      0x00\n        /* \"#utility.yul\":15070:15085   */\n      revert\n        /* \"#utility.yul\":15097:15330   */\n    tag_81:\n        /* \"#utility.yul\":15136:15139   */\n      0x00\n        /* \"#utility.yul\":15159:15183   */\n      tag_332\n        /* \"#utility.yul\":15177:15182   */\n      dup3\n        /* \"#utility.yul\":15159:15183   */\n      tag_128\n      jump\t// in\n    tag_332:\n        /* \"#utility.yul\":15150:15183   */\n      swap2\n      pop\n        /* \"#utility.yul\":15205:15271   */\n      0xffffffffffffffffffffffffffffffffffffffffffffffffffffffffffffffff\n        /* \"#utility.yul\":15198:15203   */\n      dup3\n        /* \"#utility.yul\":15195:15272   */\n      sub\n        /* \"#utility.yul\":15192:15295   */\n      tag_333\n      jumpi\n        /* \"#utility.yul\":15275:15293   */\n      tag_334\n      tag_162\n      jump\t// in\n    tag_334:\n        /* \"#utility.yul\":15192:15295   */\n    tag_333:\n        /* \"#utility.yul\":15322:15323   */\n      0x01\n        /* \"#utility.yul\":15315:15320   */\n      dup3\n        /* \"#utility.yul\":15311:15324   */\n      add\n        /* \"#utility.yul\":15304:15324   */\n      swap1\n      pop\n        /* \"#utility.yul\":15097:15330   */\n      swap2\n      swap1\n      pop\n      jump\t// out\n        /* \"#utility.yul\":15336:15433   */\n    tag_163:\n        /* \"#utility.yul\":15395:15401   */\n      0x00\n        /* \"#utility.yul\":15423:15426   */\n      dup3\n        /* \"#utility.yul\":15413:15426   */\n      swap1\n      pop\n        /* \"#utility.yul\":15336:15433   */\n      swap3\n      swap2\n      pop\n      pop\n      jump\t// out\n        /* \"#utility.yul\":15439:15619   */\n    tag_164:\n        /* \"#utility.yul\":15487:15564   */\n      0x4e487b7100000000000000000000000000000000000000000000000000000000\n        /* \"#utility.yul\":15484:15485   */\n      0x00\n        /* \"#utility.yul\":15477:15565   */\n      mstore\n        /* \"#utility.yul\":15584:15588   */\n      0x41\n        /* \"#utility.yul\":15581:15582   */\n      0x04\n        /* \"#utility.yul\":15574:15589   */\n      mstore\n        /* \"#utility.yul\":15608:15612   */\n      0x24\n        /* \"#utility.yul\":15605:15606   */\n      0x00\n        /* \"#utility.yul\":15598:15613   */\n      revert\n        /* \"#utility.yul\":15625:15805   */\n    tag_165:\n        /* \"#utility.yul\":15673:15750   */\n      0x4e487b7100000000000000000000000000000000000000000000000000000000\n        /* \"#utility.yul\":15670:15671   */\n      0x00\n        /* \"#utility.yul\":15663:15751   */\n      mstore\n        /* \"#utility.yul\":15770:15774   */\n      0x22\n        /* \"#utility.yul\":15767:15768   */\n      0x04\n        /* \"#utility.yul\":15760:15775   */\n      mstore\n        /* \"#utility.yul\":15794:15798   */\n      0x24\n        /* \"#utility.yul\":15791:15792   */\n      0x00\n        /* \"#utility.yul\":15784:15799   */\n      revert\n        /* \"#utility.yul\":15811:16131   */\n    tag_95:\n        /* \"#utility.yul\":15855:15861   */\n      0x00\n        /* \"#utility.yul\":15892:15893   */\n      0x02\n        /* \"#utility.yul\":15886:15890   */\n      dup3\n        /* \"#utility.yul\":15882:15894   */\n      div\n        /* \"#utility.yul\":15872:15894   */\n      swap1\n      pop\n        /* \"#utility.yul\":15939:15940   */\n      0x01\n        /* \"#utility.yul\":15933:15937   */\n      dup3\n        /* \"#utility.yul\":15929:15941   */\n      and\n        /* \"#utility.yul\":15960:15978   */\n      dup1\n        /* \"#utility.yul\":15950:16031   */\n      tag_339\n      jumpi\n        /* \"#utility.yul\":16016:16020   */\n      0x7f\n        /* \"#utility.yul\":16008:16014   */\n      dup3\n        /* \"#utility.yul\":16004:16021   */\n      and\n        /* \"#utility.yul\":15994:16021   */\n      swap2\n      pop\n        /* \"#utility.yul\":15950:16031   */\n    tag_339:\n        /* \"#utility.yul\":16078:16080   */\n      0x20\n        /* \"#utility.yul\":16070:16076   */\n      dup3\n        /* \"#utility.yul\":16067:16081   */\n      lt\n        /* \"#utility.yul\":16047:16065   */\n      dup2\n        /* \"#utility.yul\":16044:16082   */\n      sub\n        /* \"#utility.yul\":16041:16125   */\n      tag_340\n      jumpi\n        /* \"#utility.yul\":16097:16115   */\n      tag_341\n      tag_165\n      jump\t// in\n    tag_341:\n        /* \"#utility.yul\":16041:16125   */\n    tag_340:\n        /* \"#utility.yul\":15862:16131   */\n      pop\n        /* \"#utility.yul\":15811:16131   */\n      swap2\n      swap1\n      pop\n      jump\t// out\n        /* \"#utility.yul\":16137:16278   */\n    tag_166:\n        /* \"#utility.yul\":16186:16190   */\n      0x00\n        /* \"#utility.yul\":16209:16212   */\n      dup2\n        /* \"#utility.yul\":16201:16212   */\n      swap1\n      pop\n        /* \"#utility.yul\":16232:16235   */\n      dup2\n        /* \"#utility.yul\":16229:16230   */\n      0x00\n        /* \"#utility.yul\":16222:16236   */\n      mstore\n        /* \"#utility.yul\":16266:16270   */\n      0x20\n        /* \"#utility.yul\":16263:16264   */\n      0x00\n        /* \"#utility.yul\":16253:16271   */\n      keccak256\n        /* \"#utility.yul\":16245:16271   */\n      swap1\n      pop\n        /* \"#utility.yul\":16137:16278   */\n      swap2\n      swap1\n      pop\n      jump\t// out\n        /* \"#utility.yul\":16284:16377   */\n    tag_167:\n        /* \"#utility.yul\":16321:16327   */\n      0x00\n        /* \"#utility.yul\":16368:16370   */\n      0x20\n        /* \"#utility.yul\":16363:16365   */\n      0x1f\n        /* \"#utility.yul\":16356:16361   */\n      dup4\n        /* \"#utility.yul\":16352:16366   */\n      add\n        /* \"#utility.yul\":16348:16371   */\n      div\n        /* \"#utility.yul\":16338:16371   */\n      swap1\n      pop\n        /* \"#utility.yul\":16284:16377   */\n      swap2\n      swap1\n      pop\n      jump\t// out\n        /* \"#utility.yul\":16383:16490   */\n    tag_168:\n        /* \"#utility.yul\":16427:16435   */\n      0x00\n        /* \"#utility.yul\":16477:16482   */\n      dup3\n        /* \"#utility.yul\":16471:16475   */\n      dup3\n        /* \"#utility.yul\":16467:16483   */\n      shl\n        /* \"#utility.yul\":16446:16483   */\n      swap1\n      pop\n        /* \"#utility.yul\":16383:16490   */\n      swap3\n      swap2\n      pop\n      pop\n      jump\t// out\n        /* \"#utility.yul\":16496:16889   */\n    tag_169:\n        /* \"#utility.yul\":16565:16571   */\n      0x00\n        /* \"#utility.yul\":16615:16616   */\n      0x08\n        /* \"#utility.yul\":16603:16613   */\n      dup4\n        /* \"#utility.yul\":16599:16617   */\n      mul\n        /* \"#utility.yul\":16638:16735   */\n      tag_346\n        /* \"#utility.yul\":16668:16734   */\n      0xffffffffffffffffffffffffffffffffffffffffffffffffffffffffffffffff\n        /* \"#utility.yul\":16657:16666   */\n      dup3\n        /* \"#utility.yul\":16638:16735   */\n      tag_168\n      jump\t// in\n    tag_346:\n        /* \"#utility.yul\":16756:16795   */\n      tag_347\n        /* \"#utility.yul\":16786:16794   */\n      dup7\n        /* \"#utility.yul\":16775:16784   */\n      dup4\n        /* \"#utility.yul\":16756:16795   */\n      tag_168\n      jump\t// in\n    tag_347:\n        /* \"#utility.yul\":16744:16795   */\n      swap6\n      pop\n        /* \"#utility.yul\":16828:16832   */\n      dup1\n        /* \"#utility.yul\":16824:16833   */\n      not\n        /* \"#utility.yul\":16817:16822   */\n      dup5\n        /* \"#utility.yul\":16813:16834   */\n      and\n        /* \"#utility.yul\":16804:16834   */\n      swap4\n      pop\n        /* \"#utility.yul\":16877:16881   */\n      dup1\n        /* \"#utility.yul\":16867:16875   */\n      dup7\n        /* \"#utility.yul\":16863:16882   */\n      and\n        /* \"#utility.yul\":16856:16861   */\n      dup5\n        /* \"#utility.yul\":16853:16883   */\n      or\n        /* \"#utility.yul\":16843:16883   */\n      swap3\n      pop\n        /* \"#utility.yul\":16572:16889   */\n      pop\n      pop\n        /* \"#utility.yul\":16496:16889   */\n      swap4\n      swap3\n      pop\n      pop\n      pop\n      jump\t// out\n        /* \"#utility.yul\":16895:16955   */\n    tag_170:\n        /* \"#utility.yul\":16923:16926   */\n      0x00\n        /* \"#utility.yul\":16944:16949   */\n      dup2\n        /* \"#utility.yul\":16937:16949   */\n      swap1\n      pop\n        /* \"#utility.yul\":16895:16955   */\n      swap2\n      swap1\n      pop\n      jump\t// out\n        /* \"#utility.yul\":16961:17103   */\n    tag_171:\n        /* \"#utility.yul\":17011:17020   */\n      0x00\n        /* \"#utility.yul\":17044:17097   */\n      tag_350\n        /* \"#utility.yul\":17062:17096   */\n      tag_351\n        /* \"#utility.yul\":17071:17095   */\n      tag_352\n        /* \"#utility.yul\":17089:17094   */\n      dup5\n        /* \"#utility.yul\":17071:17095   */\n      tag_128\n      jump\t// in\n    tag_352:\n        /* \"#utility.yul\":17062:17096   */\n      tag_170\n      jump\t// in\n    tag_351:\n        /* \"#utility.yul\":17044:17097   */\n      tag_128\n      jump\t// in\n    tag_350:\n        /* \"#utility.yul\":17031:17097   */\n      swap1\n      pop\n        /* \"#utility.yul\":16961:17103   */\n      swap2\n      swap1\n      pop\n      jump\t// out\n        /* \"#utility.yul\":17109:17184   */\n    tag_172:\n        /* \"#utility.yul\":17152:17155   */\n      0x00\n        /* \"#utility.yul\":17173:17178   */\n      dup2\n        /* \"#utility.yul\":17166:17178   */\n      swap1\n      pop\n        /* \"#utility.yul\":17109:17184   */\n      swap2\n      swap1\n      pop\n      jump\t// out\n        /* \"#utility.yul\":17190:17459   */\n    tag_173:\n        /* \"#utility.yul\":17300:17339   */\n      tag_355\n        /* \"#utility.yul\":17331:17338   */\n      dup4\n        /* \"#utility.yul\":17300:17339   */\n      tag_171\n      jump\t// in\n    tag_355:\n        /* \"#utility.yul\":17361:17452   */\n      tag_356\n        /* \"#utility.yul\":17410:17451   */\n      tag_357\n        /* \"#utility.yul\":17434:17450   */\n      dup3\n        /* \"#utility.yul\":17410:17451   */\n      tag_172\n      jump\t// in\n    tag_357:\n        /* \"#utility.yul\":17402:17408   */\n      dup5\n        /* \"#utility.yul\":17395:17399   */\n      dup5\n        /* \"#utility.yul\":17389:17400   */\n      sload\n        /* \"#utility.yul\":17361:17452   */\n      tag_169\n      jump\t// in\n    tag_356:\n        /* \"#utility.yul\":17355:17359   */\n      dup3\n        /* \"#utility.yul\":17348:17453   */\n      sstore\n        /* \"#utility.yul\":17266:17459   */\n      pop\n        /* \"#utility.yul\":17190:17459   */\n      pop\n      pop\n      pop\n      jump\t// out\n        /* \"#utility.yul\":17465:17538   */\n    tag_174:\n        /* \"#utility.yul\":17510:17513   */\n      0x00\n        /* \"#utility.yul\":17465:17538   */\n      swap1\n      jump\t// out\n        /* \"#utility.yul\":17544:17733   */\n    tag_175:\n        /* \"#utility.yul\":17621:17653   */\n      tag_360\n      tag_174\n      jump\t// in\n    tag_360:\n        /* \"#utility.yul\":17662:17727   */\n      tag_361\n        /* \"#utility.yul\":17720:17726   */\n      dup2\n        /* \"#utility.yul\":17712:17718   */\n      dup5\n        /* \"#utility.yul\":17706:17710   */\n      dup5\n        /* \"#utility.yul\":17662:17727   */\n      tag_173\n      jump\t// in\n    tag_361:\n        /* \"#utility.yul\":17597:17733   */\n      pop\n        /* \"#utility.yul\":17544:17733   */\n      pop\n      pop\n      jump\t// out\n        /* \"#utility.yul\":17739:17925   */\n    tag_176:\n        /* \"#utility.yul\":17799:17919   */\n    tag_363:\n        /* \"#utility.yul\":17816:17819   */\n      dup2\n        /* \"#utility.yul\":17809:17814   */\n      dup2\n        /* \"#utility.yul\":17806:17820   */\n      lt\n        /* \"#utility.yul\":17799:17919   */\n      iszero\n      tag_365\n      jumpi\n        /* \"#utility.yul\":17870:17909   */\n      tag_366\n        /* \"#utility.yul\":17907:17908   */\n      0x00\n        /* \"#utility.yul\":17900:17905   */\n      dup3\n        /* \"#utility.yul\":17870:17909   */\n      tag_175\n      jump\t// in\n    tag_366:\n        /* \"#utility.yul\":17843:17844   */\n      0x01\n        /* \"#utility.yul\":17836:17841   */\n      dup2\n        /* \"#utility.yul\":17832:17845   */\n      add\n        /* \"#utility.yul\":17823:17845   */\n      swap1\n      pop\n        /* \"#utility.yul\":17799:17919   */\n      jump(tag_363)\n    tag_365:\n        /* \"#utility.yul\":17739:17925   */\n      pop\n      pop\n      jump\t// out\n        /* \"#utility.yul\":17931:18474   */\n    tag_177:\n        /* \"#utility.yul\":18032:18034   */\n      0x1f\n        /* \"#utility.yul\":18027:18030   */\n      dup3\n        /* \"#utility.yul\":18024:18035   */\n      gt\n        /* \"#utility.yul\":18021:18467   */\n      iszero\n      tag_368\n      jumpi\n        /* \"#utility.yul\":18066:18104   */\n      tag_369\n        /* \"#utility.yul\":18098:18103   */\n      dup2\n        /* \"#utility.yul\":18066:18104   */\n      tag_166\n      jump\t// in\n    tag_369:\n        /* \"#utility.yul\":18150:18179   */\n      tag_370\n        /* \"#utility.yul\":18168:18178   */\n      dup5\n        /* \"#utility.yul\":18150:18179   */\n      tag_167\n      jump\t// in\n    tag_370:\n        /* \"#utility.yul\":18140:18148   */\n      dup2\n        /* \"#utility.yul\":18136:18180   */\n      add\n        /* \"#utility.yul\":18333:18335   */\n      0x20\n        /* \"#utility.yul\":18321:18331   */\n      dup6\n        /* \"#utility.yul\":18318:18336   */\n      lt\n        /* \"#utility.yul\":18315:18364   */\n      iszero\n      tag_371\n      jumpi\n        /* \"#utility.yul\":18354:18362   */\n      dup2\n        /* \"#utility.yul\":18339:18362   */\n      swap1\n      pop\n        /* \"#utility.yul\":18315:18364   */\n    tag_371:\n        /* \"#utility.yul\":18377:18457   */\n      tag_372\n        /* \"#utility.yul\":18433:18455   */\n      tag_373\n        /* \"#utility.yul\":18451:18454   */\n      dup6\n        /* \"#utility.yul\":18433:18455   */\n      tag_167\n      jump\t// in\n    tag_373:\n        /* \"#utility.yul\":18423:18431   */\n      dup4\n        /* \"#utility.yul\":18419:18456   */\n      add\n        /* \"#utility.yul\":18406:18417   */\n      dup3\n        /* \"#utility.yul\":18377:18457   */\n      tag_176\n      jump\t// in\n    tag_372:\n        /* \"#utility.yul\":18036:18467   */\n      pop\n      pop\n        /* \"#utility.yul\":18021:18467   */\n    tag_368:\n        /* \"#utility.yul\":17931:18474   */\n      pop\n      pop\n      pop\n      jump\t// out\n        /* \"#utility.yul\":18480:18597   */\n    tag_178:\n        /* \"#utility.yul\":18534:18542   */\n      0x00\n        /* \"#utility.yul\":18584:18589   */\n      dup3\n        /* \"#utility.yul\":18578:18582   */\n      dup3\n        /* \"#utility.yul\":18574:18590   */\n      shr\n        /* \"#utility.yul\":18553:18590   */\n      swap1\n      pop\n        /* \"#utility.yul\":18480:18597   */\n      swap3\n      swap2\n      pop\n      pop\n      jump\t// out\n        /* \"#utility.yul\":18603:18772   */\n    tag_179:\n        /* \"#utility.yul\":18647:18653   */\n      0x00\n        /* \"#utility.yul\":18680:18731   */\n      tag_376\n        /* \"#utility.yul\":18728:18729   */\n      0x00\n        /* \"#utility.yul\":18724:18730   */\n      not\n        /* \"#utility.yul\":18716:18721   */\n      dup5\n        /* \"#utility.yul\":18713:18714   */\n      0x08\n        /* \"#utility.yul\":18709:18722   */\n      mul\n        /* \"#utility.yul\":18680:18731   */\n      tag_178\n      jump\t// in\n    tag_376:\n        /* \"#utility.yul\":18676:18732   */\n      not\n        /* \"#utility.yul\":18761:18765   */\n      dup1\n        /* \"#utility.yul\":18755:18759   */\n      dup4\n        /* \"#utility.yul\":18751:18766   */\n      and\n        /* \"#utility.yul\":18741:18766   */\n      swap2\n      pop\n        /* \"#utility.yul\":18654:18772   */\n      pop\n        /* \"#utility.yul\":18603:18772   */\n      swap3\n      swap2\n      pop\n      pop\n      jump\t// out\n        /* \"#utility.yul\":18777:19072   */\n    tag_180:\n        /* \"#utility.yul\":18853:18857   */\n      0x00\n        /* \"#utility.yul\":18999:19028   */\n      tag_378\n        /* \"#utility.yul\":19024:19027   */\n      dup4\n        /* \"#utility.yul\":19018:19022   */\n      dup4\n        /* \"#utility.yul\":18999:19028   */\n      tag_179\n      jump\t// in\n    tag_378:\n        /* \"#utility.yul\":18991:19028   */\n      swap2\n      pop\n        /* \"#utility.yul\":19061:19064   */\n      dup3\n        /* \"#utility.yul\":19058:19059   */\n      0x02\n        /* \"#utility.yul\":19054:19065   */\n      mul\n        /* \"#utility.yul\":19048:19052   */\n      dup3\n        /* \"#utility.yul\":19045:19066   */\n      or\n        /* \"#utility.yul\":19037:19066   */\n      swap1\n      pop\n        /* \"#utility.yul\":18777:19072   */\n      swap3\n      swap2\n      pop\n      pop\n      jump\t// out\n        /* \"#utility.yul\":19077:20480   */\n    tag_83:\n        /* \"#utility.yul\":19201:19245   */\n      tag_380\n        /* \"#utility.yul\":19241:19244   */\n      dup4\n        /* \"#utility.yul\":19236:19239   */\n      dup4\n        /* \"#utility.yul\":19201:19245   */\n      tag_163\n      jump\t// in\n    tag_380:\n        /* \"#utility.yul\":19310:19328   */\n      0xffffffffffffffff\n        /* \"#utility.yul\":19302:19308   */\n      dup2\n        /* \"#utility.yul\":19299:19329   */\n      gt\n        /* \"#utility.yul\":19296:19352   */\n      iszero\n      tag_381\n      jumpi\n        /* \"#utility.yul\":19332:19350   */\n      tag_382\n      tag_164\n      jump\t// in\n    tag_382:\n        /* \"#utility.yul\":19296:19352   */\n    tag_381:\n        /* \"#utility.yul\":19376:19414   */\n      tag_383\n        /* \"#utility.yul\":19408:19412   */\n      dup3\n        /* \"#utility.yul\":19402:19413   */\n      sload\n        /* \"#utility.yul\":19376:19414   */\n      tag_95\n      jump\t// in\n    tag_383:\n        /* \"#utility.yul\":19461:19528   */\n      tag_384\n        /* \"#utility.yul\":19521:19527   */\n      dup3\n        /* \"#utility.yul\":19513:19519   */\n      dup3\n        /* \"#utility.yul\":19507:19511   */\n      dup6\n        /* \"#utility.yul\":19461:19528   */\n      tag_177\n      jump\t// in\n    tag_384:\n        /* \"#utility.yul\":19555:19556   */\n      0x00\n        /* \"#utility.yul\":19584:19586   */\n      0x1f\n        /* \"#utility.yul\":19576:19582   */\n      dup4\n        /* \"#utility.yul\":19573:19587   */\n      gt\n        /* \"#utility.yul\":19601:19602   */\n      0x01\n        /* \"#utility.yul\":19596:20228   */\n      dup2\n      eq\n      tag_386\n      jumpi\n        /* \"#utility.yul\":20272:20273   */\n      0x00\n        /* \"#utility.yul\":20289:20295   */\n      dup5\n        /* \"#utility.yul\":20286:20370   */\n      iszero\n      tag_387\n      jumpi\n        /* \"#utility.yul\":20345:20354   */\n      dup3\n        /* \"#utility.yul\":20340:20343   */\n      dup8\n        /* \"#utility.yul\":20336:20355   */\n      add\n        /* \"#utility.yul\":20323:20356   */\n      calldataload\n        /* \"#utility.yul\":20314:20356   */\n      swap1\n      pop\n        /* \"#utility.yul\":20286:20370   */\n    tag_387:\n        /* \"#utility.yul\":20396:20463   */\n      tag_388\n        /* \"#utility.yul\":20456:20462   */\n      dup6\n        /* \"#utility.yul\":20449:20454   */\n      dup3\n        /* \"#utility.yul\":20396:20463   */\n      tag_180\n      jump\t// in\n    tag_388:\n        /* \"#utility.yul\":20390:20394   */\n      dup7\n        /* \"#utility.yul\":20383:20464   */\n      sstore\n        /* \"#utility.yul\":20245:20474   */\n      pop\n        /* \"#utility.yul\":19566:20474   */\n      jump(tag_385)\n        /* \"#utility.yul\":19596:20228   */\n    tag_386:\n        /* \"#utility.yul\":19648:19652   */\n      0x1f\n        /* \"#utility.yul\":19644:19653   */\n      not\n        /* \"#utility.yul\":19636:19642   */\n      dup5\n        /* \"#utility.yul\":19632:19654   */\n      and\n        /* \"#utility.yul\":19682:19719   */\n      tag_389\n        /* \"#utility.yul\":19714:19718   */\n      dup7\n        /* \"#utility.yul\":19682:19719   */\n      tag_166\n      jump\t// in\n    tag_389:\n        /* \"#utility.yul\":19741:19742   */\n      0x00\n        /* \"#utility.yul\":19755:19970   */\n    tag_390:\n        /* \"#utility.yul\":19769:19776   */\n      dup3\n        /* \"#utility.yul\":19766:19767   */\n      dup2\n        /* \"#utility.yul\":19763:19777   */\n      lt\n        /* \"#utility.yul\":19755:19970   */\n      iszero\n      tag_392\n      jumpi\n        /* \"#utility.yul\":19855:19864   */\n      dup5\n        /* \"#utility.yul\":19850:19853   */\n      dup10\n        /* \"#utility.yul\":19846:19865   */\n      add\n        /* \"#utility.yul\":19833:19866   */\n      calldataload\n        /* \"#utility.yul\":19825:19831   */\n      dup3\n        /* \"#utility.yul\":19818:19867   */\n      sstore\n        /* \"#utility.yul\":19906:19907   */\n      0x01\n        /* \"#utility.yul\":19898:19904   */\n      dup3\n        /* \"#utility.yul\":19894:19908   */\n      add\n        /* \"#utility.yul\":19884:19908   */\n      swap2\n      pop\n        /* \"#utility.yul\":19953:19955   */\n      0x20\n        /* \"#utility.yul\":19942:19951   */\n      dup6\n        /* \"#utility.yul\":19938:19956   */\n      add\n        /* \"#utility.yul\":19925:19956   */\n      swap5\n      pop\n        /* \"#utility.yul\":19792:19796   */\n      0x20\n        /* \"#utility.yul\":19789:19790   */\n      dup2\n        /* \"#utility.yul\":19785:19797   */\n      add\n        /* \"#utility.yul\":19780:19797   */\n      swap1\n      pop\n        /* \"#utility.yul\":19755:19970   */\n      jump(tag_390)\n    tag_392:\n        /* \"#utility.yul\":19998:20004   */\n      dup7\n        /* \"#utility.yul\":19989:19996   */\n      dup4\n        /* \"#utility.yul\":19986:20005   */\n      lt\n        /* \"#utility.yul\":19983:20169   */\n      iszero\n      tag_393\n      jumpi\n        /* \"#utility.yul\":20063:20072   */\n      dup5\n        /* \"#utility.yul\":20058:20061   */\n      dup10\n        /* \"#utility.yul\":20054:20073   */\n      add\n        /* \"#utility.yul\":20041:20074   */\n      calldataload\n        /* \"#utility.yul\":20106:20154   */\n      tag_394\n        /* \"#utility.yul\":20148:20152   */\n      0x1f\n        /* \"#utility.yul\":20140:20146   */\n      dup10\n        /* \"#utility.yul\":20136:20153   */\n      and\n        /* \"#utility.yul\":20125:20134   */\n      dup3\n        /* \"#utility.yul\":20106:20154   */\n      tag_179\n      jump\t// in\n    tag_394:\n        /* \"#utility.yul\":20098:20104   */\n      dup4\n        /* \"#utility.yul\":20091:20155   */\n      sstore\n        /* \"#utility.yul\":20006:20169   */\n      pop\n        /* \"#utility.yul\":19983:20169   */\n    tag_393:\n        /* \"#utility.yul\":20215:20216   */\n      0x01\n        /* \"#utility.yul\":20211:20212   */\n      0x02\n        /* \"#utility.yul\":20203:20209   */\n      dup9\n        /* \"#utility.yul\":20199:20213   */\n      mul\n        /* \"#utility.yul\":20195:20217   */\n      add\n        /* \"#utility.yul\":20189:20193   */\n      dup9\n        /* \"#utility.yul\":20182:20218   */\n      sstore\n        /* \"#utility.yul\":19603:20228   */\n      pop\n      pop\n      pop\n        /* \"#utility.yul\":19566:20474   */\n    tag_385:\n      pop\n        /* \"#utility.yul\":19176:20480   */\n      pop\n      pop\n      pop\n        /* \"#utility.yul\":19077:20480   */\n      pop\n      pop\n      pop\n      jump\t// out\n        /* \"#utility.yul\":20486:20677   */\n    tag_85:\n        /* \"#utility.yul\":20526:20529   */\n      0x00\n        /* \"#utility.yul\":20545:20565   */\n      tag_396\n        /* \"#utility.yul\":20563:20564   */\n      dup3\n        /* \"#utility.yul\":20545:20565   */\n      tag_128\n      jump\t// in\n    tag_396:\n        /* \"#utility.yul\":20540:20565   */\n      swap2\n      pop\n        /* \"#utility.yul\":20579:20599   */\n      tag_397\n        /* \"#utility.yul\":20597:20598   */\n      dup4\n        /* \"#utility.yul\":20579:20599   */\n      tag_128\n      jump\t// in\n    tag_397:\n        /* \"#utility.yul\":20574:20599   */\n      swap3\n      pop\n        /* \"#utility.yul\":20622:20623   */\n      dup3\n        /* \"#utility.yul\":20619:20620   */\n      dup3\n        /* \"#utility.yul\":20615:20624   */\n      add\n        /* \"#utility.yul\":20608:20624   */\n      swap1\n      pop\n        /* \"#utility.yul\":20643:20646   */\n      dup1\n        /* \"#utility.yul\":20640:20641   */\n      dup3\n        /* \"#utility.yul\":20637:20647   */\n      gt\n        /* \"#utility.yul\":20634:20670   */\n      iszero\n      tag_398\n      jumpi\n        /* \"#utility.yul\":20650:20668   */\n      tag_399\n      tag_162\n      jump\t// in\n    tag_399:\n        /* \"#utility.yul\":20634:20670   */\n    tag_398:\n        /* \"#utility.yul\":20486:20677   */\n      swap3\n      swap2\n      pop\n      pop\n      jump\t// out\n        /* \"#utility.yul\":20683:20831   */\n    tag_181:\n        /* \"#utility.yul\":20781:20787   */\n      dup3\n        /* \"#utility.yul\":20776:20779   */\n      dup2\n        /* \"#utility.yul\":20771:20774   */\n      dup4\n        /* \"#utility.yul\":20758:20788   */\n      calldatacopy\n        /* \"#utility.yul\":20822:20823   */\n      0x00\n        /* \"#utility.yul\":20813:20819   */\n      dup4\n        /* \"#utility.yul\":20808:20811   */\n      dup4\n        /* \"#utility.yul\":20804:20820   */\n      add\n        /* \"#utility.yul\":20797:20824   */\n      mstore\n        /* \"#utility.yul\":20683:20831   */\n      pop\n      pop\n      pop\n      jump\t// out\n        /* \"#utility.yul\":20861:21178   */\n    tag_182:\n        /* \"#utility.yul\":20959:20962   */\n      0x00\n        /* \"#utility.yul\":20980:21051   */\n      tag_402\n        /* \"#utility.yul\":21044:21050   */\n      dup4\n        /* \"#utility.yul\":21039:21042   */\n      dup6\n        /* \"#utility.yul\":20980:21051   */\n      tag_144\n      jump\t// in\n    tag_402:\n        /* \"#utility.yul\":20973:21051   */\n      swap4\n      pop\n        /* \"#utility.yul\":21061:21117   */\n      tag_403\n        /* \"#utility.yul\":21110:21116   */\n      dup4\n        /* \"#utility.yul\":21105:21108   */\n      dup6\n        /* \"#utility.yul\":21098:21103   */\n      dup5\n        /* \"#utility.yul\":21061:21117   */\n      tag_181\n      jump\t// in\n    tag_403:\n        /* \"#utility.yul\":21142:21171   */\n      tag_404\n        /* \"#utility.yul\":21164:21170   */\n      dup4\n        /* \"#utility.yul\":21142:21171   */\n      tag_146\n      jump\t// in\n    tag_404:\n        /* \"#utility.yul\":21137:21140   */\n      dup5\n        /* \"#utility.yul\":21133:21172   */\n      add\n        /* \"#utility.yul\":21126:21172   */\n      swap1\n      pop\n        /* \"#utility.yul\":20861:21178   */\n      swap4\n      swap3\n      pop\n      pop\n      pop\n      jump\t// out\n        /* \"#utility.yul\":21184:21627   */\n    tag_87:\n        /* \"#utility.yul\":21335:21339   */\n      0x00\n        /* \"#utility.yul\":21373:21375   */\n      0x40\n        /* \"#utility.yul\":21362:21371   */\n      dup3\n        /* \"#utility.yul\":21358:21376   */\n      add\n        /* \"#utility.yul\":21350:21376   */\n      swap1\n      pop\n        /* \"#utility.yul\":21422:21431   */\n      dup2\n        /* \"#utility.yul\":21416:21420   */\n      dup2\n        /* \"#utility.yul\":21412:21432   */\n      sub\n        /* \"#utility.yul\":21408:21409   */\n      0x00\n        /* \"#utility.yul\":21397:21406   */\n      dup4\n        /* \"#utility.yul\":21393:21410   */\n      add\n        /* \"#utility.yul\":21386:21433   */\n      mstore\n        /* \"#utility.yul\":21450:21538   */\n      tag_406\n        /* \"#utility.yul\":21533:21537   */\n      dup2\n        /* \"#utility.yul\":21524:21530   */\n      dup6\n        /* \"#utility.yul\":21516:21522   */\n      dup8\n        /* \"#utility.yul\":21450:21538   */\n      tag_182\n      jump\t// in\n    tag_406:\n        /* \"#utility.yul\":21442:21538   */\n      swap1\n      pop\n        /* \"#utility.yul\":21548:21620   */\n      tag_407\n        /* \"#utility.yul\":21616:21618   */\n      0x20\n        /* \"#utility.yul\":21605:21614   */\n      dup4\n        /* \"#utility.yul\":21601:21619   */\n      add\n        /* \"#utility.yul\":21592:21598   */\n      dup5\n        /* \"#utility.yul\":21548:21620   */\n      tag_131\n      jump\t// in\n    tag_407:\n        /* \"#utility.yul\":21184:21627   */\n      swap5\n      swap4\n      pop\n      pop\n      pop\n      pop\n      jump\t// out\n        /* \"#utility.yul\":21633:21802   */\n    tag_183:\n        /* \"#utility.yul\":21773:21794   */\n      0x50726f706f73616c206e6f742061637469766500000000000000000000000000\n        /* \"#utility.yul\":21769:21770   */\n      0x00\n        /* \"#utility.yul\":21761:21767   */\n      dup3\n        /* \"#utility.yul\":21757:21771   */\n      add\n        /* \"#utility.yul\":21750:21795   */\n      mstore\n        /* \"#utility.yul\":21633:21802   */\n      pop\n      jump\t// out\n        /* \"#utility.yul\":21808:22174   */\n    tag_184:\n        /* \"#utility.yul\":21950:21953   */\n      0x00\n        /* \"#utility.yul\":21971:22038   */\n      tag_410\n        /* \"#utility.yul\":22035:22037   */\n      0x13\n        /* \"#utility.yul\":22030:22033   */\n      dup4\n        /* \"#utility.yul\":21971:22038   */\n      tag_144\n      jump\t// in\n    tag_410:\n        /* \"#utility.yul\":21964:22038   */\n      swap2\n      pop\n        /* \"#utility.yul\":22047:22140   */\n      tag_411\n        /* \"#utility.yul\":22136:22139   */\n      dup3\n        /* \"#utility.yul\":22047:22140   */\n      tag_183\n      jump\t// in\n    tag_411:\n        /* \"#utility.yul\":22165:22167   */\n      0x20\n        /* \"#utility.yul\":22160:22163   */\n      dup3\n        /* \"#utility.yul\":22156:22168   */\n      add\n        /* \"#utility.yul\":22149:22168   */\n      swap1\n      pop\n        /* \"#utility.yul\":21808:22174   */\n      swap2\n      swap1\n      pop\n      jump\t// out\n        /* \"#utility.yul\":22180:22599   */\n    tag_105:\n        /* \"#utility.yul\":22346:22350   */\n      0x00\n        /* \"#utility.yul\":22384:22386   */\n      0x20\n        /* \"#utility.yul\":22373:22382   */\n      dup3\n        /* \"#utility.yul\":22369:22387   */\n      add\n        /* \"#utility.yul\":22361:22387   */\n      swap1\n      pop\n        /* \"#utility.yul\":22433:22442   */\n      dup2\n        /* \"#utility.yul\":22427:22431   */\n      dup2\n        /* \"#utility.yul\":22423:22443   */\n      sub\n        /* \"#utility.yul\":22419:22420   */\n      0x00\n        /* \"#utility.yul\":22408:22417   */\n      dup4\n        /* \"#utility.yul\":22404:22421   */\n      add\n        /* \"#utility.yul\":22397:22444   */\n      mstore\n        /* \"#utility.yul\":22461:22592   */\n      tag_413\n        /* \"#utility.yul\":22587:22591   */\n      dup2\n        /* \"#utility.yul\":22461:22592   */\n      tag_184\n      jump\t// in\n    tag_413:\n        /* \"#utility.yul\":22453:22592   */\n      swap1\n      pop\n        /* \"#utility.yul\":22180:22599   */\n      swap2\n      swap1\n      pop\n      jump\t// out\n        /* \"#utility.yul\":22605:22771   */\n    tag_185:\n        /* \"#utility.yul\":22745:22763   */\n      0x50726f706f73616c206578706972656400000000000000000000000000000000\n        /* \"#utility.yul\":22741:22742   */\n      0x00\n        /* \"#utility.yul\":22733:22739   */\n      dup3\n        /* \"#utility.yul\":22729:22743   */\n      add\n        /* \"#utility.yul\":22722:22764   */\n      mstore\n        /* \"#utility.yul\":22605:22771   */\n      pop\n      jump\t// out\n        /* \"#utility.yul\":22777:23143   */\n    tag_186:\n        /* \"#utility.yul\":22919:22922   */\n      0x00\n        /* \"#utility.yul\":22940:23007   */\n      tag_416\n        /* \"#utility.yul\":23004:23006   */\n      0x10\n        /* \"#utility.yul\":22999:23002   */\n      dup4\n        /* \"#utility.yul\":22940:23007   */\n      tag_144\n      jump\t// in\n    tag_416:\n        /* \"#utility.yul\":22933:23007   */\n      swap2\n      pop\n        /* \"#utility.yul\":23016:23109   */\n      tag_417\n        /* \"#utility.yul\":23105:23108   */\n      dup3\n        /* \"#utility.yul\":23016:23109   */\n      tag_185\n      jump\t// in\n    tag_417:\n        /* \"#utility.yul\":23134:23136   */\n      0x20\n        /* \"#utility.yul\":23129:23132   */\n      dup3\n        /* \"#utility.yul\":23125:23137   */\n      add\n        /* \"#utility.yul\":23118:23137   */\n      swap1\n      pop\n        /* \"#utility.yul\":22777:23143   */\n      swap2\n      swap1\n      pop\n      jump\t// out\n        /* \"#utility.yul\":23149:23568   */\n    tag_108:\n        /* \"#utility.yul\":23315:23319   */\n      0x00\n        /* \"#utility.yul\":23353:23355   */\n      0x20\n        /* \"#utility.yul\":23342:23351   */\n      dup3\n        /* \"#utility.yul\":23338:23356   */\n      add\n        /* \"#utility.yul\":23330:23356   */\n      swap1\n      pop\n        /* \"#utility.yul\":23402:23411   */\n      dup2\n        /* \"#utility.yul\":23396:23400   */\n      dup2\n        /* \"#utility.yul\":23392:23412   */\n      sub\n        /* \"#utility.yul\":23388:23389   */\n      0x00\n        /* \"#utility.yul\":23377:23386   */\n      dup4\n        /* \"#utility.yul\":23373:23390   */\n      add\n        /* \"#utility.yul\":23366:23413   */\n      mstore\n        /* \"#utility.yul\":23430:23561   */\n      tag_419\n        /* \"#utility.yul\":23556:23560   */\n      dup2\n        /* \"#utility.yul\":23430:23561   */\n      tag_186\n      jump\t// in\n    tag_419:\n        /* \"#utility.yul\":23422:23561   */\n      swap1\n      pop\n        /* \"#utility.yul\":23149:23568   */\n      swap2\n      swap1\n      pop\n      jump\t// out\n        /* \"#utility.yul\":23574:23737   */\n    tag_187:\n        /* \"#utility.yul\":23714:23729   */\n      0x416c726561647920766f74656400000000000000000000000000000000000000\n        /* \"#utility.yul\":23710:23711   */\n      0x00\n        /* \"#utility.yul\":23702:23708   */\n      dup3\n        /* \"#utility.yul\":23698:23712   */\n      add\n        /* \"#utility.yul\":23691:23730   */\n      mstore\n        /* \"#utility.yul\":23574:23737   */\n      pop\n      jump\t// out\n        /* \"#utility.yul\":23743:24109   */\n    tag_188:\n        /* \"#utility.yul\":23885:23888   */\n      0x00\n        /* \"#utility.yul\":23906:23973   */\n      tag_422\n        /* \"#utility.yul\":23970:23972   */\n      0x0d\n        /* \"#utility.yul\":23965:23968   */\n      dup4\n        /* \"#utility.yul\":23906:23973   */\n      tag_144\n      jump\t// in\n    tag_422:\n        /* \"#utility.yul\":23899:23973   */\n      swap2\n      pop\n        /* \"#utility.yul\":23982:24075   */\n      tag_423\n        /* \"#utility.yul\":24071:24074   */\n      dup3\n        /* \"#utility.yul\":23982:24075   */\n      tag_187\n      jump\t// in\n    tag_423:\n        /* \"#utility.yul\":24100:24102   */\n      0x20\n        /* \"#utility.yul\":24095:24098   */\n      dup3\n        /* \"#utility.yul\":24091:24103   */\n      add\n        /* \"#utility.yul\":24084:24103   */\n      swap1\n      pop\n        /* \"#utility.yul\":23743:24109   */\n      swap2\n      swap1\n      pop\n      jump\t// out\n        /* \"#utility.yul\":24115:24534   */\n    tag_111:\n        /* \"#utility.yul\":24281:24285   */\n      0x00\n        /* \"#utility.yul\":24319:24321   */\n      0x20\n        /* \"#utility.yul\":24308:24317   */\n      dup3\n        /* \"#utility.yul\":24304:24322   */\n      add\n        /* \"#utility.yul\":24296:24322   */\n      swap1\n      pop\n        /* \"#utility.yul\":24368:24377   */\n      dup2\n        /* \"#utility.yul\":24362:24366   */\n      dup2\n        /* \"#utility.yul\":24358:24378   */\n      sub\n        /* \"#utility.yul\":24354:24355   */\n      0x00\n        /* \"#utility.yul\":24343:24352   */\n      dup4\n        /* \"#utility.yul\":24339:24356   */\n      add\n        /* \"#utility.yul\":24332:24379   */\n      mstore\n        /* \"#utility.yul\":24396:24527   */\n      tag_425\n        /* \"#utility.yul\":24522:24526   */\n      dup2\n        /* \"#utility.yul\":24396:24527   */\n      tag_188\n      jump\t// in\n    tag_425:\n        /* \"#utility.yul\":24388:24527   */\n      swap1\n      pop\n        /* \"#utility.yul\":24115:24534   */\n      swap2\n      swap1\n      pop\n      jump\t// out\n        /* \"#utility.yul\":24540:24704   */\n    tag_189:\n        /* \"#utility.yul\":24680:24696   */\n      0x4e6f20766f746520776569676874000000000000000000000000000000000000\n        /* \"#utility.yul\":24676:24677   */\n      0x00\n        /* \"#utility.yul\":24668:24674   */\n      dup3\n        /* \"#utility.yul\":24664:24678   */\n      add\n        /* \"#utility.yul\":24657:24697   */\n      mstore\n        /* \"#utility.yul\":24540:24704   */\n      pop\n      jump\t// out\n        /* \"#utility.yul\":24710:25076   */\n    tag_190:\n        /* \"#utility.yul\":24852:24855   */\n      0x00\n        /* \"#utility.yul\":24873:24940   */\n      tag_428\n        /* \"#utility.yul\":24937:24939   */\n      0x0e\n        /* \"#utility.yul\":24932:24935   */\n      dup4\n        /* \"#utility.yul\":24873:24940   */\n      tag_144\n      jump\t// in\n    tag_428:\n        /* \"#utility.yul\":24866:24940   */\n      swap2\n      pop\n        /* \"#utility.yul\":24949:25042   */\n      tag_429\n        /* \"#utility.yul\":25038:25041   */\n      dup3\n        /* \"#utility.yul\":24949:25042   */\n      tag_189\n      jump\t// in\n    tag_429:\n        /* \"#utility.yul\":25067:25069   */\n      0x20\n        /* \"#utility.yul\":25062:25065   */\n      dup3\n        /* \"#utility.yul\":25058:25070   */\n      add\n        /* \"#utility.yul\":25051:25070   */\n      swap1\n      pop\n        /* \"#utility.yul\":24710:25076   */\n      swap2\n      swap1\n      pop\n      jump\t// out\n        /* \"#utility.yul\":25082:25501   */\n    tag_114:\n        /* \"#utility.yul\":25248:25252   */\n      0x00\n        /* \"#utility.yul\":25286:25288   */\n      0x20\n        /* \"#utility.yul\":25275:25284   */\n      dup3\n        /* \"#utility.yul\":25271:25289   */\n      add\n        /* \"#utility.yul\":25263:25289   */\n      swap1\n      pop\n        /* \"#utility.yul\":25335:25344   */\n      dup2\n        /* \"#utility.yul\":25329:25333   */\n      dup2\n        /* \"#utility.yul\":25325:25345   */\n      sub\n        /* \"#utility.yul\":25321:25322   */\n      0x00\n        /* \"#utility.yul\":25310:25319   */\n      dup4\n        /* \"#utility.yul\":25306:25323   */\n      add\n        /* \"#utility.yul\":25299:25346   */\n      mstore\n        /* \"#utility.yul\":25363:25494   */\n      tag_431\n        /* \"#utility.yul\":25489:25493   */\n      dup2\n        /* \"#utility.yul\":25363:25494   */\n      tag_190\n      jump\t// in\n    tag_431:\n        /* \"#utility.yul\":25355:25494   */\n      swap1\n      pop\n        /* \"#utility.yul\":25082:25501   */\n      swap2\n      swap1\n      pop\n      jump\t// out\n        /* \"#utility.yul\":25507:25827   */\n    tag_120:\n        /* \"#utility.yul\":25622:25626   */\n      0x00\n        /* \"#utility.yul\":25660:25662   */\n      0x40\n        /* \"#utility.yul\":25649:25658   */\n      dup3\n        /* \"#utility.yul\":25645:25663   */\n      add\n        /* \"#utility.yul\":25637:25663   */\n      swap1\n      pop\n        /* \"#utility.yul\":25673:25738   */\n      tag_433\n        /* \"#utility.yul\":25735:25736   */\n      0x00\n        /* \"#utility.yul\":25724:25733   */\n      dup4\n        /* \"#utility.yul\":25720:25737   */\n      add\n        /* \"#utility.yul\":25711:25717   */\n      dup6\n        /* \"#utility.yul\":25673:25738   */\n      tag_141\n      jump\t// in\n    tag_433:\n        /* \"#utility.yul\":25748:25820   */\n      tag_434\n        /* \"#utility.yul\":25816:25818   */\n      0x20\n        /* \"#utility.yul\":25805:25814   */\n      dup4\n        /* \"#utility.yul\":25801:25819   */\n      add\n        /* \"#utility.yul\":25792:25798   */\n      dup5\n        /* \"#utility.yul\":25748:25820   */\n      tag_131\n      jump\t// in\n    tag_434:\n        /* \"#utility.yul\":25507:25827   */\n      swap4\n      swap3\n      pop\n      pop\n      pop\n      jump\t// out\n\n    auxdata: 0xa2646970667358221220a5729c464946f8b350534b94df92dc7510c8c074ac86e0804e64c21e14b6dd7e64736f6c634300081e0033\n}\n",
				"bytecode": {
					"linkReferences": {},
					"object": "6080604052348015600f57600080fd5b50336000806101000a81548173ffffffffffffffffffffffffffffffffffffffff021916908373ffffffffffffffffffffffffffffffffffffffff1602179055506119cd8061005f6000396000f3fe608060405234801561001057600080fd5b50600436106100935760003560e01c80637eadebfe116100665780637eadebfe1461011e5780638da5cb5b1461014e578063ae092e891461016c578063c9d27afe146101a4578063cf8e65f9146101c057610093565b80630386a016146100985780630a9f46ad146100b4578063190a6a00146100d257806343859632146100ee575b600080fd5b6100b260048036038101906100ad9190610ca5565b6101dc565b005b6100bc6103d2565b6040516100c99190610ce1565b60405180910390f35b6100ec60048036038101906100e79190610dbf565b6103dc565b005b61010860048036038101906101039190610e33565b610615565b6040516101159190610e8e565b60405180910390f35b61013860048036038101906101339190610ea9565b6106c4565b6040516101459190610ce1565b60405180910390f35b6101566106dc565b6040516101639190610ee5565b60405180910390f35b61018660048036038101906101819190610ca5565b610700565b60405161019b99989796959493929190610f90565b60405180910390f35b6101be60048036038101906101b99190611050565b61086b565b005b6101da60048036038101906101d59190611090565b610b8f565b005b60008054906101000a900473ffffffffffffffffffffffffffffffffffffffff1673ffffffffffffffffffffffffffffffffffffffff163373ffffffffffffffffffffffffffffffffffffffff161461026a576040517f08c379a00000000000000000000000000000000000000000000000000000000081526004016102619061111c565b60405180910390fd5b60015481106102ae576040517f08c379a00000000000000000000000000000000000000000000000000000000081526004016102a590611188565b60405180910390fd5b60006002600083815260200190815260200160002090508060070160009054906101000a900460ff16610316576040517f08c379a000000000000000000000000000000000000000000000000000000000815260040161030d906111f4565b60405180910390fd5b806008015442101561035d576040517f08c379a000000000000000000000000000000000000000000000000000000000815260040161035490611260565b60405180910390fd5b60008160070160006101000a81548160ff021916908315150217905550600081600601548260040154119050827ff95ef50931b734b89e19f38404652cff9a20adaf4d2994a190a4ca2c48e8afed82846004015485600601546040516103c593929190611280565b60405180910390a2505050565b6000600154905090565b60008054906101000a900473ffffffffffffffffffffffffffffffffffffffff1673ffffffffffffffffffffffffffffffffffffffff163373ffffffffffffffffffffffffffffffffffffffff161461046a576040517f08c379a00000000000000000000000000000000000000000000000000000000081526004016104619061111c565b60405180910390fd5b600083839050116104b0576040517f08c379a00000000000000000000000000000000000000000000000000000000081526004016104a790611303565b60405180910390fd5b600081116104f3576040517f08c379a00000000000000000000000000000000000000000000000000000000081526004016104ea9061136f565b60405180910390fd5b600060016000815480929190610508906113be565b9190505590506000600260008381526020019081526020016000209050818160000181905550858160010160006101000a81548173ffffffffffffffffffffffffffffffffffffffff021916908373ffffffffffffffffffffffffffffffffffffffff160217905550848482600201918261058492919061164c565b5060018160070160006101000a81548160ff02191690831515021790555082426105ae919061171c565b81600801819055508573ffffffffffffffffffffffffffffffffffffffff16827f6838db3c5996fec3de968e640e7dd8000add88d4b31235fa327d85cdb8ffce5c878785600801546040516106059392919061178c565b60405180910390a3505050505050565b6000600154831061065b576040517f08c379a000000000000000000000000000000000000000000000000000000000815260040161065290611188565b60405180910390fd5b6002600084815260200190815260200160002060090160008373ffffffffffffffffffffffffffffffffffffffff1673ffffffffffffffffffffffffffffffffffffffff16815260200190815260200160002060009054906101000a900460ff16905092915050565b60036020528060005260406000206000915090505481565b60008054906101000a900473ffffffffffffffffffffffffffffffffffffffff1681565b60008060606000806000806000806001548a10610752576040517f08c379a000000000000000000000000000000000000000000000000000000000815260040161074990611188565b60405180910390fd5b6000600260008c81526020019081526020016000209050806000015499508060010160009054906101000a900473ffffffffffffffffffffffffffffffffffffffff1698508060020180546107a69061146f565b80601f01602080910402602001604051908101604052809291908181526020018280546107d29061146f565b801561081f5780601f106107f45761010080835404028352916020019161081f565b820191906000526020600020905b81548152906001019060200180831161080257829003601f168201915b505050505097508060070160009054906101000a900460ff1696508060080154955080600301549450806004015493508060050154925080600601549150509193959799909294969850565b60015482106108af576040517f08c379a00000000000000000000000000000000000000000000000000000000081526004016108a690611188565b60405180910390fd5b60006002600084815260200190815260200160002090508060070160009054906101000a900460ff16610917576040517f08c379a000000000000000000000000000000000000000000000000000000000815260040161090e9061180a565b60405180910390fd5b8060080154421061095d576040517f08c379a000000000000000000000000000000000000000000000000000000000815260040161095490611876565b60405180910390fd5b8060090160003373ffffffffffffffffffffffffffffffffffffffff1673ffffffffffffffffffffffffffffffffffffffff16815260200190815260200160002060009054906101000a900460ff16156109ec576040517f08c379a00000000000000000000000000000000000000000000000000000000081526004016109e3906118e2565b60405180910390fd5b6000600360003373ffffffffffffffffffffffffffffffffffffffff1673ffffffffffffffffffffffffffffffffffffffff1681526020019081526020016000205490506001811015610a74576040517f08c379a0000000000000000000000000000000000000000000000000000000008152600401610a6b9061194e565b60405180910390fd5b60018260090160003373ffffffffffffffffffffffffffffffffffffffff1673ffffffffffffffffffffffffffffffffffffffff16815260200190815260200160002060006101000a81548160ff0219169083151502179055508215610b0857816003016000815480929190600101919050555080826004016000828254610afc919061171c565b92505081905550610b38565b816005016000815480929190600101919050555080826006016000828254610b30919061171c565b925050819055505b833373ffffffffffffffffffffffffffffffffffffffff167f65f8c50a40ae46ed6b244ba59b93d321216c9638f156760e7f851c2536a3add28584604051610b8192919061196e565b60405180910390a350505050565b60008054906101000a900473ffffffffffffffffffffffffffffffffffffffff1673ffffffffffffffffffffffffffffffffffffffff163373ffffffffffffffffffffffffffffffffffffffff1614610c1d576040517f08c379a0000000000000000000000000000000000000000000000000000000008152600401610c149061111c565b60405180910390fd5b80600360008473ffffffffffffffffffffffffffffffffffffffff1673ffffffffffffffffffffffffffffffffffffffff168152602001908152602001600020819055505050565b600080fd5b600080fd5b6000819050919050565b610c8281610c6f565b8114610c8d57600080fd5b50565b600081359050610c9f81610c79565b92915050565b600060208284031215610cbb57610cba610c65565b5b6000610cc984828501610c90565b91505092915050565b610cdb81610c6f565b82525050565b6000602082019050610cf66000830184610cd2565b92915050565b600073ffffffffffffffffffffffffffffffffffffffff82169050919050565b6000610d2782610cfc565b9050919050565b610d3781610d1c565b8114610d4257600080fd5b50565b600081359050610d5481610d2e565b92915050565b600080fd5b600080fd5b600080fd5b60008083601f840112610d7f57610d7e610d5a565b5b8235905067ffffffffffffffff811115610d9c57610d9b610d5f565b5b602083019150836001820283011115610db857610db7610d64565b5b9250929050565b60008060008060608587031215610dd957610dd8610c65565b5b6000610de787828801610d45565b945050602085013567ffffffffffffffff811115610e0857610e07610c6a565b5b610e1487828801610d69565b93509350506040610e2787828801610c90565b91505092959194509250565b60008060408385031215610e4a57610e49610c65565b5b6000610e5885828601610c90565b9250506020610e6985828601610d45565b9150509250929050565b60008115159050919050565b610e8881610e73565b82525050565b6000602082019050610ea36000830184610e7f565b92915050565b600060208284031215610ebf57610ebe610c65565b5b6000610ecd84828501610d45565b91505092915050565b610edf81610d1c565b82525050565b6000602082019050610efa6000830184610ed6565b92915050565b600081519050919050565b600082825260208201905092915050565b60005b83811015610f3a578082015181840152602081019050610f1f565b60008484015250505050565b6000601f19601f8301169050919050565b6000610f6282610f00565b610f6c8185610f0b565b9350610f7c818560208601610f1c565b610f8581610f46565b840191505092915050565b600061012082019050610fa6600083018c610cd2565b610fb3602083018b610ed6565b8181036040830152610fc5818a610f57565b9050610fd46060830189610e7f565b610fe16080830188610cd2565b610fee60a0830187610cd2565b610ffb60c0830186610cd2565b61100860e0830185610cd2565b611016610100830184610cd2565b9a9950505050505050505050565b61102d81610e73565b811461103857600080fd5b50565b60008135905061104a81611024565b92915050565b6000806040838503121561106757611066610c65565b5b600061107585828601610c90565b92505060206110868582860161103b565b9150509250929050565b600080604083850312156110a7576110a6610c65565b5b60006110b585828601610d45565b92505060206110c685828601610c90565b9150509250929050565b7f6e6f74206f776e65720000000000000000000000000000000000000000000000600082015250565b6000611106600983610f0b565b9150611111826110d0565b602082019050919050565b60006020820190508181036000830152611135816110f9565b9050919050565b7f496e76616c69642070726f706f73616c00000000000000000000000000000000600082015250565b6000611172601083610f0b565b915061117d8261113c565b602082019050919050565b600060208201905081810360008301526111a181611165565b9050919050565b7f416c726561647920636c6f736564000000000000000000000000000000000000600082015250565b60006111de600e83610f0b565b91506111e9826111a8565b602082019050919050565b6000602082019050818103600083015261120d816111d1565b9050919050565b7f5374696c6c206163746976650000000000000000000000000000000000000000600082015250565b600061124a600c83610f0b565b915061125582611214565b602082019050919050565b600060208201905081810360008301526112798161123d565b9050919050565b60006060820190506112956000830186610e7f565b6112a26020830185610cd2565b6112af6040830184610cd2565b949350505050565b7f456d707479206465736372697074696f6e000000000000000000000000000000600082015250565b60006112ed601183610f0b565b91506112f8826112b7565b602082019050919050565b6000602082019050818103600083015261131c816112e0565b9050919050565b7f426164206475726174696f6e0000000000000000000000000000000000000000600082015250565b6000611359600c83610f0b565b915061136482611323565b602082019050919050565b600060208201905081810360008301526113888161134c565b9050919050565b7f4e487b7100000000000000000000000000000000000000000000000000000000600052601160045260246000fd5b60006113c982610c6f565b91507fffffffffffffffffffffffffffffffffffffffffffffffffffffffffffffffff82036113fb576113fa61138f565b5b600182019050919050565b600082905092915050565b7f4e487b7100000000000000000000000000000000000000000000000000000000600052604160045260246000fd5b7f4e487b7100000000000000000000000000000000000000000000000000000000600052602260045260246000fd5b6000600282049050600182168061148757607f821691505b60208210810361149a57611499611440565b5b50919050565b60008190508160005260206000209050919050565b60006020601f8301049050919050565b600082821b905092915050565b6000600883026115027fffffffffffffffffffffffffffffffffffffffffffffffffffffffffffffffff826114c5565b61150c86836114c5565b95508019841693508086168417925050509392505050565b6000819050919050565b600061154961154461153f84610c6f565b611524565b610c6f565b9050919050565b6000819050919050565b6115638361152e565b61157761156f82611550565b8484546114d2565b825550505050565b600090565b61158c61157f565b61159781848461155a565b505050565b5b818110156115bb576115b0600082611584565b60018101905061159d565b5050565b601f821115611600576115d1816114a0565b6115da846114b5565b810160208510156115e9578190505b6115fd6115f5856114b5565b83018261159c565b50505b505050565b600082821c905092915050565b600061162360001984600802611605565b1980831691505092915050565b600061163c8383611612565b9150826002028217905092915050565b6116568383611406565b67ffffffffffffffff81111561166f5761166e611411565b5b611679825461146f565b6116848282856115bf565b6000601f8311600181146116b357600084156116a1578287013590505b6116ab8582611630565b865550611713565b601f1984166116c1866114a0565b60005b828110156116e9578489013582556001820191506020850194506020810190506116c4565b868310156117065784890135611702601f891682611612565b8355505b6001600288020188555050505b50505050505050565b600061172782610c6f565b915061173283610c6f565b925082820190508082111561174a5761174961138f565b5b92915050565b82818337600083830152505050565b600061176b8385610f0b565b9350611778838584611750565b61178183610f46565b840190509392505050565b600060408201905081810360008301526117a781858761175f565b90506117b66020830184610cd2565b949350505050565b7f50726f706f73616c206e6f742061637469766500000000000000000000000000600082015250565b60006117f4601383610f0b565b91506117ff826117be565b602082019050919050565b60006020820190508181036000830152611823816117e7565b9050919050565b7f50726f706f73616c206578706972656400000000000000000000000000000000600082015250565b6000611860601083610f0b565b915061186b8261182a565b602082019050919050565b6000602082019050818103600083015261188f81611853565b9050919050565b7f416c726561647920766f74656400000000000000000000000000000000000000600082015250565b60006118cc600d83610f0b565b91506118d782611896565b602082019050919050565b600060208201905081810360008301526118fb816118bf565b9050919050565b7f4e6f20766f746520776569676874000000000000000000000000000000000000600082015250565b6000611938600e83610f0b565b915061194382611902565b602082019050919050565b600060208201905081810360008301526119678161192b565b9050919050565b60006040820190506119836000830185610e7f565b6119906020830184610cd2565b939250505056fea2646970667358221220a5729c464946f8b350534b94df92dc7510c8c074ac86e0804e64c21e14b6dd7e64736f6c634300081e0033",
					"opcodes": "PUSH1 0x80 PUSH1 0x40 MSTORE CALLVALUE DUP1 ISZERO PUSH1 0xF JUMPI PUSH1 0x0 DUP1 REVERT JUMPDEST POP CALLER PUSH1 0x0 DUP1 PUSH2 0x100 EXP DUP2 SLOAD DUP2 PUSH20 0xFFFFFFFFFFFFFFFFFFFFFFFFFFFFFFFFFFFFFFFF MUL NOT AND SWAP1 DUP4 PUSH20 0xFFFFFFFFFFFFFFFFFFFFFFFFFFFFFFFFFFFFFFFF AND MUL OR SWAP1 SSTORE POP PUSH2 0x19CD DUP1 PUSH2 0x5F PUSH1 0x0 CODECOPY PUSH1 0x0 RETURN INVALID PUSH1 0x80 PUSH1 0x40 MSTORE CALLVALUE DUP1 ISZERO PUSH2 0x10 JUMPI PUSH1 0x0 DUP1 REVERT JUMPDEST POP PUSH1 0x4 CALLDATASIZE LT PUSH2 0x93 JUMPI PUSH1 0x0 CALLDATALOAD PUSH1 0xE0 SHR DUP1 PUSH4 0x7EADEBFE GT PUSH2 0x66 JUMPI DUP1 PUSH4 0x7EADEBFE EQ PUSH2 0x11E JUMPI DUP1 PUSH4 0x8DA5CB5B EQ PUSH2 0x14E JUMPI DUP1 PUSH4 0xAE092E89 EQ PUSH2 0x16C JUMPI DUP1 PUSH4 0xC9D27AFE EQ PUSH2 0x1A4 JUMPI DUP1 PUSH4 0xCF8E65F9 EQ PUSH2 0x1C0 JUMPI PUSH2 0x93 JUMP JUMPDEST DUP1 PUSH4 0x386A016 EQ PUSH2 0x98 JUMPI DUP1 PUSH4 0xA9F46AD EQ PUSH2 0xB4 JUMPI DUP1 PUSH4 0x190A6A00 EQ PUSH2 0xD2 JUMPI DUP1 PUSH4 0x43859632 EQ PUSH2 0xEE JUMPI JUMPDEST PUSH1 0x0 DUP1 REVERT JUMPDEST PUSH2 0xB2 PUSH1 0x4 DUP1 CALLDATASIZE SUB DUP2 ADD SWAP1 PUSH2 0xAD SWAP2 SWAP1 PUSH2 0xCA5 JUMP JUMPDEST PUSH2 0x1DC JUMP JUMPDEST STOP JUMPDEST PUSH2 0xBC PUSH2 0x3D2 JUMP JUMPDEST PUSH1 0x40 MLOAD PUSH2 0xC9 SWAP2 SWAP1 PUSH2 0xCE1 JUMP JUMPDEST PUSH1 0x40 MLOAD DUP1 SWAP2 SUB SWAP1 RETURN JUMPDEST PUSH2 0xEC PUSH1 0x4 DUP1 CALLDATASIZE SUB DUP2 ADD SWAP1 PUSH2 0xE7 SWAP2 SWAP1 PUSH2 0xDBF JUMP JUMPDEST PUSH2 0x3DC JUMP JUMPDEST STOP JUMPDEST PUSH2 0x108 PUSH1 0x4 DUP1 CALLDATASIZE SUB DUP2 ADD SWAP1 PUSH2 0x103 SWAP2 SWAP1 PUSH2 0xE33 JUMP JUMPDEST PUSH2 0x615 JUMP JUMPDEST PUSH1 0x40 MLOAD PUSH2 0x115 SWAP2 SWAP1 PUSH2 0xE8E JUMP JUMPDEST PUSH1 0x40 MLOAD DUP1 SWAP2 SUB SWAP1 RETURN JUMPDEST PUSH2 0x138 PUSH1 0x4 DUP1 CALLDATASIZE SUB DUP2 ADD SWAP1 PUSH2 0x133 SWAP2 SWAP1 PUSH2 0xEA9 JUMP JUMPDEST PUSH2 0x6C4 JUMP JUMPDEST PUSH1 0x40 MLOAD PUSH2 0x145 SWAP2 SWAP1 PUSH2 0xCE1 JUMP JUMPDEST PUSH1 0x40 MLOAD DUP1 SWAP2 SUB SWAP1 RETURN JUMPDEST PUSH2 0x156 PUSH2 0x6DC JUMP JUMPDEST PUSH1 0x40 MLOAD PUSH2 0x163 SWAP2 SWAP1 PUSH2 0xEE5 JUMP JUMPDEST PUSH1 0x40 MLOAD DUP1 SWAP2 SUB SWAP1 RETURN JUMPDEST PUSH2 0x186 PUSH1 0x4 DUP1 CALLDATASIZE SUB DUP2 ADD SWAP1 PUSH2 0x181 SWAP2 SWAP1 PUSH2 0xCA5 JUMP JUMPDEST PUSH2 0x700 JUMP JUMPDEST PUSH1 0x40 MLOAD PUSH2 0x19B SWAP10 SWAP9 SWAP8 SWAP7 SWAP6 SWAP5 SWAP4 SWAP3 SWAP2 SWAP1 PUSH2 0xF90 JUMP JUMPDEST PUSH1 0x40 MLOAD DUP1 SWAP2 SUB SWAP1 RETURN JUMPDEST PUSH2 0x1BE PUSH1 0x4 DUP1 CALLDATASIZE SUB DUP2 ADD SWAP1 PUSH2 0x1B9 SWAP2 SWAP1 PUSH2 0x1050 JUMP JUMPDEST PUSH2 0x86B JUMP JUMPDEST STOP JUMPDEST PUSH2 0x1DA PUSH1 0x4 DUP1 CALLDATASIZE SUB DUP2 ADD SWAP1 PUSH2 0x1D5 SWAP2 SWAP1 PUSH2 0x1090 JUMP JUMPDEST PUSH2 0xB8F JUMP JUMPDEST STOP JUMPDEST PUSH1 0x0 DUP1 SLOAD SWAP1 PUSH2 0x100 EXP SWAP1 DIV PUSH20 0xFFFFFFFFFFFFFFFFFFFFFFFFFFFFFFFFFFFFFFFF AND PUSH20 0xFFFFFFFFFFFFFFFFFFFFFFFFFFFFFFFFFFFFFFFF AND CALLER PUSH20 0xFFFFFFFFFFFFFFFFFFFFFFFFFFFFFFFFFFFFFFFF AND EQ PUSH2 0x26A JUMPI PUSH1 0x40 MLOAD PUSH32 0x8C379A000000000000000000000000000000000000000000000000000000000 DUP2 MSTORE PUSH1 0x4 ADD PUSH2 0x261 SWAP1 PUSH2 0x111C JUMP JUMPDEST PUSH1 0x40 MLOAD DUP1 SWAP2 SUB SWAP1 REVERT JUMPDEST PUSH1 0x1 SLOAD DUP2 LT PUSH2 0x2AE JUMPI PUSH1 0x40 MLOAD PUSH32 0x8C379A000000000000000000000000000000000000000000000000000000000 DUP2 MSTORE PUSH1 0x4 ADD PUSH2 0x2A5 SWAP1 PUSH2 0x1188 JUMP JUMPDEST PUSH1 0x40 MLOAD DUP1 SWAP2 SUB SWAP1 REVERT JUMPDEST PUSH1 0x0 PUSH1 0x2 PUSH1 0x0 DUP4 DUP2 MSTORE PUSH1 0x20 ADD SWAP1 DUP2 MSTORE PUSH1 0x20 ADD PUSH1 0x0 KECCAK256 SWAP1 POP DUP1 PUSH1 0x7 ADD PUSH1 0x0 SWAP1 SLOAD SWAP1 PUSH2 0x100 EXP SWAP1 DIV PUSH1 0xFF AND PUSH2 0x316 JUMPI PUSH1 0x40 MLOAD PUSH32 0x8C379A000000000000000000000000000000000000000000000000000000000 DUP2 MSTORE PUSH1 0x4 ADD PUSH2 0x30D SWAP1 PUSH2 0x11F4 JUMP JUMPDEST PUSH1 0x40 MLOAD DUP1 SWAP2 SUB SWAP1 REVERT JUMPDEST DUP1 PUSH1 0x8 ADD SLOAD TIMESTAMP LT ISZERO PUSH2 0x35D JUMPI PUSH1 0x40 MLOAD PUSH32 0x8C379A000000000000000000000000000000000000000000000000000000000 DUP2 MSTORE PUSH1 0x4 ADD PUSH2 0x354 SWAP1 PUSH2 0x1260 JUMP JUMPDEST PUSH1 0x40 MLOAD DUP1 SWAP2 SUB SWAP1 REVERT JUMPDEST PUSH1 0x0 DUP2 PUSH1 0x7 ADD PUSH1 0x0 PUSH2 0x100 EXP DUP2 SLOAD DUP2 PUSH1 0xFF MUL NOT AND SWAP1 DUP4 ISZERO ISZERO MUL OR SWAP1 SSTORE POP PUSH1 0x0 DUP2 PUSH1 0x6 ADD SLOAD DUP3 PUSH1 0x4 ADD SLOAD GT SWAP1 POP DUP3 PUSH32 0xF95EF50931B734B89E19F38404652CFF9A20ADAF4D2994A190A4CA2C48E8AFED DUP3 DUP5 PUSH1 0x4 ADD SLOAD DUP6 PUSH1 0x6 ADD SLOAD PUSH1 0x40 MLOAD PUSH2 0x3C5 SWAP4 SWAP3 SWAP2 SWAP1 PUSH2 0x1280 JUMP JUMPDEST PUSH1 0x40 MLOAD DUP1 SWAP2 SUB SWAP1 LOG2 POP POP POP JUMP JUMPDEST PUSH1 0x0 PUSH1 0x1 SLOAD SWAP1 POP SWAP1 JUMP JUMPDEST PUSH1 0x0 DUP1 SLOAD SWAP1 PUSH2 0x100 EXP SWAP1 DIV PUSH20 0xFFFFFFFFFFFFFFFFFFFFFFFFFFFFFFFFFFFFFFFF AND PUSH20 0xFFFFFFFFFFFFFFFFFFFFFFFFFFFFFFFFFFFFFFFF AND CALLER PUSH20 0xFFFFFFFFFFFFFFFFFFFFFFFFFFFFFFFFFFFFFFFF AND EQ PUSH2 0x46A JUMPI PUSH1 0x40 MLOAD PUSH32 0x8C379A000000000000000000000000000000000000000000000000000000000 DUP2 MSTORE PUSH1 0x4 ADD PUSH2 0x461 SWAP1 PUSH2 0x111C JUMP JUMPDEST PUSH1 0x40 MLOAD DUP1 SWAP2 SUB SWAP1 REVERT JUMPDEST PUSH1 0x0 DUP4 DUP4 SWAP1 POP GT PUSH2 0x4B0 JUMPI PUSH1 0x40 MLOAD PUSH32 0x8C379A000000000000000000000000000000000000000000000000000000000 DUP2 MSTORE PUSH1 0x4 ADD PUSH2 0x4A7 SWAP1 PUSH2 0x1303 JUMP JUMPDEST PUSH1 0x40 MLOAD DUP1 SWAP2 SUB SWAP1 REVERT JUMPDEST PUSH1 0x0 DUP2 GT PUSH2 0x4F3 JUMPI PUSH1 0x40 MLOAD PUSH32 0x8C379A000000000000000000000000000000000000000000000000000000000 DUP2 MSTORE PUSH1 0x4 ADD PUSH2 0x4EA SWAP1 PUSH2 0x136F JUMP JUMPDEST PUSH1 0x40 MLOAD DUP1 SWAP2 SUB SWAP1 REVERT JUMPDEST PUSH1 0x0 PUSH1 0x1 PUSH1 0x0 DUP2 SLOAD DUP1 SWAP3 SWAP2 SWAP1 PUSH2 0x508 SWAP1 PUSH2 0x13BE JUMP JUMPDEST SWAP2 SWAP1 POP SSTORE SWAP1 POP PUSH1 0x0 PUSH1 0x2 PUSH1 0x0 DUP4 DUP2 MSTORE PUSH1 0x20 ADD SWAP1 DUP2 MSTORE PUSH1 0x20 ADD PUSH1 0x0 KECCAK256 SWAP1 POP DUP2 DUP2 PUSH1 0x0 ADD DUP2 SWAP1 SSTORE POP DUP6 DUP2 PUSH1 0x1 ADD PUSH1 0x0 PUSH2 0x100 EXP DUP2 SLOAD DUP2 PUSH20 0xFFFFFFFFFFFFFFFFFFFFFFFFFFFFFFFFFFFFFFFF MUL NOT AND SWAP1 DUP4 PUSH20 0xFFFFFFFFFFFFFFFFFFFFFFFFFFFFFFFFFFFFFFFF AND MUL OR SWAP1 SSTORE POP DUP5 DUP5 DUP3 PUSH1 0x2 ADD SWAP2 DUP3 PUSH2 0x584 SWAP3 SWAP2 SWAP1 PUSH2 0x164C JUMP JUMPDEST POP PUSH1 0x1 DUP2 PUSH1 0x7 ADD PUSH1 0x0 PUSH2 0x100 EXP DUP2 SLOAD DUP2 PUSH1 0xFF MUL NOT AND SWAP1 DUP4 ISZERO ISZERO MUL OR SWAP1 SSTORE POP DUP3 TIMESTAMP PUSH2 0x5AE SWAP2 SWAP1 PUSH2 0x171C JUMP JUMPDEST DUP2 PUSH1 0x8 ADD DUP2 SWAP1 SSTORE POP DUP6 PUSH20 0xFFFFFFFFFFFFFFFFFFFFFFFFFFFFFFFFFFFFFFFF AND DUP3 PUSH32 0x6838DB3C5996FEC3DE968E640E7DD8000ADD88D4B31235FA327D85CDB8FFCE5C DUP8 DUP8 DUP6 PUSH1 0x8 ADD SLOAD PUSH1 0x40 MLOAD PUSH2 0x605 SWAP4 SWAP3 SWAP2 SWAP1 PUSH2 0x178C JUMP JUMPDEST PUSH1 0x40 MLOAD DUP1 SWAP2 SUB SWAP1 LOG3 POP POP POP POP POP POP JUMP JUMPDEST PUSH1 0x0 PUSH1 0x1 SLOAD DUP4 LT PUSH2 0x65B JUMPI PUSH1 0x40 MLOAD PUSH32 0x8C379A000000000000000000000000000000000000000000000000000000000 DUP2 MSTORE PUSH1 0x4 ADD PUSH2 0x652 SWAP1 PUSH2 0x1188 JUMP JUMPDEST PUSH1 0x40 MLOAD DUP1 SWAP2 SUB SWAP1 REVERT JUMPDEST PUSH1 0x2 PUSH1 0x0 DUP5 DUP2 MSTORE PUSH1 0x20 ADD SWAP1 DUP2 MSTORE PUSH1 0x20 ADD PUSH1 0x0 KECCAK256 PUSH1 0x9 ADD PUSH1 0x0 DUP4 PUSH20 0xFFFFFFFFFFFFFFFFFFFFFFFFFFFFFFFFFFFFFFFF AND PUSH20 0xFFFFFFFFFFFFFFFFFFFFFFFFFFFFFFFFFFFFFFFF AND DUP2 MSTORE PUSH1 0x20 ADD SWAP1 DUP2 MSTORE PUSH1 0x20 ADD PUSH1 0x0 KECCAK256 PUSH1 0x0 SWAP1 SLOAD SWAP1 PUSH2 0x100 EXP SWAP1 DIV PUSH1 0xFF AND SWAP1 POP SWAP3 SWAP2 POP POP JUMP JUMPDEST PUSH1 0x3 PUSH1 0x20 MSTORE DUP1 PUSH1 0x0 MSTORE PUSH1 0x40 PUSH1 0x0 KECCAK256 PUSH1 0x0 SWAP2 POP SWAP1 POP SLOAD DUP2 JUMP JUMPDEST PUSH1 0x0 DUP1 SLOAD SWAP1 PUSH2 0x100 EXP SWAP1 DIV PUSH20 0xFFFFFFFFFFFFFFFFFFFFFFFFFFFFFFFFFFFFFFFF AND DUP2 JUMP JUMPDEST PUSH1 0x0 DUP1 PUSH1 0x60 PUSH1 0x0 DUP1 PUSH1 0x0 DUP1 PUSH1 0x0 DUP1 PUSH1 0x1 SLOAD DUP11 LT PUSH2 0x752 JUMPI PUSH1 0x40 MLOAD PUSH32 0x8C379A000000000000000000000000000000000000000000000000000000000 DUP2 MSTORE PUSH1 0x4 ADD PUSH2 0x749 SWAP1 PUSH2 0x1188 JUMP JUMPDEST PUSH1 0x40 MLOAD DUP1 SWAP2 SUB SWAP1 REVERT JUMPDEST PUSH1 0x0 PUSH1 0x2 PUSH1 0x0 DUP13 DUP2 MSTORE PUSH1 0x20 ADD SWAP1 DUP2 MSTORE PUSH1 0x20 ADD PUSH1 0x0 KECCAK256 SWAP1 POP DUP1 PUSH1 0x0 ADD SLOAD SWAP10 POP DUP1 PUSH1 0x1 ADD PUSH1 0x0 SWAP1 SLOAD SWAP1 PUSH2 0x100 EXP SWAP1 DIV PUSH20 0xFFFFFFFFFFFFFFFFFFFFFFFFFFFFFFFFFFFFFFFF AND SWAP9 POP DUP1 PUSH1 0x2 ADD DUP1 SLOAD PUSH2 0x7A6 SWAP1 PUSH2 0x146F JUMP JUMPDEST DUP1 PUSH1 0x1F ADD PUSH1 0x20 DUP1 SWAP2 DIV MUL PUSH1 0x20 ADD PUSH1 0x40 MLOAD SWAP1 DUP2 ADD PUSH1 0x40 MSTORE DUP1 SWAP3 SWAP2 SWAP1 DUP2 DUP2 MSTORE PUSH1 0x20 ADD DUP3 DUP1 SLOAD PUSH2 0x7D2 SWAP1 PUSH2 0x146F JUMP JUMPDEST DUP1 ISZERO PUSH2 0x81F JUMPI DUP1 PUSH1 0x1F LT PUSH2 0x7F4 JUMPI PUSH2 0x100 DUP1 DUP4 SLOAD DIV MUL DUP4 MSTORE SWAP2 PUSH1 0x20 ADD SWAP2 PUSH2 0x81F JUMP JUMPDEST DUP3 ADD SWAP2 SWAP1 PUSH1 0x0 MSTORE PUSH1 0x20 PUSH1 0x0 KECCAK256 SWAP1 JUMPDEST DUP2 SLOAD DUP2 MSTORE SWAP1 PUSH1 0x1 ADD SWAP1 PUSH1 0x20 ADD DUP1 DUP4 GT PUSH2 0x802 JUMPI DUP3 SWAP1 SUB PUSH1 0x1F AND DUP3 ADD SWAP2 JUMPDEST POP POP POP POP POP SWAP8 POP DUP1 PUSH1 0x7 ADD PUSH1 0x0 SWAP1 SLOAD SWAP1 PUSH2 0x100 EXP SWAP1 DIV PUSH1 0xFF AND SWAP7 POP DUP1 PUSH1 0x8 ADD SLOAD SWAP6 POP DUP1 PUSH1 0x3 ADD SLOAD SWAP5 POP DUP1 PUSH1 0x4 ADD SLOAD SWAP4 POP DUP1 PUSH1 0x5 ADD SLOAD SWAP3 POP DUP1 PUSH1 0x6 ADD SLOAD SWAP2 POP POP SWAP2 SWAP4 SWAP6 SWAP8 SWAP10 SWAP1 SWAP3 SWAP5 SWAP7 SWAP9 POP JUMP JUMPDEST PUSH1 0x1 SLOAD DUP3 LT PUSH2 0x8AF JUMPI PUSH1 0x40 MLOAD PUSH32 0x8C379A000000000000000000000000000000000000000000000000000000000 DUP2 MSTORE PUSH1 0x4 ADD PUSH2 0x8A6 SWAP1 PUSH2 0x1188 JUMP JUMPDEST PUSH1 0x40 MLOAD DUP1 SWAP2 SUB SWAP1 REVERT JUMPDEST PUSH1 0x0 PUSH1 0x2 PUSH1 0x0 DUP5 DUP2 MSTORE PUSH1 0x20 ADD SWAP1 DUP2 MSTORE PUSH1 0x20 ADD PUSH1 0x0 KECCAK256 SWAP1 POP DUP1 PUSH1 0x7 ADD PUSH1 0x0 SWAP1 SLOAD SWAP1 PUSH2 0x100 EXP SWAP1 DIV PUSH1 0xFF AND PUSH2 0x917 JUMPI PUSH1 0x40 MLOAD PUSH32 0x8C379A000000000000000000000000000000000000000000000000000000000 DUP2 MSTORE PUSH1 0x4 ADD PUSH2 0x90E SWAP1 PUSH2 0x180A JUMP JUMPDEST PUSH1 0x40 MLOAD DUP1 SWAP2 SUB SWAP1 REVERT JUMPDEST DUP1 PUSH1 0x8 ADD SLOAD TIMESTAMP LT PUSH2 0x95D JUMPI PUSH1 0x40 MLOAD PUSH32 0x8C379A000000000000000000000000000000000000000000000000000000000 DUP2 MSTORE PUSH1 0x4 ADD PUSH2 0x954 SWAP1 PUSH2 0x1876 JUMP JUMPDEST PUSH1 0x40 MLOAD DUP1 SWAP2 SUB SWAP1 REVERT JUMPDEST DUP1 PUSH1 0x9 ADD PUSH1 0x0 CALLER PUSH20 0xFFFFFFFFFFFFFFFFFFFFFFFFFFFFFFFFFFFFFFFF AND PUSH20 0xFFFFFFFFFFFFFFFFFFFFFFFFFFFFFFFFFFFFFFFF AND DUP2 MSTORE PUSH1 0x20 ADD SWAP1 DUP2 MSTORE PUSH1 0x20 ADD PUSH1 0x0 KECCAK256 PUSH1 0x0 SWAP1 SLOAD SWAP1 PUSH2 0x100 EXP SWAP1 DIV PUSH1 0xFF AND ISZERO PUSH2 0x9EC JUMPI PUSH1 0x40 MLOAD PUSH32 0x8C379A000000000000000000000000000000000000000000000000000000000 DUP2 MSTORE PUSH1 0x4 ADD PUSH2 0x9E3 SWAP1 PUSH2 0x18E2 JUMP JUMPDEST PUSH1 0x40 MLOAD DUP1 SWAP2 SUB SWAP1 REVERT JUMPDEST PUSH1 0x0 PUSH1 0x3 PUSH1 0x0 CALLER PUSH20 0xFFFFFFFFFFFFFFFFFFFFFFFFFFFFFFFFFFFFFFFF AND PUSH20 0xFFFFFFFFFFFFFFFFFFFFFFFFFFFFFFFFFFFFFFFF AND DUP2 MSTORE PUSH1 0x20 ADD SWAP1 DUP2 MSTORE PUSH1 0x20 ADD PUSH1 0x0 KECCAK256 SLOAD SWAP1 POP PUSH1 0x1 DUP2 LT ISZERO PUSH2 0xA74 JUMPI PUSH1 0x40 MLOAD PUSH32 0x8C379A000000000000000000000000000000000000000000000000000000000 DUP2 MSTORE PUSH1 0x4 ADD PUSH2 0xA6B SWAP1 PUSH2 0x194E JUMP JUMPDEST PUSH1 0x40 MLOAD DUP1 SWAP2 SUB SWAP1 REVERT JUMPDEST PUSH1 0x1 DUP3 PUSH1 0x9 ADD PUSH1 0x0 CALLER PUSH20 0xFFFFFFFFFFFFFFFFFFFFFFFFFFFFFFFFFFFFFFFF AND PUSH20 0xFFFFFFFFFFFFFFFFFFFFFFFFFFFFFFFFFFFFFFFF AND DUP2 MSTORE PUSH1 0x20 ADD SWAP1 DUP2 MSTORE PUSH1 0x20 ADD PUSH1 0x0 KECCAK256 PUSH1 0x0 PUSH2 0x100 EXP DUP2 SLOAD DUP2 PUSH1 0xFF MUL NOT AND SWAP1 DUP4 ISZERO ISZERO MUL OR SWAP1 SSTORE POP DUP3 ISZERO PUSH2 0xB08 JUMPI DUP2 PUSH1 0x3 ADD PUSH1 0x0 DUP2 SLOAD DUP1 SWAP3 SWAP2 SWAP1 PUSH1 0x1 ADD SWAP2 SWAP1 POP SSTORE POP DUP1 DUP3 PUSH1 0x4 ADD PUSH1 0x0 DUP3 DUP3 SLOAD PUSH2 0xAFC SWAP2 SWAP1 PUSH2 0x171C JUMP JUMPDEST SWAP3 POP POP DUP2 SWAP1 SSTORE POP PUSH2 0xB38 JUMP JUMPDEST DUP2 PUSH1 0x5 ADD PUSH1 0x0 DUP2 SLOAD DUP1 SWAP3 SWAP2 SWAP1 PUSH1 0x1 ADD SWAP2 SWAP1 POP SSTORE POP DUP1 DUP3 PUSH1 0x6 ADD PUSH1 0x0 DUP3 DUP3 SLOAD PUSH2 0xB30 SWAP2 SWAP1 PUSH2 0x171C JUMP JUMPDEST SWAP3 POP POP DUP2 SWAP1 SSTORE POP JUMPDEST DUP4 CALLER PUSH20 0xFFFFFFFFFFFFFFFFFFFFFFFFFFFFFFFFFFFFFFFF AND PUSH32 0x65F8C50A40AE46ED6B244BA59B93D321216C9638F156760E7F851C2536A3ADD2 DUP6 DUP5 PUSH1 0x40 MLOAD PUSH2 0xB81 SWAP3 SWAP2 SWAP1 PUSH2 0x196E JUMP JUMPDEST PUSH1 0x40 MLOAD DUP1 SWAP2 SUB SWAP1 LOG3 POP POP POP POP JUMP JUMPDEST PUSH1 0x0 DUP1 SLOAD SWAP1 PUSH2 0x100 EXP SWAP1 DIV PUSH20 0xFFFFFFFFFFFFFFFFFFFFFFFFFFFFFFFFFFFFFFFF AND PUSH20 0xFFFFFFFFFFFFFFFFFFFFFFFFFFFFFFFFFFFFFFFF AND CALLER PUSH20 0xFFFFFFFFFFFFFFFFFFFFFFFFFFFFFFFFFFFFFFFF AND EQ PUSH2 0xC1D JUMPI PUSH1 0x40 MLOAD PUSH32 0x8C379A000000000000000000000000000000000000000000000000000000000 DUP2 MSTORE PUSH1 0x4 ADD PUSH2 0xC14 SWAP1 PUSH2 0x111C JUMP JUMPDEST PUSH1 0x40 MLOAD DUP1 SWAP2 SUB SWAP1 REVERT JUMPDEST DUP1 PUSH1 0x3 PUSH1 0x0 DUP5 PUSH20 0xFFFFFFFFFFFFFFFFFFFFFFFFFFFFFFFFFFFFFFFF AND PUSH20 0xFFFFFFFFFFFFFFFFFFFFFFFFFFFFFFFFFFFFFFFF AND DUP2 MSTORE PUSH1 0x20 ADD SWAP1 DUP2 MSTORE PUSH1 0x20 ADD PUSH1 0x0 KECCAK256 DUP2 SWAP1 SSTORE POP POP POP JUMP JUMPDEST PUSH1 0x0 DUP1 REVERT JUMPDEST PUSH1 0x0 DUP1 REVERT JUMPDEST PUSH1 0x0 DUP2 SWAP1 POP SWAP2 SWAP1 POP JUMP JUMPDEST PUSH2 0xC82 DUP2 PUSH2 0xC6F JUMP JUMPDEST DUP2 EQ PUSH2 0xC8D JUMPI PUSH1 0x0 DUP1 REVERT JUMPDEST POP JUMP JUMPDEST PUSH1 0x0 DUP2 CALLDATALOAD SWAP1 POP PUSH2 0xC9F DUP2 PUSH2 0xC79 JUMP JUMPDEST SWAP3 SWAP2 POP POP JUMP JUMPDEST PUSH1 0x0 PUSH1 0x20 DUP3 DUP5 SUB SLT ISZERO PUSH2 0xCBB JUMPI PUSH2 0xCBA PUSH2 0xC65 JUMP JUMPDEST JUMPDEST PUSH1 0x0 PUSH2 0xCC9 DUP5 DUP3 DUP6 ADD PUSH2 0xC90 JUMP JUMPDEST SWAP2 POP POP SWAP3 SWAP2 POP POP JUMP JUMPDEST PUSH2 0xCDB DUP2 PUSH2 0xC6F JUMP JUMPDEST DUP3 MSTORE POP POP JUMP JUMPDEST PUSH1 0x0 PUSH1 0x20 DUP3 ADD SWAP1 POP PUSH2 0xCF6 PUSH1 0x0 DUP4 ADD DUP5 PUSH2 0xCD2 JUMP JUMPDEST SWAP3 SWAP2 POP POP JUMP JUMPDEST PUSH1 0x0 PUSH20 0xFFFFFFFFFFFFFFFFFFFFFFFFFFFFFFFFFFFFFFFF DUP3 AND SWAP1 POP SWAP2 SWAP1 POP JUMP JUMPDEST PUSH1 0x0 PUSH2 0xD27 DUP3 PUSH2 0xCFC JUMP JUMPDEST SWAP1 POP SWAP2 SWAP1 POP JUMP JUMPDEST PUSH2 0xD37 DUP2 PUSH2 0xD1C JUMP JUMPDEST DUP2 EQ PUSH2 0xD42 JUMPI PUSH1 0x0 DUP1 REVERT JUMPDEST POP JUMP JUMPDEST PUSH1 0x0 DUP2 CALLDATALOAD SWAP1 POP PUSH2 0xD54 DUP2 PUSH2 0xD2E JUMP JUMPDEST SWAP3 SWAP2 POP POP JUMP JUMPDEST PUSH1 0x0 DUP1 REVERT JUMPDEST PUSH1 0x0 DUP1 REVERT JUMPDEST PUSH1 0x0 DUP1 REVERT JUMPDEST PUSH1 0x0 DUP1 DUP4 PUSH1 0x1F DUP5 ADD SLT PUSH2 0xD7F JUMPI PUSH2 0xD7E PUSH2 0xD5A JUMP JUMPDEST JUMPDEST DUP3 CALLDATALOAD SWAP1 POP PUSH8 0xFFFFFFFFFFFFFFFF DUP2 GT ISZERO PUSH2 0xD9C JUMPI PUSH2 0xD9B PUSH2 0xD5F JUMP JUMPDEST JUMPDEST PUSH1 0x20 DUP4 ADD SWAP2 POP DUP4 PUSH1 0x1 DUP3 MUL DUP4 ADD GT ISZERO PUSH2 0xDB8 JUMPI PUSH2 0xDB7 PUSH2 0xD64 JUMP JUMPDEST JUMPDEST SWAP3 POP SWAP3 SWAP1 POP JUMP JUMPDEST PUSH1 0x0 DUP1 PUSH1 0x0 DUP1 PUSH1 0x60 DUP6 DUP8 SUB SLT ISZERO PUSH2 0xDD9 JUMPI PUSH2 0xDD8 PUSH2 0xC65 JUMP JUMPDEST JUMPDEST PUSH1 0x0 PUSH2 0xDE7 DUP8 DUP3 DUP9 ADD PUSH2 0xD45 JUMP JUMPDEST SWAP5 POP POP PUSH1 0x20 DUP6 ADD CALLDATALOAD PUSH8 0xFFFFFFFFFFFFFFFF DUP2 GT ISZERO PUSH2 0xE08 JUMPI PUSH2 0xE07 PUSH2 0xC6A JUMP JUMPDEST JUMPDEST PUSH2 0xE14 DUP8 DUP3 DUP9 ADD PUSH2 0xD69 JUMP JUMPDEST SWAP4 POP SWAP4 POP POP PUSH1 0x40 PUSH2 0xE27 DUP8 DUP3 DUP9 ADD PUSH2 0xC90 JUMP JUMPDEST SWAP2 POP POP SWAP3 SWAP6 SWAP2 SWAP5 POP SWAP3 POP JUMP JUMPDEST PUSH1 0x0 DUP1 PUSH1 0x40 DUP4 DUP6 SUB SLT ISZERO PUSH2 0xE4A JUMPI PUSH2 0xE49 PUSH2 0xC65 JUMP JUMPDEST JUMPDEST PUSH1 0x0 PUSH2 0xE58 DUP6 DUP3 DUP7 ADD PUSH2 0xC90 JUMP JUMPDEST SWAP3 POP POP PUSH1 0x20 PUSH2 0xE69 DUP6 DUP3 DUP7 ADD PUSH2 0xD45 JUMP JUMPDEST SWAP2 POP POP SWAP3 POP SWAP3 SWAP1 POP JUMP JUMPDEST PUSH1 0x0 DUP2 ISZERO ISZERO SWAP1 POP SWAP2 SWAP1 POP JUMP JUMPDEST PUSH2 0xE88 DUP2 PUSH2 0xE73 JUMP JUMPDEST DUP3 MSTORE POP POP JUMP JUMPDEST PUSH1 0x0 PUSH1 0x20 DUP3 ADD SWAP1 POP PUSH2 0xEA3 PUSH1 0x0 DUP4 ADD DUP5 PUSH2 0xE7F JUMP JUMPDEST SWAP3 SWAP2 POP POP JUMP JUMPDEST PUSH1 0x0 PUSH1 0x20 DUP3 DUP5 SUB SLT ISZERO PUSH2 0xEBF JUMPI PUSH2 0xEBE PUSH2 0xC65 JUMP JUMPDEST JUMPDEST PUSH1 0x0 PUSH2 0xECD DUP5 DUP3 DUP6 ADD PUSH2 0xD45 JUMP JUMPDEST SWAP2 POP POP SWAP3 SWAP2 POP POP JUMP JUMPDEST PUSH2 0xEDF DUP2 PUSH2 0xD1C JUMP JUMPDEST DUP3 MSTORE POP POP JUMP JUMPDEST PUSH1 0x0 PUSH1 0x20 DUP3 ADD SWAP1 POP PUSH2 0xEFA PUSH1 0x0 DUP4 ADD DUP5 PUSH2 0xED6 JUMP JUMPDEST SWAP3 SWAP2 POP POP JUMP JUMPDEST PUSH1 0x0 DUP2 MLOAD SWAP1 POP SWAP2 SWAP1 POP JUMP JUMPDEST PUSH1 0x0 DUP3 DUP3 MSTORE PUSH1 0x20 DUP3 ADD SWAP1 POP SWAP3 SWAP2 POP POP JUMP JUMPDEST PUSH1 0x0 JUMPDEST DUP4 DUP2 LT ISZERO PUSH2 0xF3A JUMPI DUP1 DUP3 ADD MLOAD DUP2 DUP5 ADD MSTORE PUSH1 0x20 DUP2 ADD SWAP1 POP PUSH2 0xF1F JUMP JUMPDEST PUSH1 0x0 DUP5 DUP5 ADD MSTORE POP POP POP POP JUMP JUMPDEST PUSH1 0x0 PUSH1 0x1F NOT PUSH1 0x1F DUP4 ADD AND SWAP1 POP SWAP2 SWAP1 POP JUMP JUMPDEST PUSH1 0x0 PUSH2 0xF62 DUP3 PUSH2 0xF00 JUMP JUMPDEST PUSH2 0xF6C DUP2 DUP6 PUSH2 0xF0B JUMP JUMPDEST SWAP4 POP PUSH2 0xF7C DUP2 DUP6 PUSH1 0x20 DUP7 ADD PUSH2 0xF1C JUMP JUMPDEST PUSH2 0xF85 DUP2 PUSH2 0xF46 JUMP JUMPDEST DUP5 ADD SWAP2 POP POP SWAP3 SWAP2 POP POP JUMP JUMPDEST PUSH1 0x0 PUSH2 0x120 DUP3 ADD SWAP1 POP PUSH2 0xFA6 PUSH1 0x0 DUP4 ADD DUP13 PUSH2 0xCD2 JUMP JUMPDEST PUSH2 0xFB3 PUSH1 0x20 DUP4 ADD DUP12 PUSH2 0xED6 JUMP JUMPDEST DUP2 DUP2 SUB PUSH1 0x40 DUP4 ADD MSTORE PUSH2 0xFC5 DUP2 DUP11 PUSH2 0xF57 JUMP JUMPDEST SWAP1 POP PUSH2 0xFD4 PUSH1 0x60 DUP4 ADD DUP10 PUSH2 0xE7F JUMP JUMPDEST PUSH2 0xFE1 PUSH1 0x80 DUP4 ADD DUP9 PUSH2 0xCD2 JUMP JUMPDEST PUSH2 0xFEE PUSH1 0xA0 DUP4 ADD DUP8 PUSH2 0xCD2 JUMP JUMPDEST PUSH2 0xFFB PUSH1 0xC0 DUP4 ADD DUP7 PUSH2 0xCD2 JUMP JUMPDEST PUSH2 0x1008 PUSH1 0xE0 DUP4 ADD DUP6 PUSH2 0xCD2 JUMP JUMPDEST PUSH2 0x1016 PUSH2 0x100 DUP4 ADD DUP5 PUSH2 0xCD2 JUMP JUMPDEST SWAP11 SWAP10 POP POP POP POP POP POP POP POP POP POP JUMP JUMPDEST PUSH2 0x102D DUP2 PUSH2 0xE73 JUMP JUMPDEST DUP2 EQ PUSH2 0x1038 JUMPI PUSH1 0x0 DUP1 REVERT JUMPDEST POP JUMP JUMPDEST PUSH1 0x0 DUP2 CALLDATALOAD SWAP1 POP PUSH2 0x104A DUP2 PUSH2 0x1024 JUMP JUMPDEST SWAP3 SWAP2 POP POP JUMP JUMPDEST PUSH1 0x0 DUP1 PUSH1 0x40 DUP4 DUP6 SUB SLT ISZERO PUSH2 0x1067 JUMPI PUSH2 0x1066 PUSH2 0xC65 JUMP JUMPDEST JUMPDEST PUSH1 0x0 PUSH2 0x1075 DUP6 DUP3 DUP7 ADD PUSH2 0xC90 JUMP JUMPDEST SWAP3 POP POP PUSH1 0x20 PUSH2 0x1086 DUP6 DUP3 DUP7 ADD PUSH2 0x103B JUMP JUMPDEST SWAP2 POP POP SWAP3 POP SWAP3 SWAP1 POP JUMP JUMPDEST PUSH1 0x0 DUP1 PUSH1 0x40 DUP4 DUP6 SUB SLT ISZERO PUSH2 0x10A7 JUMPI PUSH2 0x10A6 PUSH2 0xC65 JUMP JUMPDEST JUMPDEST PUSH1 0x0 PUSH2 0x10B5 DUP6 DUP3 DUP7 ADD PUSH2 0xD45 JUMP JUMPDEST SWAP3 POP POP PUSH1 0x20 PUSH2 0x10C6 DUP6 DUP3 DUP7 ADD PUSH2 0xC90 JUMP JUMPDEST SWAP2 POP POP SWAP3 POP SWAP3 SWAP1 POP JUMP JUMPDEST PUSH32 0x6E6F74206F776E65720000000000000000000000000000000000000000000000 PUSH1 0x0 DUP3 ADD MSTORE POP JUMP JUMPDEST PUSH1 0x0 PUSH2 0x1106 PUSH1 0x9 DUP4 PUSH2 0xF0B JUMP JUMPDEST SWAP2 POP PUSH2 0x1111 DUP3 PUSH2 0x10D0 JUMP JUMPDEST PUSH1 0x20 DUP3 ADD SWAP1 POP SWAP2 SWAP1 POP JUMP JUMPDEST PUSH1 0x0 PUSH1 0x20 DUP3 ADD SWAP1 POP DUP2 DUP2 SUB PUSH1 0x0 DUP4 ADD MSTORE PUSH2 0x1135 DUP2 PUSH2 0x10F9 JUMP JUMPDEST SWAP1 POP SWAP2 SWAP1 POP JUMP JUMPDEST PUSH32 0x496E76616C69642070726F706F73616C00000000000000000000000000000000 PUSH1 0x0 DUP3 ADD MSTORE POP JUMP JUMPDEST PUSH1 0x0 PUSH2 0x1172 PUSH1 0x10 DUP4 PUSH2 0xF0B JUMP JUMPDEST SWAP2 POP PUSH2 0x117D DUP3 PUSH2 0x113C JUMP JUMPDEST PUSH1 0x20 DUP3 ADD SWAP1 POP SWAP2 SWAP1 POP JUMP JUMPDEST PUSH1 0x0 PUSH1 0x20 DUP3 ADD SWAP1 POP DUP2 DUP2 SUB PUSH1 0x0 DUP4 ADD MSTORE PUSH2 0x11A1 DUP2 PUSH2 0x1165 JUMP JUMPDEST SWAP1 POP SWAP2 SWAP1 POP JUMP JUMPDEST PUSH32 0x416C726561647920636C6F736564000000000000000000000000000000000000 PUSH1 0x0 DUP3 ADD MSTORE POP JUMP JUMPDEST PUSH1 0x0 PUSH2 0x11DE PUSH1 0xE DUP4 PUSH2 0xF0B JUMP JUMPDEST SWAP2 POP PUSH2 0x11E9 DUP3 PUSH2 0x11A8 JUMP JUMPDEST PUSH1 0x20 DUP3 ADD SWAP1 POP SWAP2 SWAP1 POP JUMP JUMPDEST PUSH1 0x0 PUSH1 0x20 DUP3 ADD SWAP1 POP DUP2 DUP2 SUB PUSH1 0x0 DUP4 ADD MSTORE PUSH2 0x120D DUP2 PUSH2 0x11D1 JUMP JUMPDEST SWAP1 POP SWAP2 SWAP1 POP JUMP JUMPDEST PUSH32 0x5374696C6C206163746976650000000000000000000000000000000000000000 PUSH1 0x0 DUP3 ADD MSTORE POP JUMP JUMPDEST PUSH1 0x0 PUSH2 0x124A PUSH1 0xC DUP4 PUSH2 0xF0B JUMP JUMPDEST SWAP2 POP PUSH2 0x1255 DUP3 PUSH2 0x1214 JUMP JUMPDEST PUSH1 0x20 DUP3 ADD SWAP1 POP SWAP2 SWAP1 POP JUMP JUMPDEST PUSH1 0x0 PUSH1 0x20 DUP3 ADD SWAP1 POP DUP2 DUP2 SUB PUSH1 0x0 DUP4 ADD MSTORE PUSH2 0x1279 DUP2 PUSH2 0x123D JUMP JUMPDEST SWAP1 POP SWAP2 SWAP1 POP JUMP JUMPDEST PUSH1 0x0 PUSH1 0x60 DUP3 ADD SWAP1 POP PUSH2 0x1295 PUSH1 0x0 DUP4 ADD DUP7 PUSH2 0xE7F JUMP JUMPDEST PUSH2 0x12A2 PUSH1 0x20 DUP4 ADD DUP6 PUSH2 0xCD2 JUMP JUMPDEST PUSH2 0x12AF PUSH1 0x40 DUP4 ADD DUP5 PUSH2 0xCD2 JUMP JUMPDEST SWAP5 SWAP4 POP POP POP POP JUMP JUMPDEST PUSH32 0x456D707479206465736372697074696F6E000000000000000000000000000000 PUSH1 0x0 DUP3 ADD MSTORE POP JUMP JUMPDEST PUSH1 0x0 PUSH2 0x12ED PUSH1 0x11 DUP4 PUSH2 0xF0B JUMP JUMPDEST SWAP2 POP PUSH2 0x12F8 DUP3 PUSH2 0x12B7 JUMP JUMPDEST PUSH1 0x20 DUP3 ADD SWAP1 POP SWAP2 SWAP1 POP JUMP JUMPDEST PUSH1 0x0 PUSH1 0x20 DUP3 ADD SWAP1 POP DUP2 DUP2 SUB PUSH1 0x0 DUP4 ADD MSTORE PUSH2 0x131C DUP2 PUSH2 0x12E0 JUMP JUMPDEST SWAP1 POP SWAP2 SWAP1 POP JUMP JUMPDEST PUSH32 0x426164206475726174696F6E0000000000000000000000000000000000000000 PUSH1 0x0 DUP3 ADD MSTORE POP JUMP JUMPDEST PUSH1 0x0 PUSH2 0x1359 PUSH1 0xC DUP4 PUSH2 0xF0B JUMP JUMPDEST SWAP2 POP PUSH2 0x1364 DUP3 PUSH2 0x1323 JUMP JUMPDEST PUSH1 0x20 DUP3 ADD SWAP1 POP SWAP2 SWAP1 POP JUMP JUMPDEST PUSH1 0x0 PUSH1 0x20 DUP3 ADD SWAP1 POP DUP2 DUP2 SUB PUSH1 0x0 DUP4 ADD MSTORE PUSH2 0x1388 DUP2 PUSH2 0x134C JUMP JUMPDEST SWAP1 POP SWAP2 SWAP1 POP JUMP JUMPDEST PUSH32 0x4E487B7100000000000000000000000000000000000000000000000000000000 PUSH1 0x0 MSTORE PUSH1 0x11 PUSH1 0x4 MSTORE PUSH1 0x24 PUSH1 0x0 REVERT JUMPDEST PUSH1 0x0 PUSH2 0x13C9 DUP3 PUSH2 0xC6F JUMP JUMPDEST SWAP2 POP PUSH32 0xFFFFFFFFFFFFFFFFFFFFFFFFFFFFFFFFFFFFFFFFFFFFFFFFFFFFFFFFFFFFFFFF DUP3 SUB PUSH2 0x13FB JUMPI PUSH2 0x13FA PUSH2 0x138F JUMP JUMPDEST JUMPDEST PUSH1 0x1 DUP3 ADD SWAP1 POP SWAP2 SWAP1 POP JUMP JUMPDEST PUSH1 0x0 DUP3 SWAP1 POP SWAP3 SWAP2 POP POP JUMP JUMPDEST PUSH32 0x4E487B7100000000000000000000000000000000000000000000000000000000 PUSH1 0x0 MSTORE PUSH1 0x41 PUSH1 0x4 MSTORE PUSH1 0x24 PUSH1 0x0 REVERT JUMPDEST PUSH32 0x4E487B7100000000000000000000000000000000000000000000000000000000 PUSH1 0x0 MSTORE PUSH1 0x22 PUSH1 0x4 MSTORE PUSH1 0x24 PUSH1 0x0 REVERT JUMPDEST PUSH1 0x0 PUSH1 0x2 DUP3 DIV SWAP1 POP PUSH1 0x1 DUP3 AND DUP1 PUSH2 0x1487 JUMPI PUSH1 0x7F DUP3 AND SWAP2 POP JUMPDEST PUSH1 0x20 DUP3 LT DUP2 SUB PUSH2 0x149A JUMPI PUSH2 0x1499 PUSH2 0x1440 JUMP JUMPDEST JUMPDEST POP SWAP2 SWAP1 POP JUMP JUMPDEST PUSH1 0x0 DUP2 SWAP1 POP DUP2 PUSH1 0x0 MSTORE PUSH1 0x20 PUSH1 0x0 KECCAK256 SWAP1 POP SWAP2 SWAP1 POP JUMP JUMPDEST PUSH1 0x0 PUSH1 0x20 PUSH1 0x1F DUP4 ADD DIV SWAP1 POP SWAP2 SWAP1 POP JUMP JUMPDEST PUSH1 0x0 DUP3 DUP3 SHL SWAP1 POP SWAP3 SWAP2 POP POP JUMP JUMPDEST PUSH1 0x0 PUSH1 0x8 DUP4 MUL PUSH2 0x1502 PUSH32 0xFFFFFFFFFFFFFFFFFFFFFFFFFFFFFFFFFFFFFFFFFFFFFFFFFFFFFFFFFFFFFFFF DUP3 PUSH2 0x14C5 JUMP JUMPDEST PUSH2 0x150C DUP7 DUP4 PUSH2 0x14C5 JUMP JUMPDEST SWAP6 POP DUP1 NOT DUP5 AND SWAP4 POP DUP1 DUP7 AND DUP5 OR SWAP3 POP POP POP SWAP4 SWAP3 POP POP POP JUMP JUMPDEST PUSH1 0x0 DUP2 SWAP1 POP SWAP2 SWAP1 POP JUMP JUMPDEST PUSH1 0x0 PUSH2 0x1549 PUSH2 0x1544 PUSH2 0x153F DUP5 PUSH2 0xC6F JUMP JUMPDEST PUSH2 0x1524 JUMP JUMPDEST PUSH2 0xC6F JUMP JUMPDEST SWAP1 POP SWAP2 SWAP1 POP JUMP JUMPDEST PUSH1 0x0 DUP2 SWAP1 POP SWAP2 SWAP1 POP JUMP JUMPDEST PUSH2 0x1563 DUP4 PUSH2 0x152E JUMP JUMPDEST PUSH2 0x1577 PUSH2 0x156F DUP3 PUSH2 0x1550 JUMP JUMPDEST DUP5 DUP5 SLOAD PUSH2 0x14D2 JUMP JUMPDEST DUP3 SSTORE POP POP POP POP JUMP JUMPDEST PUSH1 0x0 SWAP1 JUMP JUMPDEST PUSH2 0x158C PUSH2 0x157F JUMP JUMPDEST PUSH2 0x1597 DUP2 DUP5 DUP5 PUSH2 0x155A JUMP JUMPDEST POP POP POP JUMP JUMPDEST JUMPDEST DUP2 DUP2 LT ISZERO PUSH2 0x15BB JUMPI PUSH2 0x15B0 PUSH1 0x0 DUP3 PUSH2 0x1584 JUMP JUMPDEST PUSH1 0x1 DUP2 ADD SWAP1 POP PUSH2 0x159D JUMP JUMPDEST POP POP JUMP JUMPDEST PUSH1 0x1F DUP3 GT ISZERO PUSH2 0x1600 JUMPI PUSH2 0x15D1 DUP2 PUSH2 0x14A0 JUMP JUMPDEST PUSH2 0x15DA DUP5 PUSH2 0x14B5 JUMP JUMPDEST DUP2 ADD PUSH1 0x20 DUP6 LT ISZERO PUSH2 0x15E9 JUMPI DUP2 SWAP1 POP JUMPDEST PUSH2 0x15FD PUSH2 0x15F5 DUP6 PUSH2 0x14B5 JUMP JUMPDEST DUP4 ADD DUP3 PUSH2 0x159C JUMP JUMPDEST POP POP JUMPDEST POP POP POP JUMP JUMPDEST PUSH1 0x0 DUP3 DUP3 SHR SWAP1 POP SWAP3 SWAP2 POP POP JUMP JUMPDEST PUSH1 0x0 PUSH2 0x1623 PUSH1 0x0 NOT DUP5 PUSH1 0x8 MUL PUSH2 0x1605 JUMP JUMPDEST NOT DUP1 DUP4 AND SWAP2 POP POP SWAP3 SWAP2 POP POP JUMP JUMPDEST PUSH1 0x0 PUSH2 0x163C DUP4 DUP4 PUSH2 0x1612 JUMP JUMPDEST SWAP2 POP DUP3 PUSH1 0x2 MUL DUP3 OR SWAP1 POP SWAP3 SWAP2 POP POP JUMP JUMPDEST PUSH2 0x1656 DUP4 DUP4 PUSH2 0x1406 JUMP JUMPDEST PUSH8 0xFFFFFFFFFFFFFFFF DUP2 GT ISZERO PUSH2 0x166F JUMPI PUSH2 0x166E PUSH2 0x1411 JUMP JUMPDEST JUMPDEST PUSH2 0x1679 DUP3 SLOAD PUSH2 0x146F JUMP JUMPDEST PUSH2 0x1684 DUP3 DUP3 DUP6 PUSH2 0x15BF JUMP JUMPDEST PUSH1 0x0 PUSH1 0x1F DUP4 GT PUSH1 0x1 DUP2 EQ PUSH2 0x16B3 JUMPI PUSH1 0x0 DUP5 ISZERO PUSH2 0x16A1 JUMPI DUP3 DUP8 ADD CALLDATALOAD SWAP1 POP JUMPDEST PUSH2 0x16AB DUP6 DUP3 PUSH2 0x1630 JUMP JUMPDEST DUP7 SSTORE POP PUSH2 0x1713 JUMP JUMPDEST PUSH1 0x1F NOT DUP5 AND PUSH2 0x16C1 DUP7 PUSH2 0x14A0 JUMP JUMPDEST PUSH1 0x0 JUMPDEST DUP3 DUP2 LT ISZERO PUSH2 0x16E9 JUMPI DUP5 DUP10 ADD CALLDATALOAD DUP3 SSTORE PUSH1 0x1 DUP3 ADD SWAP2 POP PUSH1 0x20 DUP6 ADD SWAP5 POP PUSH1 0x20 DUP2 ADD SWAP1 POP PUSH2 0x16C4 JUMP JUMPDEST DUP7 DUP4 LT ISZERO PUSH2 0x1706 JUMPI DUP5 DUP10 ADD CALLDATALOAD PUSH2 0x1702 PUSH1 0x1F DUP10 AND DUP3 PUSH2 0x1612 JUMP JUMPDEST DUP4 SSTORE POP JUMPDEST PUSH1 0x1 PUSH1 0x2 DUP9 MUL ADD DUP9 SSTORE POP POP POP JUMPDEST POP POP POP POP POP POP POP JUMP JUMPDEST PUSH1 0x0 PUSH2 0x1727 DUP3 PUSH2 0xC6F JUMP JUMPDEST SWAP2 POP PUSH2 0x1732 DUP4 PUSH2 0xC6F JUMP JUMPDEST SWAP3 POP DUP3 DUP3 ADD SWAP1 POP DUP1 DUP3 GT ISZERO PUSH2 0x174A JUMPI PUSH2 0x1749 PUSH2 0x138F JUMP JUMPDEST JUMPDEST SWAP3 SWAP2 POP POP JUMP JUMPDEST DUP3 DUP2 DUP4 CALLDATACOPY PUSH1 0x0 DUP4 DUP4 ADD MSTORE POP POP POP JUMP JUMPDEST PUSH1 0x0 PUSH2 0x176B DUP4 DUP6 PUSH2 0xF0B JUMP JUMPDEST SWAP4 POP PUSH2 0x1778 DUP4 DUP6 DUP5 PUSH2 0x1750 JUMP JUMPDEST PUSH2 0x1781 DUP4 PUSH2 0xF46 JUMP JUMPDEST DUP5 ADD SWAP1 POP SWAP4 SWAP3 POP POP POP JUMP JUMPDEST PUSH1 0x0 PUSH1 0x40 DUP3 ADD SWAP1 POP DUP2 DUP2 SUB PUSH1 0x0 DUP4 ADD MSTORE PUSH2 0x17A7 DUP2 DUP6 DUP8 PUSH2 0x175F JUMP JUMPDEST SWAP1 POP PUSH2 0x17B6 PUSH1 0x20 DUP4 ADD DUP5 PUSH2 0xCD2 JUMP JUMPDEST SWAP5 SWAP4 POP POP POP POP JUMP JUMPDEST PUSH32 0x50726F706F73616C206E6F742061637469766500000000000000000000000000 PUSH1 0x0 DUP3 ADD MSTORE POP JUMP JUMPDEST PUSH1 0x0 PUSH2 0x17F4 PUSH1 0x13 DUP4 PUSH2 0xF0B JUMP JUMPDEST SWAP2 POP PUSH2 0x17FF DUP3 PUSH2 0x17BE JUMP JUMPDEST PUSH1 0x20 DUP3 ADD SWAP1 POP SWAP2 SWAP1 POP JUMP JUMPDEST PUSH1 0x0 PUSH1 0x20 DUP3 ADD SWAP1 POP DUP2 DUP2 SUB PUSH1 0x0 DUP4 ADD MSTORE PUSH2 0x1823 DUP2 PUSH2 0x17E7 JUMP JUMPDEST SWAP1 POP SWAP2 SWAP1 POP JUMP JUMPDEST PUSH32 0x50726F706F73616C206578706972656400000000000000000000000000000000 PUSH1 0x0 DUP3 ADD MSTORE POP JUMP JUMPDEST PUSH1 0x0 PUSH2 0x1860 PUSH1 0x10 DUP4 PUSH2 0xF0B JUMP JUMPDEST SWAP2 POP PUSH2 0x186B DUP3 PUSH2 0x182A JUMP JUMPDEST PUSH1 0x20 DUP3 ADD SWAP1 POP SWAP2 SWAP1 POP JUMP JUMPDEST PUSH1 0x0 PUSH1 0x20 DUP3 ADD SWAP1 POP DUP2 DUP2 SUB PUSH1 0x0 DUP4 ADD MSTORE PUSH2 0x188F DUP2 PUSH2 0x1853 JUMP JUMPDEST SWAP1 POP SWAP2 SWAP1 POP JUMP JUMPDEST PUSH32 0x416C726561647920766F74656400000000000000000000000000000000000000 PUSH1 0x0 DUP3 ADD MSTORE POP JUMP JUMPDEST PUSH1 0x0 PUSH2 0x18CC PUSH1 0xD DUP4 PUSH2 0xF0B JUMP JUMPDEST SWAP2 POP PUSH2 0x18D7 DUP3 PUSH2 0x1896 JUMP JUMPDEST PUSH1 0x20 DUP3 ADD SWAP1 POP SWAP2 SWAP1 POP JUMP JUMPDEST PUSH1 0x0 PUSH1 0x20 DUP3 ADD SWAP1 POP DUP2 DUP2 SUB PUSH1 0x0 DUP4 ADD MSTORE PUSH2 0x18FB DUP2 PUSH2 0x18BF JUMP JUMPDEST SWAP1 POP SWAP2 SWAP1 POP JUMP JUMPDEST PUSH32 0x4E6F20766F746520776569676874000000000000000000000000000000000000 PUSH1 0x0 DUP3 ADD MSTORE POP JUMP JUMPDEST PUSH1 0x0 PUSH2 0x1938 PUSH1 0xE DUP4 PUSH2 0xF0B JUMP JUMPDEST SWAP2 POP PUSH2 0x1943 DUP3 PUSH2 0x1902 JUMP JUMPDEST PUSH1 0x20 DUP3 ADD SWAP1 POP SWAP2 SWAP1 POP JUMP JUMPDEST PUSH1 0x0 PUSH1 0x20 DUP3 ADD SWAP1 POP DUP2 DUP2 SUB PUSH1 0x0 DUP4 ADD MSTORE PUSH2 0x1967 DUP2 PUSH2 0x192B JUMP JUMPDEST SWAP1 POP SWAP2 SWAP1 POP JUMP JUMPDEST PUSH1 0x0 PUSH1 0x40 DUP3 ADD SWAP1 POP PUSH2 0x1983 PUSH1 0x0 DUP4 ADD DUP6 PUSH2 0xE7F JUMP JUMPDEST PUSH2 0x1990 PUSH1 0x20 DUP4 ADD DUP5 PUSH2 0xCD2 JUMP JUMPDEST SWAP4 SWAP3 POP POP POP JUMP INVALID LOG2 PUSH5 0x6970667358 0x22 SLT KECCAK256 0xA5 PUSH19 0x9C464946F8B350534B94DF92DC7510C8C074AC DUP7 RJUMP 0x804E PUSH5 0xC21E14B6DD PUSH31 0x64736F6C634300081E00330000000000000000000000000000000000000000 "
				},
				"gasEstimates": {
					"creation": {
						"codeDepositCost": "1321000",
						"executionCost": "25642",
						"totalCost": "1346642"
					},
					"external": {
						"closeProposal(uint256)": "infinite",
						"hasVoted(uint256,address)": "5330",
						"newProposal(address,string,uint256)": "infinite",
						"owner()": "2533",
						"proposalInfo(uint256)": "infinite",
						"proposalsCount()": "2460",
						"setVoteWeight(address,uint256)": "25087",
						"vote(uint256,bool)": "infinite",
						"voteWeight(address)": "2814"
					}
				},
				"methodIdentifiers": {
					"closeProposal(uint256)": "0386a016",
					"hasVoted(uint256,address)": "43859632",
					"newProposal(address,string,uint256)": "190a6a00",
					"owner()": "8da5cb5b",
					"proposalInfo(uint256)": "ae092e89",
					"proposalsCount()": "0a9f46ad",
					"setVoteWeight(address,uint256)": "cf8e65f9",
					"vote(uint256,bool)": "c9d27afe",
					"voteWeight(address)": "7eadebfe"
				}
			},
			"storageLayout": {
				"storage": [
					{
						"astId": 3,
						"contract": "contacts/DAO_VotationSystem.sol:DAOVotationSystem",
						"label": "owner",
						"offset": 0,
						"slot": "0",
						"type": "t_address"
					},
					{
						"astId": 56,
						"contract": "contacts/DAO_VotationSystem.sol:DAOVotationSystem",
						"label": "_proposalCount",
						"offset": 0,
						"slot": "1",
						"type": "t_uint256"
					},
					{
						"astId": 84,
						"contract": "contacts/DAO_VotationSystem.sol:DAOVotationSystem",
						"label": "_proposals",
						"offset": 0,
						"slot": "2",
						"type": "t_mapping(t_uint256,t_struct(Proposal)79_storage)"
					},
					{
						"astId": 88,
						"contract": "contacts/DAO_VotationSystem.sol:DAOVotationSystem",
						"label": "voteWeight",
						"offset": 0,
						"slot": "3",
						"type": "t_mapping(t_address,t_uint256)"
					}
				],
				"types": {
					"t_address": {
						"encoding": "inplace",
						"label": "address",
						"numberOfBytes": "20"
					},
					"t_bool": {
						"encoding": "inplace",
						"label": "bool",
						"numberOfBytes": "1"
					},
					"t_mapping(t_address,t_bool)": {
						"encoding": "mapping",
						"key": "t_address",
						"label": "mapping(address => bool)",
						"numberOfBytes": "32",
						"value": "t_bool"
					},
					"t_mapping(t_address,t_uint256)": {
						"encoding": "mapping",
						"key": "t_address",
						"label": "mapping(address => uint256)",
						"numberOfBytes": "32",
						"value": "t_uint256"
					},
					"t_mapping(t_uint256,t_struct(Proposal)79_storage)": {
						"encoding": "mapping",
						"key": "t_uint256",
						"label": "mapping(uint256 => struct DAOVotationSystem.Proposal)",
						"numberOfBytes": "32",
						"value": "t_struct(Proposal)79_storage"
					},
					"t_string_storage": {
						"encoding": "bytes",
						"label": "string",
						"numberOfBytes": "32"
					},
					"t_struct(Proposal)79_storage": {
						"encoding": "inplace",
						"label": "struct DAOVotationSystem.Proposal",
						"members": [
							{
								"astId": 58,
								"contract": "contacts/DAO_VotationSystem.sol:DAOVotationSystem",
								"label": "id",
								"offset": 0,
								"slot": "0",
								"type": "t_uint256"
							},
							{
								"astId": 60,
								"contract": "contacts/DAO_VotationSystem.sol:DAOVotationSystem",
								"label": "creator",
								"offset": 0,
								"slot": "1",
								"type": "t_address"
							},
							{
								"astId": 62,
								"contract": "contacts/DAO_VotationSystem.sol:DAOVotationSystem",
								"label": "description",
								"offset": 0,
								"slot": "2",
								"type": "t_string_storage"
							},
							{
								"astId": 64,
								"contract": "contacts/DAO_VotationSystem.sol:DAOVotationSystem",
								"label": "positiveVotes",
								"offset": 0,
								"slot": "3",
								"type": "t_uint256"
							},
							{
								"astId": 66,
								"contract": "contacts/DAO_VotationSystem.sol:DAOVotationSystem",
								"label": "positiveVotesWeight",
								"offset": 0,
								"slot": "4",
								"type": "t_uint256"
							},
							{
								"astId": 68,
								"contract": "contacts/DAO_VotationSystem.sol:DAOVotationSystem",
								"label": "negativeVotes",
								"offset": 0,
								"slot": "5",
								"type": "t_uint256"
							},
							{
								"astId": 70,
								"contract": "contacts/DAO_VotationSystem.sol:DAOVotationSystem",
								"label": "negativeVotesWeight",
								"offset": 0,
								"slot": "6",
								"type": "t_uint256"
							},
							{
								"astId": 72,
								"contract": "contacts/DAO_VotationSystem.sol:DAOVotationSystem",
								"label": "isActive",
								"offset": 0,
								"slot": "7",
								"type": "t_bool"
							},
							{
								"astId": 74,
								"contract": "contacts/DAO_VotationSystem.sol:DAOVotationSystem",
								"label": "deadline",
								"offset": 0,
								"slot": "8",
								"type": "t_uint256"
							},
							{
								"astId": 78,
								"contract": "contacts/DAO_VotationSystem.sol:DAOVotationSystem",
								"label": "hasVoted",
								"offset": 0,
								"slot": "9",
								"type": "t_mapping(t_address,t_bool)"
							}
						],
						"numberOfBytes": "320"
					},
					"t_uint256": {
						"encoding": "inplace",
						"label": "uint256",
						"numberOfBytes": "32"
					}
				}
			},
			"userdoc": {
				"kind": "user",
				"methods": {},
				"version": 1
			}
		}
	}
}