{
	"data": {
		"bytecode": {
			"linkReferences": {},
			"object": "6080604052348015600f57600080fd5b50336000806101000a81548173ffffffffffffffffffffffffffffffffffffffff021916908373ffffffffffffffffffffffffffffffffffffffff160217905550611a518061005f6000396000f3fe608060405234801561001057600080fd5b506004361061009e5760003560e01c80637eadebfe116100665780637eadebfe146101615780638da5cb5b14610191578063c9d27afe146101af578063da35c664146101cb578063f3404b3c146101e95761009e565b8063013cf08b146100a35780630386a016146100db57806317516b69146100f75780634385963214610113578063557b349114610143575b600080fd5b6100bd60048036038101906100b89190610cae565b610205565b6040516100d299989796959493929190610dd6565b60405180910390f35b6100f560048036038101906100f09190610cae565b610308565b005b610111600480360381019061010c9190610e96565b6104fe565b005b61012d60048036038101906101289190610ed6565b6105d4565b60405161013a9190610f16565b60405180910390f35b61014b610603565b6040516101589190610f31565b60405180910390f35b61017b60048036038101906101769190610f4c565b61060b565b6040516101889190610f31565b60405180910390f35b610199610623565b6040516101a69190610f79565b60405180910390f35b6101c960048036038101906101c49190610fc0565b610647565b005b6101d3610989565b6040516101e09190610f31565b60405180910390f35b61020360048036038101906101fe9190611135565b61098f565b005b60026020528060005260406000206000915090508060000154908060010160009054906101000a900473ffffffffffffffffffffffffffffffffffffffff1690806002018054610254906111d3565b80601f0160208091040260200160405190810160405280929190818152602001828054610280906111d3565b80156102cd5780601f106102a2576101008083540402835291602001916102cd565b820191906000526020600020905b8154815290600101906020018083116102b057829003601f168201915b5050505050908060030154908060040154908060050154908060060154908060070160009054906101000a900460ff16908060080154905089565b60008054906101000a900473ffffffffffffffffffffffffffffffffffffffff1673ffffffffffffffffffffffffffffffffffffffff163373ffffffffffffffffffffffffffffffffffffffff1614610396576040517f08c379a000000000000000000000000000000000000000000000000000000000815260040161038d90611250565b60405180910390fd5b60015481106103da576040517f08c379a00000000000000000000000000000000000000000000000000000000081526004016103d1906112bc565b60405180910390fd5b60006002600083815260200190815260200160002090508060070160009054906101000a900460ff16610442576040517f08c379a000000000000000000000000000000000000000000000000000000000815260040161043990611328565b60405180910390fd5b8060080154421015610489576040517f08c379a000000000000000000000000000000000000000000000000000000000815260040161048090611394565b60405180910390fd5b60008160070160006101000a81548160ff021916908315150217905550600081600601548260040154119050827ff95ef50931b734b89e19f38404652cff9a20adaf4d2994a190a4ca2c48e8afed82846004015485600601546040516104f1939291906113b4565b60405180910390a2505050565b60008054906101000a900473ffffffffffffffffffffffffffffffffffffffff1673ffffffffffffffffffffffffffffffffffffffff163373ffffffffffffffffffffffffffffffffffffffff161461058c576040517f08c379a000000000000000000000000000000000000000000000000000000000815260040161058390611250565b60405180910390fd5b80600460008473ffffffffffffffffffffffffffffffffffffffff1673ffffffffffffffffffffffffffffffffffffffff168152602001908152602001600020819055505050565b60036020528160005260406000206020528060005260406000206000915091509054906101000a900460ff1681565b600042905090565b60046020528060005260406000206000915090505481565b60008054906101000a900473ffffffffffffffffffffffffffffffffffffffff1681565b600154821061068b576040517f08c379a0000000000000000000000000000000000000000000000000000000008152600401610682906112bc565b60405180910390fd5b60006002600084815260200190815260200160002090508060070160009054906101000a900460ff166106f3576040517f08c379a00000000000000000000000000000000000000000000000000000000081526004016106ea90611437565b60405180910390fd5b80600801544210610739576040517f08c379a0000000000000000000000000000000000000000000000000000000008152600401610730906114a3565b60405180910390fd5b6003600084815260200190815260200160002060003373ffffffffffffffffffffffffffffffffffffffff1673ffffffffffffffffffffffffffffffffffffffff16815260200190815260200160002060009054906101000a900460ff16156107d7576040517f08c379a00000000000000000000000000000000000000000000000000000000081526004016107ce90611535565b60405180910390fd5b6000600460003373ffffffffffffffffffffffffffffffffffffffff1673ffffffffffffffffffffffffffffffffffffffff168152602001908152602001600020549050600181101561085f576040517f08c379a0000000000000000000000000000000000000000000000000000000008152600401610856906115a1565b60405180910390fd5b60016003600086815260200190815260200160002060003373ffffffffffffffffffffffffffffffffffffffff1673ffffffffffffffffffffffffffffffffffffffff16815260200190815260200160002060006101000a81548160ff0219169083151502179055508215610902578160030160008154809291906001019190505550808260040160008282546108f691906115f0565b92505081905550610932565b81600501600081548092919060010191905055508082600601600082825461092a91906115f0565b925050819055505b833373ffffffffffffffffffffffffffffffffffffffff167f65f8c50a40ae46ed6b244ba59b93d321216c9638f156760e7f851c2536a3add2858460405161097b929190611624565b60405180910390a350505050565b60015481565b60008054906101000a900473ffffffffffffffffffffffffffffffffffffffff1673ffffffffffffffffffffffffffffffffffffffff163373ffffffffffffffffffffffffffffffffffffffff1614610a1d576040517f08c379a0000000000000000000000000000000000000000000000000000000008152600401610a1490611250565b60405180910390fd5b6000825111610a61576040517f08c379a0000000000000000000000000000000000000000000000000000000008152600401610a5890611699565b60405180910390fd5b60008111610aa4576040517f08c379a0000000000000000000000000000000000000000000000000000000008152600401610a9b90611705565b60405180910390fd5b600060016000815480929190610ab990611725565b9190505590506040518061012001604052808281526020018573ffffffffffffffffffffffffffffffffffffffff168152602001848152602001600081526020016000815260200160008152602001600081526020016001151581526020018342610b2491906115f0565b815250600260008381526020019081526020016000206000820151816000015560208201518160010160006101000a81548173ffffffffffffffffffffffffffffffffffffffff021916908373ffffffffffffffffffffffffffffffffffffffff1602179055506040820151816002019081610ba09190611919565b50606082015181600301556080820151816004015560a0820151816005015560c0820151816006015560e08201518160070160006101000a81548160ff02191690831515021790555061010082015181600801559050508373ffffffffffffffffffffffffffffffffffffffff16817f6838db3c5996fec3de968e640e7dd8000add88d4b31235fa327d85cdb8ffce5c856002600086815260200190815260200160002060080154604051610c569291906119eb565b60405180910390a350505050565b6000604051905090565b600080fd5b600080fd5b6000819050919050565b610c8b81610c78565b8114610c9657600080fd5b50565b600081359050610ca881610c82565b92915050565b600060208284031215610cc457610cc3610c6e565b5b6000610cd284828501610c99565b91505092915050565b610ce481610c78565b82525050565b600073ffffffffffffffffffffffffffffffffffffffff82169050919050565b6000610d1582610cea565b9050919050565b610d2581610d0a565b82525050565b600081519050919050565b600082825260208201905092915050565b60005b83811015610d65578082015181840152602081019050610d4a565b60008484015250505050565b6000601f19601f8301169050919050565b6000610d8d82610d2b565b610d978185610d36565b9350610da7818560208601610d47565b610db081610d71565b840191505092915050565b60008115159050919050565b610dd081610dbb565b82525050565b600061012082019050610dec600083018c610cdb565b610df9602083018b610d1c565b8181036040830152610e0b818a610d82565b9050610e1a6060830189610cdb565b610e276080830188610cdb565b610e3460a0830187610cdb565b610e4160c0830186610cdb565b610e4e60e0830185610dc7565b610e5c610100830184610cdb565b9a9950505050505050505050565b610e7381610d0a565b8114610e7e57600080fd5b50565b600081359050610e9081610e6a565b92915050565b60008060408385031215610ead57610eac610c6e565b5b6000610ebb85828601610e81565b9250506020610ecc85828601610c99565b9150509250929050565b60008060408385031215610eed57610eec610c6e565b5b6000610efb85828601610c99565b9250506020610f0c85828601610e81565b9150509250929050565b6000602082019050610f2b6000830184610dc7565b92915050565b6000602082019050610f466000830184610cdb565b92915050565b600060208284031215610f6257610f61610c6e565b5b6000610f7084828501610e81565b91505092915050565b6000602082019050610f8e6000830184610d1c565b92915050565b610f9d81610dbb565b8114610fa857600080fd5b50565b600081359050610fba81610f94565b92915050565b60008060408385031215610fd757610fd6610c6e565b5b6000610fe585828601610c99565b9250506020610ff685828601610fab565b9150509250929050565b600080fd5b600080fd5b7f4e487b7100000000000000000000000000000000000000000000000000000000600052604160045260246000fd5b61104282610d71565b810181811067ffffffffffffffff821117156110615761106061100a565b5b80604052505050565b6000611074610c64565b90506110808282611039565b919050565b600067ffffffffffffffff8211156110a05761109f61100a565b5b6110a982610d71565b9050602081019050919050565b82818337600083830152505050565b60006110d86110d384611085565b61106a565b9050828152602081018484840111156110f4576110f3611005565b5b6110ff8482856110b6565b509392505050565b600082601f83011261111c5761111b611000565b5b813561112c8482602086016110c5565b91505092915050565b60008060006060848603121561114e5761114d610c6e565b5b600061115c86828701610e81565b935050602084013567ffffffffffffffff81111561117d5761117c610c73565b5b61118986828701611107565b925050604061119a86828701610c99565b9150509250925092565b7f4e487b7100000000000000000000000000000000000000000000000000000000600052602260045260246000fd5b600060028204905060018216806111eb57607f821691505b6020821081036111fe576111fd6111a4565b5b50919050565b7f6e6f74206f776e65720000000000000000000000000000000000000000000000600082015250565b600061123a600983610d36565b915061124582611204565b602082019050919050565b600060208201905081810360008301526112698161122d565b9050919050565b7f696e76616c69642070726f706f73616c00000000000000000000000000000000600082015250565b60006112a6601083610d36565b91506112b182611270565b602082019050919050565b600060208201905081810360008301526112d581611299565b9050919050565b7f416c726561647920636c6f736564000000000000000000000000000000000000600082015250565b6000611312600e83610d36565b915061131d826112dc565b602082019050919050565b6000602082019050818103600083015261134181611305565b9050919050565b7f5374696c6c206163746976650000000000000000000000000000000000000000600082015250565b600061137e600c83610d36565b915061138982611348565b602082019050919050565b600060208201905081810360008301526113ad81611371565b9050919050565b60006060820190506113c96000830186610dc7565b6113d66020830185610cdb565b6113e36040830184610cdb565b949350505050565b7f50726f706f73616c206973206e6f742061637469766500000000000000000000600082015250565b6000611421601683610d36565b915061142c826113eb565b602082019050919050565b6000602082019050818103600083015261145081611414565b9050919050565b7f50726f706f73616c206861732065787069726564000000000000000000000000600082015250565b600061148d601483610d36565b915061149882611457565b602082019050919050565b600060208201905081810360008301526114bc81611480565b9050919050565b7f596f75206861766520616c726561647920766f746564206f6e2074686973207060008201527f726f706f73616c00000000000000000000000000000000000000000000000000602082015250565b600061151f602783610d36565b915061152a826114c3565b604082019050919050565b6000602082019050818103600083015261154e81611512565b9050919050565b7f596f752068617665206e6f742077656967687420746f20766f74650000000000600082015250565b600061158b601b83610d36565b915061159682611555565b602082019050919050565b600060208201905081810360008301526115ba8161157e565b9050919050565b7f4e487b7100000000000000000000000000000000000000000000000000000000600052601160045260246000fd5b60006115fb82610c78565b915061160683610c78565b925082820190508082111561161e5761161d6115c1565b5b92915050565b60006040820190506116396000830185610dc7565b6116466020830184610cdb565b9392505050565b7f656d707479206465736372697074696f6e000000000000000000000000000000600082015250565b6000611683601183610d36565b915061168e8261164d565b602082019050919050565b600060208201905081810360008301526116b281611676565b9050919050565b7f626164206475726174696f6e0000000000000000000000000000000000000000600082015250565b60006116ef600c83610d36565b91506116fa826116b9565b602082019050919050565b6000602082019050818103600083015261171e816116e2565b9050919050565b600061173082610c78565b91507fffffffffffffffffffffffffffffffffffffffffffffffffffffffffffffffff8203611762576117616115c1565b5b600182019050919050565b60008190508160005260206000209050919050565b60006020601f8301049050919050565b600082821b905092915050565b6000600883026117cf7fffffffffffffffffffffffffffffffffffffffffffffffffffffffffffffffff82611792565b6117d98683611792565b95508019841693508086168417925050509392505050565b6000819050919050565b600061181661181161180c84610c78565b6117f1565b610c78565b9050919050565b6000819050919050565b611830836117fb565b61184461183c8261181d565b84845461179f565b825550505050565b600090565b61185961184c565b611864818484611827565b505050565b5b818110156118885761187d600082611851565b60018101905061186a565b5050565b601f8211156118cd5761189e8161176d565b6118a784611782565b810160208510156118b6578190505b6118ca6118c285611782565b830182611869565b50505b505050565b600082821c905092915050565b60006118f0600019846008026118d2565b1980831691505092915050565b600061190983836118df565b9150826002028217905092915050565b61192282610d2b565b67ffffffffffffffff81111561193b5761193a61100a565b5b61194582546111d3565b61195082828561188c565b600060209050601f8311600181146119835760008415611971578287015190505b61197b85826118fd565b8655506119e3565b601f1984166119918661176d565b60005b828110156119b957848901518255600182019150602085019450602081019050611994565b868310156119d657848901516119d2601f8916826118df565b8355505b6001600288020188555050505b505050505050565b60006040820190508181036000830152611a058185610d82565b9050611a146020830184610cdb565b939250505056fea2646970667358221220b695a6566d0fce059e3f31941adaccb0b17cd53ec9b08bd5d9f45a48906f077c64736f6c634300081e0033",
			"opcodes": "PUSH1 0x80 PUSH1 0x40 MSTORE CALLVALUE DUP1 ISZERO PUSH1 0xF JUMPI PUSH1 0x0 DUP1 REVERT JUMPDEST POP CALLER PUSH1 0x0 DUP1 PUSH2 0x100 EXP DUP2 SLOAD DUP2 PUSH20 0xFFFFFFFFFFFFFFFFFFFFFFFFFFFFFFFFFFFFFFFF MUL NOT AND SWAP1 DUP4 PUSH20 0xFFFFFFFFFFFFFFFFFFFFFFFFFFFFFFFFFFFFFFFF AND MUL OR SWAP1 SSTORE POP PUSH2 0x1A51 DUP1 PUSH2 0x5F PUSH1 0x0 CODECOPY PUSH1 0x0 RETURN INVALID PUSH1 0x80 PUSH1 0x40 MSTORE CALLVALUE DUP1 ISZERO PUSH2 0x10 JUMPI PUSH1 0x0 DUP1 REVERT JUMPDEST POP PUSH1 0x4 CALLDATASIZE LT PUSH2 0x9E JUMPI PUSH1 0x0 CALLDATALOAD PUSH1 0xE0 SHR DUP1 PUSH4 0x7EADEBFE GT PUSH2 0x66 JUMPI DUP1 PUSH4 0x7EADEBFE EQ PUSH2 0x161 JUMPI DUP1 PUSH4 0x8DA5CB5B EQ PUSH2 0x191 JUMPI DUP1 PUSH4 0xC9D27AFE EQ PUSH2 0x1AF JUMPI DUP1 PUSH4 0xDA35C664 EQ PUSH2 0x1CB JUMPI DUP1 PUSH4 0xF3404B3C EQ PUSH2 0x1E9 JUMPI PUSH2 0x9E JUMP JUMPDEST DUP1 PUSH4 0x13CF08B EQ PUSH2 0xA3 JUMPI DUP1 PUSH4 0x386A016 EQ PUSH2 0xDB JUMPI DUP1 PUSH4 0x17516B69 EQ PUSH2 0xF7 JUMPI DUP1 PUSH4 0x43859632 EQ PUSH2 0x113 JUMPI DUP1 PUSH4 0x557B3491 EQ PUSH2 0x143 JUMPI JUMPDEST PUSH1 0x0 DUP1 REVERT JUMPDEST PUSH2 0xBD PUSH1 0x4 DUP1 CALLDATASIZE SUB DUP2 ADD SWAP1 PUSH2 0xB8 SWAP2 SWAP1 PUSH2 0xCAE JUMP JUMPDEST PUSH2 0x205 JUMP JUMPDEST PUSH1 0x40 MLOAD PUSH2 0xD2 SWAP10 SWAP9 SWAP8 SWAP7 SWAP6 SWAP5 SWAP4 SWAP3 SWAP2 SWAP1 PUSH2 0xDD6 JUMP JUMPDEST PUSH1 0x40 MLOAD DUP1 SWAP2 SUB SWAP1 RETURN JUMPDEST PUSH2 0xF5 PUSH1 0x4 DUP1 CALLDATASIZE SUB DUP2 ADD SWAP1 PUSH2 0xF0 SWAP2 SWAP1 PUSH2 0xCAE JUMP JUMPDEST PUSH2 0x308 JUMP JUMPDEST STOP JUMPDEST PUSH2 0x111 PUSH1 0x4 DUP1 CALLDATASIZE SUB DUP2 ADD SWAP1 PUSH2 0x10C SWAP2 SWAP1 PUSH2 0xE96 JUMP JUMPDEST PUSH2 0x4FE JUMP JUMPDEST STOP JUMPDEST PUSH2 0x12D PUSH1 0x4 DUP1 CALLDATASIZE SUB DUP2 ADD SWAP1 PUSH2 0x128 SWAP2 SWAP1 PUSH2 0xED6 JUMP JUMPDEST PUSH2 0x5D4 JUMP JUMPDEST PUSH1 0x40 MLOAD PUSH2 0x13A SWAP2 SWAP1 PUSH2 0xF16 JUMP JUMPDEST PUSH1 0x40 MLOAD DUP1 SWAP2 SUB SWAP1 RETURN JUMPDEST PUSH2 0x14B PUSH2 0x603 JUMP JUMPDEST PUSH1 0x40 MLOAD PUSH2 0x158 SWAP2 SWAP1 PUSH2 0xF31 JUMP JUMPDEST PUSH1 0x40 MLOAD DUP1 SWAP2 SUB SWAP1 RETURN JUMPDEST PUSH2 0x17B PUSH1 0x4 DUP1 CALLDATASIZE SUB DUP2 ADD SWAP1 PUSH2 0x176 SWAP2 SWAP1 PUSH2 0xF4C JUMP JUMPDEST PUSH2 0x60B JUMP JUMPDEST PUSH1 0x40 MLOAD PUSH2 0x188 SWAP2 SWAP1 PUSH2 0xF31 JUMP JUMPDEST PUSH1 0x40 MLOAD DUP1 SWAP2 SUB SWAP1 RETURN JUMPDEST PUSH2 0x199 PUSH2 0x623 JUMP JUMPDEST PUSH1 0x40 MLOAD PUSH2 0x1A6 SWAP2 SWAP1 PUSH2 0xF79 JUMP JUMPDEST PUSH1 0x40 MLOAD DUP1 SWAP2 SUB SWAP1 RETURN JUMPDEST PUSH2 0x1C9 PUSH1 0x4 DUP1 CALLDATASIZE SUB DUP2 ADD SWAP1 PUSH2 0x1C4 SWAP2 SWAP1 PUSH2 0xFC0 JUMP JUMPDEST PUSH2 0x647 JUMP JUMPDEST STOP JUMPDEST PUSH2 0x1D3 PUSH2 0x989 JUMP JUMPDEST PUSH1 0x40 MLOAD PUSH2 0x1E0 SWAP2 SWAP1 PUSH2 0xF31 JUMP JUMPDEST PUSH1 0x40 MLOAD DUP1 SWAP2 SUB SWAP1 RETURN JUMPDEST PUSH2 0x203 PUSH1 0x4 DUP1 CALLDATASIZE SUB DUP2 ADD SWAP1 PUSH2 0x1FE SWAP2 SWAP1 PUSH2 0x1135 JUMP JUMPDEST PUSH2 0x98F JUMP JUMPDEST STOP JUMPDEST PUSH1 0x2 PUSH1 0x20 MSTORE DUP1 PUSH1 0x0 MSTORE PUSH1 0x40 PUSH1 0x0 KECCAK256 PUSH1 0x0 SWAP2 POP SWAP1 POP DUP1 PUSH1 0x0 ADD SLOAD SWAP1 DUP1 PUSH1 0x1 ADD PUSH1 0x0 SWAP1 SLOAD SWAP1 PUSH2 0x100 EXP SWAP1 DIV PUSH20 0xFFFFFFFFFFFFFFFFFFFFFFFFFFFFFFFFFFFFFFFF AND SWAP1 DUP1 PUSH1 0x2 ADD DUP1 SLOAD PUSH2 0x254 SWAP1 PUSH2 0x11D3 JUMP JUMPDEST DUP1 PUSH1 0x1F ADD PUSH1 0x20 DUP1 SWAP2 DIV MUL PUSH1 0x20 ADD PUSH1 0x40 MLOAD SWAP1 DUP2 ADD PUSH1 0x40 MSTORE DUP1 SWAP3 SWAP2 SWAP1 DUP2 DUP2 MSTORE PUSH1 0x20 ADD DUP3 DUP1 SLOAD PUSH2 0x280 SWAP1 PUSH2 0x11D3 JUMP JUMPDEST DUP1 ISZERO PUSH2 0x2CD JUMPI DUP1 PUSH1 0x1F LT PUSH2 0x2A2 JUMPI PUSH2 0x100 DUP1 DUP4 SLOAD DIV MUL DUP4 MSTORE SWAP2 PUSH1 0x20 ADD SWAP2 PUSH2 0x2CD JUMP JUMPDEST DUP3 ADD SWAP2 SWAP1 PUSH1 0x0 MSTORE PUSH1 0x20 PUSH1 0x0 KECCAK256 SWAP1 JUMPDEST DUP2 SLOAD DUP2 MSTORE SWAP1 PUSH1 0x1 ADD SWAP1 PUSH1 0x20 ADD DUP1 DUP4 GT PUSH2 0x2B0 JUMPI DUP3 SWAP1 SUB PUSH1 0x1F AND DUP3 ADD SWAP2 JUMPDEST POP POP POP POP POP SWAP1 DUP1 PUSH1 0x3 ADD SLOAD SWAP1 DUP1 PUSH1 0x4 ADD SLOAD SWAP1 DUP1 PUSH1 0x5 ADD SLOAD SWAP1 DUP1 PUSH1 0x6 ADD SLOAD SWAP1 DUP1 PUSH1 0x7 ADD PUSH1 0x0 SWAP1 SLOAD SWAP1 PUSH2 0x100 EXP SWAP1 DIV PUSH1 0xFF AND SWAP1 DUP1 PUSH1 0x8 ADD SLOAD SWAP1 POP DUP10 JUMP JUMPDEST PUSH1 0x0 DUP1 SLOAD SWAP1 PUSH2 0x100 EXP SWAP1 DIV PUSH20 0xFFFFFFFFFFFFFFFFFFFFFFFFFFFFFFFFFFFFFFFF AND PUSH20 0xFFFFFFFFFFFFFFFFFFFFFFFFFFFFFFFFFFFFFFFF AND CALLER PUSH20 0xFFFFFFFFFFFFFFFFFFFFFFFFFFFFFFFFFFFFFFFF AND EQ PUSH2 0x396 JUMPI PUSH1 0x40 MLOAD PUSH32 0x8C379A000000000000000000000000000000000000000000000000000000000 DUP2 MSTORE PUSH1 0x4 ADD PUSH2 0x38D SWAP1 PUSH2 0x1250 JUMP JUMPDEST PUSH1 0x40 MLOAD DUP1 SWAP2 SUB SWAP1 REVERT JUMPDEST PUSH1 0x1 SLOAD DUP2 LT PUSH2 0x3DA JUMPI PUSH1 0x40 MLOAD PUSH32 0x8C379A000000000000000000000000000000000000000000000000000000000 DUP2 MSTORE PUSH1 0x4 ADD PUSH2 0x3D1 SWAP1 PUSH2 0x12BC JUMP JUMPDEST PUSH1 0x40 MLOAD DUP1 SWAP2 SUB SWAP1 REVERT JUMPDEST PUSH1 0x0 PUSH1 0x2 PUSH1 0x0 DUP4 DUP2 MSTORE PUSH1 0x20 ADD SWAP1 DUP2 MSTORE PUSH1 0x20 ADD PUSH1 0x0 KECCAK256 SWAP1 POP DUP1 PUSH1 0x7 ADD PUSH1 0x0 SWAP1 SLOAD SWAP1 PUSH2 0x100 EXP SWAP1 DIV PUSH1 0xFF AND PUSH2 0x442 JUMPI PUSH1 0x40 MLOAD PUSH32 0x8C379A000000000000000000000000000000000000000000000000000000000 DUP2 MSTORE PUSH1 0x4 ADD PUSH2 0x439 SWAP1 PUSH2 0x1328 JUMP JUMPDEST PUSH1 0x40 MLOAD DUP1 SWAP2 SUB SWAP1 REVERT JUMPDEST DUP1 PUSH1 0x8 ADD SLOAD TIMESTAMP LT ISZERO PUSH2 0x489 JUMPI PUSH1 0x40 MLOAD PUSH32 0x8C379A000000000000000000000000000000000000000000000000000000000 DUP2 MSTORE PUSH1 0x4 ADD PUSH2 0x480 SWAP1 PUSH2 0x1394 JUMP JUMPDEST PUSH1 0x40 MLOAD DUP1 SWAP2 SUB SWAP1 REVERT JUMPDEST PUSH1 0x0 DUP2 PUSH1 0x7 ADD PUSH1 0x0 PUSH2 0x100 EXP DUP2 SLOAD DUP2 PUSH1 0xFF MUL NOT AND SWAP1 DUP4 ISZERO ISZERO MUL OR SWAP1 SSTORE POP PUSH1 0x0 DUP2 PUSH1 0x6 ADD SLOAD DUP3 PUSH1 0x4 ADD SLOAD GT SWAP1 POP DUP3 PUSH32 0xF95EF50931B734B89E19F38404652CFF9A20ADAF4D2994A190A4CA2C48E8AFED DUP3 DUP5 PUSH1 0x4 ADD SLOAD DUP6 PUSH1 0x6 ADD SLOAD PUSH1 0x40 MLOAD PUSH2 0x4F1 SWAP4 SWAP3 SWAP2 SWAP1 PUSH2 0x13B4 JUMP JUMPDEST PUSH1 0x40 MLOAD DUP1 SWAP2 SUB SWAP1 LOG2 POP POP POP JUMP JUMPDEST PUSH1 0x0 DUP1 SLOAD SWAP1 PUSH2 0x100 EXP SWAP1 DIV PUSH20 0xFFFFFFFFFFFFFFFFFFFFFFFFFFFFFFFFFFFFFFFF AND PUSH20 0xFFFFFFFFFFFFFFFFFFFFFFFFFFFFFFFFFFFFFFFF AND CALLER PUSH20 0xFFFFFFFFFFFFFFFFFFFFFFFFFFFFFFFFFFFFFFFF AND EQ PUSH2 0x58C JUMPI PUSH1 0x40 MLOAD PUSH32 0x8C379A000000000000000000000000000000000000000000000000000000000 DUP2 MSTORE PUSH1 0x4 ADD PUSH2 0x583 SWAP1 PUSH2 0x1250 JUMP JUMPDEST PUSH1 0x40 MLOAD DUP1 SWAP2 SUB SWAP1 REVERT JUMPDEST DUP1 PUSH1 0x4 PUSH1 0x0 DUP5 PUSH20 0xFFFFFFFFFFFFFFFFFFFFFFFFFFFFFFFFFFFFFFFF AND PUSH20 0xFFFFFFFFFFFFFFFFFFFFFFFFFFFFFFFFFFFFFFFF AND DUP2 MSTORE PUSH1 0x20 ADD SWAP1 DUP2 MSTORE PUSH1 0x20 ADD PUSH1 0x0 KECCAK256 DUP2 SWAP1 SSTORE POP POP POP JUMP JUMPDEST PUSH1 0x3 PUSH1 0x20 MSTORE DUP2 PUSH1 0x0 MSTORE PUSH1 0x40 PUSH1 0x0 KECCAK256 PUSH1 0x20 MSTORE DUP1 PUSH1 0x0 MSTORE PUSH1 0x40 PUSH1 0x0 KECCAK256 PUSH1 0x0 SWAP2 POP SWAP2 POP SWAP1 SLOAD SWAP1 PUSH2 0x100 EXP SWAP1 DIV PUSH1 0xFF AND DUP2 JUMP JUMPDEST PUSH1 0x0 TIMESTAMP SWAP1 POP SWAP1 JUMP JUMPDEST PUSH1 0x4 PUSH1 0x20 MSTORE DUP1 PUSH1 0x0 MSTORE PUSH1 0x40 PUSH1 0x0 KECCAK256 PUSH1 0x0 SWAP2 POP SWAP1 POP SLOAD DUP2 JUMP JUMPDEST PUSH1 0x0 DUP1 SLOAD SWAP1 PUSH2 0x100 EXP SWAP1 DIV PUSH20 0xFFFFFFFFFFFFFFFFFFFFFFFFFFFFFFFFFFFFFFFF AND DUP2 JUMP JUMPDEST PUSH1 0x1 SLOAD DUP3 LT PUSH2 0x68B JUMPI PUSH1 0x40 MLOAD PUSH32 0x8C379A000000000000000000000000000000000000000000000000000000000 DUP2 MSTORE PUSH1 0x4 ADD PUSH2 0x682 SWAP1 PUSH2 0x12BC JUMP JUMPDEST PUSH1 0x40 MLOAD DUP1 SWAP2 SUB SWAP1 REVERT JUMPDEST PUSH1 0x0 PUSH1 0x2 PUSH1 0x0 DUP5 DUP2 MSTORE PUSH1 0x20 ADD SWAP1 DUP2 MSTORE PUSH1 0x20 ADD PUSH1 0x0 KECCAK256 SWAP1 POP DUP1 PUSH1 0x7 ADD PUSH1 0x0 SWAP1 SLOAD SWAP1 PUSH2 0x100 EXP SWAP1 DIV PUSH1 0xFF AND PUSH2 0x6F3 JUMPI PUSH1 0x40 MLOAD PUSH32 0x8C379A000000000000000000000000000000000000000000000000000000000 DUP2 MSTORE PUSH1 0x4 ADD PUSH2 0x6EA SWAP1 PUSH2 0x1437 JUMP JUMPDEST PUSH1 0x40 MLOAD DUP1 SWAP2 SUB SWAP1 REVERT JUMPDEST DUP1 PUSH1 0x8 ADD SLOAD TIMESTAMP LT PUSH2 0x739 JUMPI PUSH1 0x40 MLOAD PUSH32 0x8C379A000000000000000000000000000000000000000000000000000000000 DUP2 MSTORE PUSH1 0x4 ADD PUSH2 0x730 SWAP1 PUSH2 0x14A3 JUMP JUMPDEST PUSH1 0x40 MLOAD DUP1 SWAP2 SUB SWAP1 REVERT JUMPDEST PUSH1 0x3 PUSH1 0x0 DUP5 DUP2 MSTORE PUSH1 0x20 ADD SWAP1 DUP2 MSTORE PUSH1 0x20 ADD PUSH1 0x0 KECCAK256 PUSH1 0x0 CALLER PUSH20 0xFFFFFFFFFFFFFFFFFFFFFFFFFFFFFFFFFFFFFFFF AND PUSH20 0xFFFFFFFFFFFFFFFFFFFFFFFFFFFFFFFFFFFFFFFF AND DUP2 MSTORE PUSH1 0x20 ADD SWAP1 DUP2 MSTORE PUSH1 0x20 ADD PUSH1 0x0 KECCAK256 PUSH1 0x0 SWAP1 SLOAD SWAP1 PUSH2 0x100 EXP SWAP1 DIV PUSH1 0xFF AND ISZERO PUSH2 0x7D7 JUMPI PUSH1 0x40 MLOAD PUSH32 0x8C379A000000000000000000000000000000000000000000000000000000000 DUP2 MSTORE PUSH1 0x4 ADD PUSH2 0x7CE SWAP1 PUSH2 0x1535 JUMP JUMPDEST PUSH1 0x40 MLOAD DUP1 SWAP2 SUB SWAP1 REVERT JUMPDEST PUSH1 0x0 PUSH1 0x4 PUSH1 0x0 CALLER PUSH20 0xFFFFFFFFFFFFFFFFFFFFFFFFFFFFFFFFFFFFFFFF AND PUSH20 0xFFFFFFFFFFFFFFFFFFFFFFFFFFFFFFFFFFFFFFFF AND DUP2 MSTORE PUSH1 0x20 ADD SWAP1 DUP2 MSTORE PUSH1 0x20 ADD PUSH1 0x0 KECCAK256 SLOAD SWAP1 POP PUSH1 0x1 DUP2 LT ISZERO PUSH2 0x85F JUMPI PUSH1 0x40 MLOAD PUSH32 0x8C379A000000000000000000000000000000000000000000000000000000000 DUP2 MSTORE PUSH1 0x4 ADD PUSH2 0x856 SWAP1 PUSH2 0x15A1 JUMP JUMPDEST PUSH1 0x40 MLOAD DUP1 SWAP2 SUB SWAP1 REVERT JUMPDEST PUSH1 0x1 PUSH1 0x3 PUSH1 0x0 DUP7 DUP2 MSTORE PUSH1 0x20 ADD SWAP1 DUP2 MSTORE PUSH1 0x20 ADD PUSH1 0x0 KECCAK256 PUSH1 0x0 CALLER PUSH20 0xFFFFFFFFFFFFFFFFFFFFFFFFFFFFFFFFFFFFFFFF AND PUSH20 0xFFFFFFFFFFFFFFFFFFFFFFFFFFFFFFFFFFFFFFFF AND DUP2 MSTORE PUSH1 0x20 ADD SWAP1 DUP2 MSTORE PUSH1 0x20 ADD PUSH1 0x0 KECCAK256 PUSH1 0x0 PUSH2 0x100 EXP DUP2 SLOAD DUP2 PUSH1 0xFF MUL NOT AND SWAP1 DUP4 ISZERO ISZERO MUL OR SWAP1 SSTORE POP DUP3 ISZERO PUSH2 0x902 JUMPI DUP2 PUSH1 0x3 ADD PUSH1 0x0 DUP2 SLOAD DUP1 SWAP3 SWAP2 SWAP1 PUSH1 0x1 ADD SWAP2 SWAP1 POP SSTORE POP DUP1 DUP3 PUSH1 0x4 ADD PUSH1 0x0 DUP3 DUP3 SLOAD PUSH2 0x8F6 SWAP2 SWAP1 PUSH2 0x15F0 JUMP JUMPDEST SWAP3 POP POP DUP2 SWAP1 SSTORE POP PUSH2 0x932 JUMP JUMPDEST DUP2 PUSH1 0x5 ADD PUSH1 0x0 DUP2 SLOAD DUP1 SWAP3 SWAP2 SWAP1 PUSH1 0x1 ADD SWAP2 SWAP1 POP SSTORE POP DUP1 DUP3 PUSH1 0x6 ADD PUSH1 0x0 DUP3 DUP3 SLOAD PUSH2 0x92A SWAP2 SWAP1 PUSH2 0x15F0 JUMP JUMPDEST SWAP3 POP POP DUP2 SWAP1 SSTORE POP JUMPDEST DUP4 CALLER PUSH20 0xFFFFFFFFFFFFFFFFFFFFFFFFFFFFFFFFFFFFFFFF AND PUSH32 0x65F8C50A40AE46ED6B244BA59B93D321216C9638F156760E7F851C2536A3ADD2 DUP6 DUP5 PUSH1 0x40 MLOAD PUSH2 0x97B SWAP3 SWAP2 SWAP1 PUSH2 0x1624 JUMP JUMPDEST PUSH1 0x40 MLOAD DUP1 SWAP2 SUB SWAP1 LOG3 POP POP POP POP JUMP JUMPDEST PUSH1 0x1 SLOAD DUP2 JUMP JUMPDEST PUSH1 0x0 DUP1 SLOAD SWAP1 PUSH2 0x100 EXP SWAP1 DIV PUSH20 0xFFFFFFFFFFFFFFFFFFFFFFFFFFFFFFFFFFFFFFFF AND PUSH20 0xFFFFFFFFFFFFFFFFFFFFFFFFFFFFFFFFFFFFFFFF AND CALLER PUSH20 0xFFFFFFFFFFFFFFFFFFFFFFFFFFFFFFFFFFFFFFFF AND EQ PUSH2 0xA1D JUMPI PUSH1 0x40 MLOAD PUSH32 0x8C379A000000000000000000000000000000000000000000000000000000000 DUP2 MSTORE PUSH1 0x4 ADD PUSH2 0xA14 SWAP1 PUSH2 0x1250 JUMP JUMPDEST PUSH1 0x40 MLOAD DUP1 SWAP2 SUB SWAP1 REVERT JUMPDEST PUSH1 0x0 DUP3 MLOAD GT PUSH2 0xA61 JUMPI PUSH1 0x40 MLOAD PUSH32 0x8C379A000000000000000000000000000000000000000000000000000000000 DUP2 MSTORE PUSH1 0x4 ADD PUSH2 0xA58 SWAP1 PUSH2 0x1699 JUMP JUMPDEST PUSH1 0x40 MLOAD DUP1 SWAP2 SUB SWAP1 REVERT JUMPDEST PUSH1 0x0 DUP2 GT PUSH2 0xAA4 JUMPI PUSH1 0x40 MLOAD PUSH32 0x8C379A000000000000000000000000000000000000000000000000000000000 DUP2 MSTORE PUSH1 0x4 ADD PUSH2 0xA9B SWAP1 PUSH2 0x1705 JUMP JUMPDEST PUSH1 0x40 MLOAD DUP1 SWAP2 SUB SWAP1 REVERT JUMPDEST PUSH1 0x0 PUSH1 0x1 PUSH1 0x0 DUP2 SLOAD DUP1 SWAP3 SWAP2 SWAP1 PUSH2 0xAB9 SWAP1 PUSH2 0x1725 JUMP JUMPDEST SWAP2 SWAP1 POP SSTORE SWAP1 POP PUSH1 0x40 MLOAD DUP1 PUSH2 0x120 ADD PUSH1 0x40 MSTORE DUP1 DUP3 DUP2 MSTORE PUSH1 0x20 ADD DUP6 PUSH20 0xFFFFFFFFFFFFFFFFFFFFFFFFFFFFFFFFFFFFFFFF AND DUP2 MSTORE PUSH1 0x20 ADD DUP5 DUP2 MSTORE PUSH1 0x20 ADD PUSH1 0x0 DUP2 MSTORE PUSH1 0x20 ADD PUSH1 0x0 DUP2 MSTORE PUSH1 0x20 ADD PUSH1 0x0 DUP2 MSTORE PUSH1 0x20 ADD PUSH1 0x0 DUP2 MSTORE PUSH1 0x20 ADD PUSH1 0x1 ISZERO ISZERO DUP2 MSTORE PUSH1 0x20 ADD DUP4 TIMESTAMP PUSH2 0xB24 SWAP2 SWAP1 PUSH2 0x15F0 JUMP JUMPDEST DUP2 MSTORE POP PUSH1 0x2 PUSH1 0x0 DUP4 DUP2 MSTORE PUSH1 0x20 ADD SWAP1 DUP2 MSTORE PUSH1 0x20 ADD PUSH1 0x0 KECCAK256 PUSH1 0x0 DUP3 ADD MLOAD DUP2 PUSH1 0x0 ADD SSTORE PUSH1 0x20 DUP3 ADD MLOAD DUP2 PUSH1 0x1 ADD PUSH1 0x0 PUSH2 0x100 EXP DUP2 SLOAD DUP2 PUSH20 0xFFFFFFFFFFFFFFFFFFFFFFFFFFFFFFFFFFFFFFFF MUL NOT AND SWAP1 DUP4 PUSH20 0xFFFFFFFFFFFFFFFFFFFFFFFFFFFFFFFFFFFFFFFF AND MUL OR SWAP1 SSTORE POP PUSH1 0x40 DUP3 ADD MLOAD DUP2 PUSH1 0x2 ADD SWAP1 DUP2 PUSH2 0xBA0 SWAP2 SWAP1 PUSH2 0x1919 JUMP JUMPDEST POP PUSH1 0x60 DUP3 ADD MLOAD DUP2 PUSH1 0x3 ADD SSTORE PUSH1 0x80 DUP3 ADD MLOAD DUP2 PUSH1 0x4 ADD SSTORE PUSH1 0xA0 DUP3 ADD MLOAD DUP2 PUSH1 0x5 ADD SSTORE PUSH1 0xC0 DUP3 ADD MLOAD DUP2 PUSH1 0x6 ADD SSTORE PUSH1 0xE0 DUP3 ADD MLOAD DUP2 PUSH1 0x7 ADD PUSH1 0x0 PUSH2 0x100 EXP DUP2 SLOAD DUP2 PUSH1 0xFF MUL NOT AND SWAP1 DUP4 ISZERO ISZERO MUL OR SWAP1 SSTORE POP PUSH2 0x100 DUP3 ADD MLOAD DUP2 PUSH1 0x8 ADD SSTORE SWAP1 POP POP DUP4 PUSH20 0xFFFFFFFFFFFFFFFFFFFFFFFFFFFFFFFFFFFFFFFF AND DUP2 PUSH32 0x6838DB3C5996FEC3DE968E640E7DD8000ADD88D4B31235FA327D85CDB8FFCE5C DUP6 PUSH1 0x2 PUSH1 0x0 DUP7 DUP2 MSTORE PUSH1 0x20 ADD SWAP1 DUP2 MSTORE PUSH1 0x20 ADD PUSH1 0x0 KECCAK256 PUSH1 0x8 ADD SLOAD PUSH1 0x40 MLOAD PUSH2 0xC56 SWAP3 SWAP2 SWAP1 PUSH2 0x19EB JUMP JUMPDEST PUSH1 0x40 MLOAD DUP1 SWAP2 SUB SWAP1 LOG3 POP POP POP POP JUMP JUMPDEST PUSH1 0x0 PUSH1 0x40 MLOAD SWAP1 POP SWAP1 JUMP JUMPDEST PUSH1 0x0 DUP1 REVERT JUMPDEST PUSH1 0x0 DUP1 REVERT JUMPDEST PUSH1 0x0 DUP2 SWAP1 POP SWAP2 SWAP1 POP JUMP JUMPDEST PUSH2 0xC8B DUP2 PUSH2 0xC78 JUMP JUMPDEST DUP2 EQ PUSH2 0xC96 JUMPI PUSH1 0x0 DUP1 REVERT JUMPDEST POP JUMP JUMPDEST PUSH1 0x0 DUP2 CALLDATALOAD SWAP1 POP PUSH2 0xCA8 DUP2 PUSH2 0xC82 JUMP JUMPDEST SWAP3 SWAP2 POP POP JUMP JUMPDEST PUSH1 0x0 PUSH1 0x20 DUP3 DUP5 SUB SLT ISZERO PUSH2 0xCC4 JUMPI PUSH2 0xCC3 PUSH2 0xC6E JUMP JUMPDEST JUMPDEST PUSH1 0x0 PUSH2 0xCD2 DUP5 DUP3 DUP6 ADD PUSH2 0xC99 JUMP JUMPDEST SWAP2 POP POP SWAP3 SWAP2 POP POP JUMP JUMPDEST PUSH2 0xCE4 DUP2 PUSH2 0xC78 JUMP JUMPDEST DUP3 MSTORE POP POP JUMP JUMPDEST PUSH1 0x0 PUSH20 0xFFFFFFFFFFFFFFFFFFFFFFFFFFFFFFFFFFFFFFFF DUP3 AND SWAP1 POP SWAP2 SWAP1 POP JUMP JUMPDEST PUSH1 0x0 PUSH2 0xD15 DUP3 PUSH2 0xCEA JUMP JUMPDEST SWAP1 POP SWAP2 SWAP1 POP JUMP JUMPDEST PUSH2 0xD25 DUP2 PUSH2 0xD0A JUMP JUMPDEST DUP3 MSTORE POP POP JUMP JUMPDEST PUSH1 0x0 DUP2 MLOAD SWAP1 POP SWAP2 SWAP1 POP JUMP JUMPDEST PUSH1 0x0 DUP3 DUP3 MSTORE PUSH1 0x20 DUP3 ADD SWAP1 POP SWAP3 SWAP2 POP POP JUMP JUMPDEST PUSH1 0x0 JUMPDEST DUP4 DUP2 LT ISZERO PUSH2 0xD65 JUMPI DUP1 DUP3 ADD MLOAD DUP2 DUP5 ADD MSTORE PUSH1 0x20 DUP2 ADD SWAP1 POP PUSH2 0xD4A JUMP JUMPDEST PUSH1 0x0 DUP5 DUP5 ADD MSTORE POP POP POP POP JUMP JUMPDEST PUSH1 0x0 PUSH1 0x1F NOT PUSH1 0x1F DUP4 ADD AND SWAP1 POP SWAP2 SWAP1 POP JUMP JUMPDEST PUSH1 0x0 PUSH2 0xD8D DUP3 PUSH2 0xD2B JUMP JUMPDEST PUSH2 0xD97 DUP2 DUP6 PUSH2 0xD36 JUMP JUMPDEST SWAP4 POP PUSH2 0xDA7 DUP2 DUP6 PUSH1 0x20 DUP7 ADD PUSH2 0xD47 JUMP JUMPDEST PUSH2 0xDB0 DUP2 PUSH2 0xD71 JUMP JUMPDEST DUP5 ADD SWAP2 POP POP SWAP3 SWAP2 POP POP JUMP JUMPDEST PUSH1 0x0 DUP2 ISZERO ISZERO SWAP1 POP SWAP2 SWAP1 POP JUMP JUMPDEST PUSH2 0xDD0 DUP2 PUSH2 0xDBB JUMP JUMPDEST DUP3 MSTORE POP POP JUMP JUMPDEST PUSH1 0x0 PUSH2 0x120 DUP3 ADD SWAP1 POP PUSH2 0xDEC PUSH1 0x0 DUP4 ADD DUP13 PUSH2 0xCDB JUMP JUMPDEST PUSH2 0xDF9 PUSH1 0x20 DUP4 ADD DUP12 PUSH2 0xD1C JUMP JUMPDEST DUP2 DUP2 SUB PUSH1 0x40 DUP4 ADD MSTORE PUSH2 0xE0B DUP2 DUP11 PUSH2 0xD82 JUMP JUMPDEST SWAP1 POP PUSH2 0xE1A PUSH1 0x60 DUP4 ADD DUP10 PUSH2 0xCDB JUMP JUMPDEST PUSH2 0xE27 PUSH1 0x80 DUP4 ADD DUP9 PUSH2 0xCDB JUMP JUMPDEST PUSH2 0xE34 PUSH1 0xA0 DUP4 ADD DUP8 PUSH2 0xCDB JUMP JUMPDEST PUSH2 0xE41 PUSH1 0xC0 DUP4 ADD DUP7 PUSH2 0xCDB JUMP JUMPDEST PUSH2 0xE4E PUSH1 0xE0 DUP4 ADD DUP6 PUSH2 0xDC7 JUMP JUMPDEST PUSH2 0xE5C PUSH2 0x100 DUP4 ADD DUP5 PUSH2 0xCDB JUMP JUMPDEST SWAP11 SWAP10 POP POP POP POP POP POP POP POP POP POP JUMP JUMPDEST PUSH2 0xE73 DUP2 PUSH2 0xD0A JUMP JUMPDEST DUP2 EQ PUSH2 0xE7E JUMPI PUSH1 0x0 DUP1 REVERT JUMPDEST POP JUMP JUMPDEST PUSH1 0x0 DUP2 CALLDATALOAD SWAP1 POP PUSH2 0xE90 DUP2 PUSH2 0xE6A JUMP JUMPDEST SWAP3 SWAP2 POP POP JUMP JUMPDEST PUSH1 0x0 DUP1 PUSH1 0x40 DUP4 DUP6 SUB SLT ISZERO PUSH2 0xEAD JUMPI PUSH2 0xEAC PUSH2 0xC6E JUMP JUMPDEST JUMPDEST PUSH1 0x0 PUSH2 0xEBB DUP6 DUP3 DUP7 ADD PUSH2 0xE81 JUMP JUMPDEST SWAP3 POP POP PUSH1 0x20 PUSH2 0xECC DUP6 DUP3 DUP7 ADD PUSH2 0xC99 JUMP JUMPDEST SWAP2 POP POP SWAP3 POP SWAP3 SWAP1 POP JUMP JUMPDEST PUSH1 0x0 DUP1 PUSH1 0x40 DUP4 DUP6 SUB SLT ISZERO PUSH2 0xEED JUMPI PUSH2 0xEEC PUSH2 0xC6E JUMP JUMPDEST JUMPDEST PUSH1 0x0 PUSH2 0xEFB DUP6 DUP3 DUP7 ADD PUSH2 0xC99 JUMP JUMPDEST SWAP3 POP POP PUSH1 0x20 PUSH2 0xF0C DUP6 DUP3 DUP7 ADD PUSH2 0xE81 JUMP JUMPDEST SWAP2 POP POP SWAP3 POP SWAP3 SWAP1 POP JUMP JUMPDEST PUSH1 0x0 PUSH1 0x20 DUP3 ADD SWAP1 POP PUSH2 0xF2B PUSH1 0x0 DUP4 ADD DUP5 PUSH2 0xDC7 JUMP JUMPDEST SWAP3 SWAP2 POP POP JUMP JUMPDEST PUSH1 0x0 PUSH1 0x20 DUP3 ADD SWAP1 POP PUSH2 0xF46 PUSH1 0x0 DUP4 ADD DUP5 PUSH2 0xCDB JUMP JUMPDEST SWAP3 SWAP2 POP POP JUMP JUMPDEST PUSH1 0x0 PUSH1 0x20 DUP3 DUP5 SUB SLT ISZERO PUSH2 0xF62 JUMPI PUSH2 0xF61 PUSH2 0xC6E JUMP JUMPDEST JUMPDEST PUSH1 0x0 PUSH2 0xF70 DUP5 DUP3 DUP6 ADD PUSH2 0xE81 JUMP JUMPDEST SWAP2 POP POP SWAP3 SWAP2 POP POP JUMP JUMPDEST PUSH1 0x0 PUSH1 0x20 DUP3 ADD SWAP1 POP PUSH2 0xF8E PUSH1 0x0 DUP4 ADD DUP5 PUSH2 0xD1C JUMP JUMPDEST SWAP3 SWAP2 POP POP JUMP JUMPDEST PUSH2 0xF9D DUP2 PUSH2 0xDBB JUMP JUMPDEST DUP2 EQ PUSH2 0xFA8 JUMPI PUSH1 0x0 DUP1 REVERT JUMPDEST POP JUMP JUMPDEST PUSH1 0x0 DUP2 CALLDATALOAD SWAP1 POP PUSH2 0xFBA DUP2 PUSH2 0xF94 JUMP JUMPDEST SWAP3 SWAP2 POP POP JUMP JUMPDEST PUSH1 0x0 DUP1 PUSH1 0x40 DUP4 DUP6 SUB SLT ISZERO PUSH2 0xFD7 JUMPI PUSH2 0xFD6 PUSH2 0xC6E JUMP JUMPDEST JUMPDEST PUSH1 0x0 PUSH2 0xFE5 DUP6 DUP3 DUP7 ADD PUSH2 0xC99 JUMP JUMPDEST SWAP3 POP POP PUSH1 0x20 PUSH2 0xFF6 DUP6 DUP3 DUP7 ADD PUSH2 0xFAB JUMP JUMPDEST SWAP2 POP POP SWAP3 POP SWAP3 SWAP1 POP JUMP JUMPDEST PUSH1 0x0 DUP1 REVERT JUMPDEST PUSH1 0x0 DUP1 REVERT JUMPDEST PUSH32 0x4E487B7100000000000000000000000000000000000000000000000000000000 PUSH1 0x0 MSTORE PUSH1 0x41 PUSH1 0x4 MSTORE PUSH1 0x24 PUSH1 0x0 REVERT JUMPDEST PUSH2 0x1042 DUP3 PUSH2 0xD71 JUMP JUMPDEST DUP2 ADD DUP2 DUP2 LT PUSH8 0xFFFFFFFFFFFFFFFF DUP3 GT OR ISZERO PUSH2 0x1061 JUMPI PUSH2 0x1060 PUSH2 0x100A JUMP JUMPDEST JUMPDEST DUP1 PUSH1 0x40 MSTORE POP POP POP JUMP JUMPDEST PUSH1 0x0 PUSH2 0x1074 PUSH2 0xC64 JUMP JUMPDEST SWAP1 POP PUSH2 0x1080 DUP3 DUP3 PUSH2 0x1039 JUMP JUMPDEST SWAP2 SWAP1 POP JUMP JUMPDEST PUSH1 0x0 PUSH8 0xFFFFFFFFFFFFFFFF DUP3 GT ISZERO PUSH2 0x10A0 JUMPI PUSH2 0x109F PUSH2 0x100A JUMP JUMPDEST JUMPDEST PUSH2 0x10A9 DUP3 PUSH2 0xD71 JUMP JUMPDEST SWAP1 POP PUSH1 0x20 DUP2 ADD SWAP1 POP SWAP2 SWAP1 POP JUMP JUMPDEST DUP3 DUP2 DUP4 CALLDATACOPY PUSH1 0x0 DUP4 DUP4 ADD MSTORE POP POP POP JUMP JUMPDEST PUSH1 0x0 PUSH2 0x10D8 PUSH2 0x10D3 DUP5 PUSH2 0x1085 JUMP JUMPDEST PUSH2 0x106A JUMP JUMPDEST SWAP1 POP DUP3 DUP2 MSTORE PUSH1 0x20 DUP2 ADD DUP5 DUP5 DUP5 ADD GT ISZERO PUSH2 0x10F4 JUMPI PUSH2 0x10F3 PUSH2 0x1005 JUMP JUMPDEST JUMPDEST PUSH2 0x10FF DUP5 DUP3 DUP6 PUSH2 0x10B6 JUMP JUMPDEST POP SWAP4 SWAP3 POP POP POP JUMP JUMPDEST PUSH1 0x0 DUP3 PUSH1 0x1F DUP4 ADD SLT PUSH2 0x111C JUMPI PUSH2 0x111B PUSH2 0x1000 JUMP JUMPDEST JUMPDEST DUP2 CALLDATALOAD PUSH2 0x112C DUP5 DUP3 PUSH1 0x20 DUP7 ADD PUSH2 0x10C5 JUMP JUMPDEST SWAP2 POP POP SWAP3 SWAP2 POP POP JUMP JUMPDEST PUSH1 0x0 DUP1 PUSH1 0x0 PUSH1 0x60 DUP5 DUP7 SUB SLT ISZERO PUSH2 0x114E JUMPI PUSH2 0x114D PUSH2 0xC6E JUMP JUMPDEST JUMPDEST PUSH1 0x0 PUSH2 0x115C DUP7 DUP3 DUP8 ADD PUSH2 0xE81 JUMP JUMPDEST SWAP4 POP POP PUSH1 0x20 DUP5 ADD CALLDATALOAD PUSH8 0xFFFFFFFFFFFFFFFF DUP2 GT ISZERO PUSH2 0x117D JUMPI PUSH2 0x117C PUSH2 0xC73 JUMP JUMPDEST JUMPDEST PUSH2 0x1189 DUP7 DUP3 DUP8 ADD PUSH2 0x1107 JUMP JUMPDEST SWAP3 POP POP PUSH1 0x40 PUSH2 0x119A DUP7 DUP3 DUP8 ADD PUSH2 0xC99 JUMP JUMPDEST SWAP2 POP POP SWAP3 POP SWAP3 POP SWAP3 JUMP JUMPDEST PUSH32 0x4E487B7100000000000000000000000000000000000000000000000000000000 PUSH1 0x0 MSTORE PUSH1 0x22 PUSH1 0x4 MSTORE PUSH1 0x24 PUSH1 0x0 REVERT JUMPDEST PUSH1 0x0 PUSH1 0x2 DUP3 DIV SWAP1 POP PUSH1 0x1 DUP3 AND DUP1 PUSH2 0x11EB JUMPI PUSH1 0x7F DUP3 AND SWAP2 POP JUMPDEST PUSH1 0x20 DUP3 LT DUP2 SUB PUSH2 0x11FE JUMPI PUSH2 0x11FD PUSH2 0x11A4 JUMP JUMPDEST JUMPDEST POP SWAP2 SWAP1 POP JUMP JUMPDEST PUSH32 0x6E6F74206F776E65720000000000000000000000000000000000000000000000 PUSH1 0x0 DUP3 ADD MSTORE POP JUMP JUMPDEST PUSH1 0x0 PUSH2 0x123A PUSH1 0x9 DUP4 PUSH2 0xD36 JUMP JUMPDEST SWAP2 POP PUSH2 0x1245 DUP3 PUSH2 0x1204 JUMP JUMPDEST PUSH1 0x20 DUP3 ADD SWAP1 POP SWAP2 SWAP1 POP JUMP JUMPDEST PUSH1 0x0 PUSH1 0x20 DUP3 ADD SWAP1 POP DUP2 DUP2 SUB PUSH1 0x0 DUP4 ADD MSTORE PUSH2 0x1269 DUP2 PUSH2 0x122D JUMP JUMPDEST SWAP1 POP SWAP2 SWAP1 POP JUMP JUMPDEST PUSH32 0x696E76616C69642070726F706F73616C00000000000000000000000000000000 PUSH1 0x0 DUP3 ADD MSTORE POP JUMP JUMPDEST PUSH1 0x0 PUSH2 0x12A6 PUSH1 0x10 DUP4 PUSH2 0xD36 JUMP JUMPDEST SWAP2 POP PUSH2 0x12B1 DUP3 PUSH2 0x1270 JUMP JUMPDEST PUSH1 0x20 DUP3 ADD SWAP1 POP SWAP2 SWAP1 POP JUMP JUMPDEST PUSH1 0x0 PUSH1 0x20 DUP3 ADD SWAP1 POP DUP2 DUP2 SUB PUSH1 0x0 DUP4 ADD MSTORE PUSH2 0x12D5 DUP2 PUSH2 0x1299 JUMP JUMPDEST SWAP1 POP SWAP2 SWAP1 POP JUMP JUMPDEST PUSH32 0x416C726561647920636C6F736564000000000000000000000000000000000000 PUSH1 0x0 DUP3 ADD MSTORE POP JUMP JUMPDEST PUSH1 0x0 PUSH2 0x1312 PUSH1 0xE DUP4 PUSH2 0xD36 JUMP JUMPDEST SWAP2 POP PUSH2 0x131D DUP3 PUSH2 0x12DC JUMP JUMPDEST PUSH1 0x20 DUP3 ADD SWAP1 POP SWAP2 SWAP1 POP JUMP JUMPDEST PUSH1 0x0 PUSH1 0x20 DUP3 ADD SWAP1 POP DUP2 DUP2 SUB PUSH1 0x0 DUP4 ADD MSTORE PUSH2 0x1341 DUP2 PUSH2 0x1305 JUMP JUMPDEST SWAP1 POP SWAP2 SWAP1 POP JUMP JUMPDEST PUSH32 0x5374696C6C206163746976650000000000000000000000000000000000000000 PUSH1 0x0 DUP3 ADD MSTORE POP JUMP JUMPDEST PUSH1 0x0 PUSH2 0x137E PUSH1 0xC DUP4 PUSH2 0xD36 JUMP JUMPDEST SWAP2 POP PUSH2 0x1389 DUP3 PUSH2 0x1348 JUMP JUMPDEST PUSH1 0x20 DUP3 ADD SWAP1 POP SWAP2 SWAP1 POP JUMP JUMPDEST PUSH1 0x0 PUSH1 0x20 DUP3 ADD SWAP1 POP DUP2 DUP2 SUB PUSH1 0x0 DUP4 ADD MSTORE PUSH2 0x13AD DUP2 PUSH2 0x1371 JUMP JUMPDEST SWAP1 POP SWAP2 SWAP1 POP JUMP JUMPDEST PUSH1 0x0 PUSH1 0x60 DUP3 ADD SWAP1 POP PUSH2 0x13C9 PUSH1 0x0 DUP4 ADD DUP7 PUSH2 0xDC7 JUMP JUMPDEST PUSH2 0x13D6 PUSH1 0x20 DUP4 ADD DUP6 PUSH2 0xCDB JUMP JUMPDEST PUSH2 0x13E3 PUSH1 0x40 DUP4 ADD DUP5 PUSH2 0xCDB JUMP JUMPDEST SWAP5 SWAP4 POP POP POP POP JUMP JUMPDEST PUSH32 0x50726F706F73616C206973206E6F742061637469766500000000000000000000 PUSH1 0x0 DUP3 ADD MSTORE POP JUMP JUMPDEST PUSH1 0x0 PUSH2 0x1421 PUSH1 0x16 DUP4 PUSH2 0xD36 JUMP JUMPDEST SWAP2 POP PUSH2 0x142C DUP3 PUSH2 0x13EB JUMP JUMPDEST PUSH1 0x20 DUP3 ADD SWAP1 POP SWAP2 SWAP1 POP JUMP JUMPDEST PUSH1 0x0 PUSH1 0x20 DUP3 ADD SWAP1 POP DUP2 DUP2 SUB PUSH1 0x0 DUP4 ADD MSTORE PUSH2 0x1450 DUP2 PUSH2 0x1414 JUMP JUMPDEST SWAP1 POP SWAP2 SWAP1 POP JUMP JUMPDEST PUSH32 0x50726F706F73616C206861732065787069726564000000000000000000000000 PUSH1 0x0 DUP3 ADD MSTORE POP JUMP JUMPDEST PUSH1 0x0 PUSH2 0x148D PUSH1 0x14 DUP4 PUSH2 0xD36 JUMP JUMPDEST SWAP2 POP PUSH2 0x1498 DUP3 PUSH2 0x1457 JUMP JUMPDEST PUSH1 0x20 DUP3 ADD SWAP1 POP SWAP2 SWAP1 POP JUMP JUMPDEST PUSH1 0x0 PUSH1 0x20 DUP3 ADD SWAP1 POP DUP2 DUP2 SUB PUSH1 0x0 DUP4 ADD MSTORE PUSH2 0x14BC DUP2 PUSH2 0x1480 JUMP JUMPDEST SWAP1 POP SWAP2 SWAP1 POP JUMP JUMPDEST PUSH32 0x596F75206861766520616C726561647920766F746564206F6E20746869732070 PUSH1 0x0 DUP3 ADD MSTORE PUSH32 0x726F706F73616C00000000000000000000000000000000000000000000000000 PUSH1 0x20 DUP3 ADD MSTORE POP JUMP JUMPDEST PUSH1 0x0 PUSH2 0x151F PUSH1 0x27 DUP4 PUSH2 0xD36 JUMP JUMPDEST SWAP2 POP PUSH2 0x152A DUP3 PUSH2 0x14C3 JUMP JUMPDEST PUSH1 0x40 DUP3 ADD SWAP1 POP SWAP2 SWAP1 POP JUMP JUMPDEST PUSH1 0x0 PUSH1 0x20 DUP3 ADD SWAP1 POP DUP2 DUP2 SUB PUSH1 0x0 DUP4 ADD MSTORE PUSH2 0x154E DUP2 PUSH2 0x1512 JUMP JUMPDEST SWAP1 POP SWAP2 SWAP1 POP JUMP JUMPDEST PUSH32 0x596F752068617665206E6F742077656967687420746F20766F74650000000000 PUSH1 0x0 DUP3 ADD MSTORE POP JUMP JUMPDEST PUSH1 0x0 PUSH2 0x158B PUSH1 0x1B DUP4 PUSH2 0xD36 JUMP JUMPDEST SWAP2 POP PUSH2 0x1596 DUP3 PUSH2 0x1555 JUMP JUMPDEST PUSH1 0x20 DUP3 ADD SWAP1 POP SWAP2 SWAP1 POP JUMP JUMPDEST PUSH1 0x0 PUSH1 0x20 DUP3 ADD SWAP1 POP DUP2 DUP2 SUB PUSH1 0x0 DUP4 ADD MSTORE PUSH2 0x15BA DUP2 PUSH2 0x157E JUMP JUMPDEST SWAP1 POP SWAP2 SWAP1 POP JUMP JUMPDEST PUSH32 0x4E487B7100000000000000000000000000000000000000000000000000000000 PUSH1 0x0 MSTORE PUSH1 0x11 PUSH1 0x4 MSTORE PUSH1 0x24 PUSH1 0x0 REVERT JUMPDEST PUSH1 0x0 PUSH2 0x15FB DUP3 PUSH2 0xC78 JUMP JUMPDEST SWAP2 POP PUSH2 0x1606 DUP4 PUSH2 0xC78 JUMP JUMPDEST SWAP3 POP DUP3 DUP3 ADD SWAP1 POP DUP1 DUP3 GT ISZERO PUSH2 0x161E JUMPI PUSH2 0x161D PUSH2 0x15C1 JUMP JUMPDEST JUMPDEST SWAP3 SWAP2 POP POP JUMP JUMPDEST PUSH1 0x0 PUSH1 0x40 DUP3 ADD SWAP1 POP PUSH2 0x1639 PUSH1 0x0 DUP4 ADD DUP6 PUSH2 0xDC7 JUMP JUMPDEST PUSH2 0x1646 PUSH1 0x20 DUP4 ADD DUP5 PUSH2 0xCDB JUMP JUMPDEST SWAP4 SWAP3 POP POP POP JUMP JUMPDEST PUSH32 0x656D707479206465736372697074696F6E000000000000000000000000000000 PUSH1 0x0 DUP3 ADD MSTORE POP JUMP JUMPDEST PUSH1 0x0 PUSH2 0x1683 PUSH1 0x11 DUP4 PUSH2 0xD36 JUMP JUMPDEST SWAP2 POP PUSH2 0x168E DUP3 PUSH2 0x164D JUMP JUMPDEST PUSH1 0x20 DUP3 ADD SWAP1 POP SWAP2 SWAP1 POP JUMP JUMPDEST PUSH1 0x0 PUSH1 0x20 DUP3 ADD SWAP1 POP DUP2 DUP2 SUB PUSH1 0x0 DUP4 ADD MSTORE PUSH2 0x16B2 DUP2 PUSH2 0x1676 JUMP JUMPDEST SWAP1 POP SWAP2 SWAP1 POP JUMP JUMPDEST PUSH32 0x626164206475726174696F6E0000000000000000000000000000000000000000 PUSH1 0x0 DUP3 ADD MSTORE POP JUMP JUMPDEST PUSH1 0x0 PUSH2 0x16EF PUSH1 0xC DUP4 PUSH2 0xD36 JUMP JUMPDEST SWAP2 POP PUSH2 0x16FA DUP3 PUSH2 0x16B9 JUMP JUMPDEST PUSH1 0x20 DUP3 ADD SWAP1 POP SWAP2 SWAP1 POP JUMP JUMPDEST PUSH1 0x0 PUSH1 0x20 DUP3 ADD SWAP1 POP DUP2 DUP2 SUB PUSH1 0x0 DUP4 ADD MSTORE PUSH2 0x171E DUP2 PUSH2 0x16E2 JUMP JUMPDEST SWAP1 POP SWAP2 SWAP1 POP JUMP JUMPDEST PUSH1 0x0 PUSH2 0x1730 DUP3 PUSH2 0xC78 JUMP JUMPDEST SWAP2 POP PUSH32 0xFFFFFFFFFFFFFFFFFFFFFFFFFFFFFFFFFFFFFFFFFFFFFFFFFFFFFFFFFFFFFFFF DUP3 SUB PUSH2 0x1762 JUMPI PUSH2 0x1761 PUSH2 0x15C1 JUMP JUMPDEST JUMPDEST PUSH1 0x1 DUP3 ADD SWAP1 POP SWAP2 SWAP1 POP JUMP JUMPDEST PUSH1 0x0 DUP2 SWAP1 POP DUP2 PUSH1 0x0 MSTORE PUSH1 0x20 PUSH1 0x0 KECCAK256 SWAP1 POP SWAP2 SWAP1 POP JUMP JUMPDEST PUSH1 0x0 PUSH1 0x20 PUSH1 0x1F DUP4 ADD DIV SWAP1 POP SWAP2 SWAP1 POP JUMP JUMPDEST PUSH1 0x0 DUP3 DUP3 SHL SWAP1 POP SWAP3 SWAP2 POP POP JUMP JUMPDEST PUSH1 0x0 PUSH1 0x8 DUP4 MUL PUSH2 0x17CF PUSH32 0xFFFFFFFFFFFFFFFFFFFFFFFFFFFFFFFFFFFFFFFFFFFFFFFFFFFFFFFFFFFFFFFF DUP3 PUSH2 0x1792 JUMP JUMPDEST PUSH2 0x17D9 DUP7 DUP4 PUSH2 0x1792 JUMP JUMPDEST SWAP6 POP DUP1 NOT DUP5 AND SWAP4 POP DUP1 DUP7 AND DUP5 OR SWAP3 POP POP POP SWAP4 SWAP3 POP POP POP JUMP JUMPDEST PUSH1 0x0 DUP2 SWAP1 POP SWAP2 SWAP1 POP JUMP JUMPDEST PUSH1 0x0 PUSH2 0x1816 PUSH2 0x1811 PUSH2 0x180C DUP5 PUSH2 0xC78 JUMP JUMPDEST PUSH2 0x17F1 JUMP JUMPDEST PUSH2 0xC78 JUMP JUMPDEST SWAP1 POP SWAP2 SWAP1 POP JUMP JUMPDEST PUSH1 0x0 DUP2 SWAP1 POP SWAP2 SWAP1 POP JUMP JUMPDEST PUSH2 0x1830 DUP4 PUSH2 0x17FB JUMP JUMPDEST PUSH2 0x1844 PUSH2 0x183C DUP3 PUSH2 0x181D JUMP JUMPDEST DUP5 DUP5 SLOAD PUSH2 0x179F JUMP JUMPDEST DUP3 SSTORE POP POP POP POP JUMP JUMPDEST PUSH1 0x0 SWAP1 JUMP JUMPDEST PUSH2 0x1859 PUSH2 0x184C JUMP JUMPDEST PUSH2 0x1864 DUP2 DUP5 DUP5 PUSH2 0x1827 JUMP JUMPDEST POP POP POP JUMP JUMPDEST JUMPDEST DUP2 DUP2 LT ISZERO PUSH2 0x1888 JUMPI PUSH2 0x187D PUSH1 0x0 DUP3 PUSH2 0x1851 JUMP JUMPDEST PUSH1 0x1 DUP2 ADD SWAP1 POP PUSH2 0x186A JUMP JUMPDEST POP POP JUMP JUMPDEST PUSH1 0x1F DUP3 GT ISZERO PUSH2 0x18CD JUMPI PUSH2 0x189E DUP2 PUSH2 0x176D JUMP JUMPDEST PUSH2 0x18A7 DUP5 PUSH2 0x1782 JUMP JUMPDEST DUP2 ADD PUSH1 0x20 DUP6 LT ISZERO PUSH2 0x18B6 JUMPI DUP2 SWAP1 POP JUMPDEST PUSH2 0x18CA PUSH2 0x18C2 DUP6 PUSH2 0x1782 JUMP JUMPDEST DUP4 ADD DUP3 PUSH2 0x1869 JUMP JUMPDEST POP POP JUMPDEST POP POP POP JUMP JUMPDEST PUSH1 0x0 DUP3 DUP3 SHR SWAP1 POP SWAP3 SWAP2 POP POP JUMP JUMPDEST PUSH1 0x0 PUSH2 0x18F0 PUSH1 0x0 NOT DUP5 PUSH1 0x8 MUL PUSH2 0x18D2 JUMP JUMPDEST NOT DUP1 DUP4 AND SWAP2 POP POP SWAP3 SWAP2 POP POP JUMP JUMPDEST PUSH1 0x0 PUSH2 0x1909 DUP4 DUP4 PUSH2 0x18DF JUMP JUMPDEST SWAP2 POP DUP3 PUSH1 0x2 MUL DUP3 OR SWAP1 POP SWAP3 SWAP2 POP POP JUMP JUMPDEST PUSH2 0x1922 DUP3 PUSH2 0xD2B JUMP JUMPDEST PUSH8 0xFFFFFFFFFFFFFFFF DUP2 GT ISZERO PUSH2 0x193B JUMPI PUSH2 0x193A PUSH2 0x100A JUMP JUMPDEST JUMPDEST PUSH2 0x1945 DUP3 SLOAD PUSH2 0x11D3 JUMP JUMPDEST PUSH2 0x1950 DUP3 DUP3 DUP6 PUSH2 0x188C JUMP JUMPDEST PUSH1 0x0 PUSH1 0x20 SWAP1 POP PUSH1 0x1F DUP4 GT PUSH1 0x1 DUP2 EQ PUSH2 0x1983 JUMPI PUSH1 0x0 DUP5 ISZERO PUSH2 0x1971 JUMPI DUP3 DUP8 ADD MLOAD SWAP1 POP JUMPDEST PUSH2 0x197B DUP6 DUP3 PUSH2 0x18FD JUMP JUMPDEST DUP7 SSTORE POP PUSH2 0x19E3 JUMP JUMPDEST PUSH1 0x1F NOT DUP5 AND PUSH2 0x1991 DUP7 PUSH2 0x176D JUMP JUMPDEST PUSH1 0x0 JUMPDEST DUP3 DUP2 LT ISZERO PUSH2 0x19B9 JUMPI DUP5 DUP10 ADD MLOAD DUP3 SSTORE PUSH1 0x1 DUP3 ADD SWAP2 POP PUSH1 0x20 DUP6 ADD SWAP5 POP PUSH1 0x20 DUP2 ADD SWAP1 POP PUSH2 0x1994 JUMP JUMPDEST DUP7 DUP4 LT ISZERO PUSH2 0x19D6 JUMPI DUP5 DUP10 ADD MLOAD PUSH2 0x19D2 PUSH1 0x1F DUP10 AND DUP3 PUSH2 0x18DF JUMP JUMPDEST DUP4 SSTORE POP JUMPDEST PUSH1 0x1 PUSH1 0x2 DUP9 MUL ADD DUP9 SSTORE POP POP POP JUMPDEST POP POP POP POP POP POP JUMP JUMPDEST PUSH1 0x0 PUSH1 0x40 DUP3 ADD SWAP1 POP DUP2 DUP2 SUB PUSH1 0x0 DUP4 ADD MSTORE PUSH2 0x1A05 DUP2 DUP6 PUSH2 0xD82 JUMP JUMPDEST SWAP1 POP PUSH2 0x1A14 PUSH1 0x20 DUP4 ADD DUP5 PUSH2 0xCDB JUMP JUMPDEST SWAP4 SWAP3 POP POP POP JUMP INVALID LOG2 PUSH5 0x6970667358 0x22 SLT KECCAK256 0xB6 SWAP6 0xA6 JUMP PUSH14 0xFCE059E3F31941ADACCB0B17CD5 RETURNDATACOPY 0xC9 0xB0 DUP12 0xD5 0xD9 DELEGATECALL GAS BASEFEE SWAP1 PUSH16 0x77C64736F6C634300081E0033000000 "
		},
		"gasEstimates": {
			"creation": {
				"codeDepositCost": "1347400",
				"executionCost": "25669",
				"totalCost": "1373069"
			},
			"external": {
				"_newProposal(address,string,uint256)": "infinite",
				"_setVoteWeight(address,uint256)": "25044",
				"closeProposal(uint256)": "infinite",
				"hasVoted(uint256,address)": "3154",
				"nowTs()": "425",
				"owner()": "2533",
				"proposalCount()": "2495",
				"proposals(uint256)": "infinite",
				"vote(uint256,bool)": "infinite",
				"voteWeight(address)": "2814"
			}
		},
		"methodIdentifiers": {
			"_newProposal(address,string,uint256)": "f3404b3c",
			"_setVoteWeight(address,uint256)": "17516b69",
			"closeProposal(uint256)": "0386a016",
			"hasVoted(uint256,address)": "43859632",
			"nowTs()": "557b3491",
			"owner()": "8da5cb5b",
			"proposalCount()": "da35c664",
			"proposals(uint256)": "013cf08b",
			"vote(uint256,bool)": "c9d27afe",
			"voteWeight(address)": "7eadebfe"
		}
	},
	"abi": [
		{
			"inputs": [],
			"stateMutability": "nonpayable",
			"type": "constructor"
		},
		{
			"anonymous": false,
			"inputs": [
				{
					"indexed": true,
					"internalType": "uint256",
					"name": "proposalId",
					"type": "uint256"
				},
				{
					"indexed": false,
					"internalType": "bool",
					"name": "passed",
					"type": "bool"
				},
				{
					"indexed": false,
					"internalType": "uint256",
					"name": "positiveVotesWeight",
					"type": "uint256"
				},
				{
					"indexed": false,
					"internalType": "uint256",
					"name": "negativeVotesWeight",
					"type": "uint256"
				}
			],
			"name": "Closed",
			"type": "event"
		},
		{
			"anonymous": false,
			"inputs": [
				{
					"indexed": true,
					"internalType": "uint256",
					"name": "id",
					"type": "uint256"
				},
				{
					"indexed": true,
					"internalType": "address",
					"name": "creator",
					"type": "address"
				},
				{
					"indexed": false,
					"internalType": "string",
					"name": "description",
					"type": "string"
				},
				{
					"indexed": false,
					"internalType": "uint256",
					"name": "deadline",
					"type": "uint256"
				}
			],
			"name": "NewProposal",
			"type": "event"
		},
		{
			"anonymous": false,
			"inputs": [
				{
					"indexed": true,
					"internalType": "address",
					"name": "voter",
					"type": "address"
				},
				{
					"indexed": true,
					"internalType": "uint256",
					"name": "proposalId",
					"type": "uint256"
				},
				{
					"indexed": false,
					"internalType": "bool",
					"name": "positive",
					"type": "bool"
				},
				{
					"indexed": false,
					"internalType": "uint256",
					"name": "weight",
					"type": "uint256"
				}
			],
			"name": "Vote",
			"type": "event"
		},
		{
			"inputs": [
				{
					"internalType": "address",
					"name": "_creator",
					"type": "address"
				},
				{
					"internalType": "string",
					"name": "_description",
					"type": "string"
				},
				{
					"internalType": "uint256",
					"name": "_durationSeconds",
					"type": "uint256"
				}
			],
			"name": "_newProposal",
			"outputs": [],
			"stateMutability": "nonpayable",
			"type": "function"
		},
		{
			"inputs": [
				{
					"internalType": "address",
					"name": "_voter",
					"type": "address"
				},
				{
					"internalType": "uint256",
					"name": "_weight",
					"type": "uint256"
				}
			],
			"name": "_setVoteWeight",
			"outputs": [],
			"stateMutability": "nonpayable",
			"type": "function"
		},
		{
			"inputs": [
				{
					"internalType": "uint256",
					"name": "_proposalId",
					"type": "uint256"
				}
			],
			"name": "closeProposal",
			"outputs": [],
			"stateMutability": "nonpayable",
			"type": "function"
		},
		{
			"inputs": [
				{
					"internalType": "uint256",
					"name": "",
					"type": "uint256"
				},
				{
					"internalType": "address",
					"name": "",
					"type": "address"
				}
			],
			"name": "hasVoted",
			"outputs": [
				{
					"internalType": "bool",
					"name": "",
					"type": "bool"
				}
			],
			"stateMutability": "view",
			"type": "function"
		},
		{
			"inputs": [],
			"name": "nowTs",
			"outputs": [
				{
					"internalType": "uint256",
					"name": "",
					"type": "uint256"
				}
			],
			"stateMutability": "view",
			"type": "function"
		},
		{
			"inputs": [],
			"name": "owner",
			"outputs": [
				{
					"internalType": "address",
					"name": "",
					"type": "address"
				}
			],
			"stateMutability": "view",
			"type": "function"
		},
		{
			"inputs": [],
			"name": "proposalCount",
			"outputs": [
				{
					"internalType": "uint256",
					"name": "",
					"type": "uint256"
				}
			],
			"stateMutability": "view",
			"type": "function"
		},
		{
			"inputs": [
				{
					"internalType": "uint256",
					"name": "",
					"type": "uint256"
				}
			],
			"name": "proposals",
			"outputs": [
				{
					"internalType": "uint256",
					"name": "id",
					"type": "uint256"
				},
				{
					"internalType": "address",
					"name": "creator",
					"type": "address"
				},
				{
					"internalType": "string",
					"name": "description",
					"type": "string"
				},
				{
					"internalType": "uint256",
					"name": "positiveVotes",
					"type": "uint256"
				},
				{
					"internalType": "uint256",
					"name": "positiveVotesWeight",
					"type": "uint256"
				},
				{
					"internalType": "uint256",
					"name": "negativeVotes",
					"type": "uint256"
				},
				{
					"internalType": "uint256",
					"name": "negativeVotesWeight",
					"type": "uint256"
				},
				{
					"internalType": "bool",
					"name": "isActive",
					"type": "bool"
				},
				{
					"internalType": "uint256",
					"name": "deadline",
					"type": "uint256"
				}
			],
			"stateMutability": "view",
			"type": "function"
		},
		{
			"inputs": [
				{
					"internalType": "uint256",
					"name": "_proposalId",
					"type": "uint256"
				},
				{
					"internalType": "bool",
					"name": "_positive",
					"type": "bool"
				}
			],
			"name": "vote",
			"outputs": [],
			"stateMutability": "nonpayable",
			"type": "function"
		},
		{
			"inputs": [
				{
					"internalType": "address",
					"name": "",
					"type": "address"
				}
			],
			"name": "voteWeight",
			"outputs": [
				{
					"internalType": "uint256",
					"name": "",
					"type": "uint256"
				}
			],
			"stateMutability": "view",
			"type": "function"
		}
	]
}