{
	"data": {
		"bytecode": {
			"linkReferences": {},
			"object": "6080604052348015600e575f5ffd5b50610d6e8061001c5f395ff3fe608060405234801561000f575f5ffd5b506004361061004a575f3560e01c8063013cf08b1461004e5780633de39f9d146100845780638da5cb5b146100a0578063c9d27afe146100be575b5f5ffd5b610068600480360381019061006391906104ea565b6100da565b60405161007b97969594939291906105ed565b60405180910390f35b61009e600480360381019061009991906107b7565b6101c9565b005b6100a861032f565b6040516100b59190610811565b60405180910390f35b6100d860048036038101906100d39190610854565b610353565b005b6002602052805f5260405f205f91509050805f015490806001015f9054906101000a900473ffffffffffffffffffffffffffffffffffffffff1690806002018054610124906108bf565b80601f0160208091040260200160405190810160405280929190818152602001828054610150906108bf565b801561019b5780601f106101725761010080835404028352916020019161019b565b820191905f5260205f20905b81548152906001019060200180831161017e57829003601f168201915b505050505090806003015490806004015490806005015f9054906101000a900460ff16908060060154905087565b5f60015f8154809291906101dc9061091c565b9190505590506040518060e001604052808281526020018473ffffffffffffffffffffffffffffffffffffffff1681526020018381526020015f81526020015f8152602001600115158152602001620d2f00426102399190610963565b81525060025f8381526020019081526020015f205f820151815f01556020820151816001015f6101000a81548173ffffffffffffffffffffffffffffffffffffffff021916908373ffffffffffffffffffffffffffffffffffffffff16021790555060408201518160020190816102b09190610b36565b50606082015181600301556080820151816004015560a0820151816005015f6101000a81548160ff02191690831515021790555060c082015181600601559050507fe5cbc6737159266b5482fcbbe3c30d303d0dacaa7438e354a46181430f2123688383604051610322929190610c05565b60405180910390a1505050565b5f5f9054906101000a900473ffffffffffffffffffffffffffffffffffffffff1681565b60025f8381526020019081526020015f206005015f9054906101000a900460ff166103b3576040517f08c379a00000000000000000000000000000000000000000000000000000000081526004016103aa90610c7d565b60405180910390fd5b60025f8381526020019081526020015f20600601544210610409576040517f08c379a000000000000000000000000000000000000000000000000000000000815260040161040090610ce5565b60405180910390fd5b801561043d5760025f8381526020019081526020015f206003015f8154809291906104339061091c565b9190505550610467565b60025f8381526020019081526020015f206004015f8154809291906104619061091c565b91905055505b7f8d85a70fd2c5d140a4a01143492d27ff82cfad4cead313e66c53f39b0feb5e0f33838360405161049a93929190610d03565b60405180910390a15050565b5f604051905090565b5f5ffd5b5f5ffd5b5f819050919050565b6104c9816104b7565b81146104d3575f5ffd5b50565b5f813590506104e4816104c0565b92915050565b5f602082840312156104ff576104fe6104af565b5b5f61050c848285016104d6565b91505092915050565b61051e816104b7565b82525050565b5f73ffffffffffffffffffffffffffffffffffffffff82169050919050565b5f61054d82610524565b9050919050565b61055d81610543565b82525050565b5f81519050919050565b5f82825260208201905092915050565b8281835e5f83830152505050565b5f601f19601f8301169050919050565b5f6105a582610563565b6105af818561056d565b93506105bf81856020860161057d565b6105c88161058b565b840191505092915050565b5f8115159050919050565b6105e7816105d3565b82525050565b5f60e0820190506106005f83018a610515565b61060d6020830189610554565b818103604083015261061f818861059b565b905061062e6060830187610515565b61063b6080830186610515565b61064860a08301856105de565b61065560c0830184610515565b98975050505050505050565b61066a81610543565b8114610674575f5ffd5b50565b5f8135905061068581610661565b92915050565b5f5ffd5b5f5ffd5b7f4e487b71000000000000000000000000000000000000000000000000000000005f52604160045260245ffd5b6106c98261058b565b810181811067ffffffffffffffff821117156106e8576106e7610693565b5b80604052505050565b5f6106fa6104a6565b905061070682826106c0565b919050565b5f67ffffffffffffffff82111561072557610724610693565b5b61072e8261058b565b9050602081019050919050565b828183375f83830152505050565b5f61075b6107568461070b565b6106f1565b9050828152602081018484840111156107775761077661068f565b5b61078284828561073b565b509392505050565b5f82601f83011261079e5761079d61068b565b5b81356107ae848260208601610749565b91505092915050565b5f5f604083850312156107cd576107cc6104af565b5b5f6107da85828601610677565b925050602083013567ffffffffffffffff8111156107fb576107fa6104b3565b5b6108078582860161078a565b9150509250929050565b5f6020820190506108245f830184610554565b92915050565b610833816105d3565b811461083d575f5ffd5b50565b5f8135905061084e8161082a565b92915050565b5f5f6040838503121561086a576108696104af565b5b5f610877858286016104d6565b925050602061088885828601610840565b9150509250929050565b7f4e487b71000000000000000000000000000000000000000000000000000000005f52602260045260245ffd5b5f60028204905060018216806108d657607f821691505b6020821081036108e9576108e8610892565b5b50919050565b7f4e487b71000000000000000000000000000000000000000000000000000000005f52601160045260245ffd5b5f610926826104b7565b91507fffffffffffffffffffffffffffffffffffffffffffffffffffffffffffffffff8203610958576109576108ef565b5b600182019050919050565b5f61096d826104b7565b9150610978836104b7565b92508282019050808211156109905761098f6108ef565b5b92915050565b5f819050815f5260205f209050919050565b5f6020601f8301049050919050565b5f82821b905092915050565b5f600883026109f27fffffffffffffffffffffffffffffffffffffffffffffffffffffffffffffffff826109b7565b6109fc86836109b7565b95508019841693508086168417925050509392505050565b5f819050919050565b5f610a37610a32610a2d846104b7565b610a14565b6104b7565b9050919050565b5f819050919050565b610a5083610a1d565b610a64610a5c82610a3e565b8484546109c3565b825550505050565b5f5f905090565b610a7b610a6c565b610a86818484610a47565b505050565b5b81811015610aa957610a9e5f82610a73565b600181019050610a8c565b5050565b601f821115610aee57610abf81610996565b610ac8846109a8565b81016020851015610ad7578190505b610aeb610ae3856109a8565b830182610a8b565b50505b505050565b5f82821c905092915050565b5f610b0e5f1984600802610af3565b1980831691505092915050565b5f610b268383610aff565b9150826002028217905092915050565b610b3f82610563565b67ffffffffffffffff811115610b5857610b57610693565b5b610b6282546108bf565b610b6d828285610aad565b5f60209050601f831160018114610b9e575f8415610b8c578287015190505b610b968582610b1b565b865550610bfd565b601f198416610bac86610996565b5f5b82811015610bd357848901518255600182019150602085019450602081019050610bae565b86831015610bf05784890151610bec601f891682610aff565b8355505b6001600288020188555050505b505050505050565b5f604082019050610c185f830185610554565b8181036020830152610c2a818461059b565b90509392505050565b7f50726f706f73616c206973206e6f7420616374697665000000000000000000005f82015250565b5f610c6760168361056d565b9150610c7282610c33565b602082019050919050565b5f6020820190508181035f830152610c9481610c5b565b9050919050565b7f50726f706f73616c2068617320657870697265640000000000000000000000005f82015250565b5f610ccf60148361056d565b9150610cda82610c9b565b602082019050919050565b5f6020820190508181035f830152610cfc81610cc3565b9050919050565b5f606082019050610d165f830186610554565b610d236020830185610515565b610d3060408301846105de565b94935050505056fea2646970667358221220de7da45d81204ed9ed1c60ba79fe193a003b7f102ffce198093911fb40612e3664736f6c634300081e0033",
			"opcodes": "PUSH1 0x80 PUSH1 0x40 MSTORE CALLVALUE DUP1 ISZERO PUSH1 0xE JUMPI PUSH0 PUSH0 REVERT JUMPDEST POP PUSH2 0xD6E DUP1 PUSH2 0x1C PUSH0 CODECOPY PUSH0 RETURN INVALID PUSH1 0x80 PUSH1 0x40 MSTORE CALLVALUE DUP1 ISZERO PUSH2 0xF JUMPI PUSH0 PUSH0 REVERT JUMPDEST POP PUSH1 0x4 CALLDATASIZE LT PUSH2 0x4A JUMPI PUSH0 CALLDATALOAD PUSH1 0xE0 SHR DUP1 PUSH4 0x13CF08B EQ PUSH2 0x4E JUMPI DUP1 PUSH4 0x3DE39F9D EQ PUSH2 0x84 JUMPI DUP1 PUSH4 0x8DA5CB5B EQ PUSH2 0xA0 JUMPI DUP1 PUSH4 0xC9D27AFE EQ PUSH2 0xBE JUMPI JUMPDEST PUSH0 PUSH0 REVERT JUMPDEST PUSH2 0x68 PUSH1 0x4 DUP1 CALLDATASIZE SUB DUP2 ADD SWAP1 PUSH2 0x63 SWAP2 SWAP1 PUSH2 0x4EA JUMP JUMPDEST PUSH2 0xDA JUMP JUMPDEST PUSH1 0x40 MLOAD PUSH2 0x7B SWAP8 SWAP7 SWAP6 SWAP5 SWAP4 SWAP3 SWAP2 SWAP1 PUSH2 0x5ED JUMP JUMPDEST PUSH1 0x40 MLOAD DUP1 SWAP2 SUB SWAP1 RETURN JUMPDEST PUSH2 0x9E PUSH1 0x4 DUP1 CALLDATASIZE SUB DUP2 ADD SWAP1 PUSH2 0x99 SWAP2 SWAP1 PUSH2 0x7B7 JUMP JUMPDEST PUSH2 0x1C9 JUMP JUMPDEST STOP JUMPDEST PUSH2 0xA8 PUSH2 0x32F JUMP JUMPDEST PUSH1 0x40 MLOAD PUSH2 0xB5 SWAP2 SWAP1 PUSH2 0x811 JUMP JUMPDEST PUSH1 0x40 MLOAD DUP1 SWAP2 SUB SWAP1 RETURN JUMPDEST PUSH2 0xD8 PUSH1 0x4 DUP1 CALLDATASIZE SUB DUP2 ADD SWAP1 PUSH2 0xD3 SWAP2 SWAP1 PUSH2 0x854 JUMP JUMPDEST PUSH2 0x353 JUMP JUMPDEST STOP JUMPDEST PUSH1 0x2 PUSH1 0x20 MSTORE DUP1 PUSH0 MSTORE PUSH1 0x40 PUSH0 KECCAK256 PUSH0 SWAP2 POP SWAP1 POP DUP1 PUSH0 ADD SLOAD SWAP1 DUP1 PUSH1 0x1 ADD PUSH0 SWAP1 SLOAD SWAP1 PUSH2 0x100 EXP SWAP1 DIV PUSH20 0xFFFFFFFFFFFFFFFFFFFFFFFFFFFFFFFFFFFFFFFF AND SWAP1 DUP1 PUSH1 0x2 ADD DUP1 SLOAD PUSH2 0x124 SWAP1 PUSH2 0x8BF JUMP JUMPDEST DUP1 PUSH1 0x1F ADD PUSH1 0x20 DUP1 SWAP2 DIV MUL PUSH1 0x20 ADD PUSH1 0x40 MLOAD SWAP1 DUP2 ADD PUSH1 0x40 MSTORE DUP1 SWAP3 SWAP2 SWAP1 DUP2 DUP2 MSTORE PUSH1 0x20 ADD DUP3 DUP1 SLOAD PUSH2 0x150 SWAP1 PUSH2 0x8BF JUMP JUMPDEST DUP1 ISZERO PUSH2 0x19B JUMPI DUP1 PUSH1 0x1F LT PUSH2 0x172 JUMPI PUSH2 0x100 DUP1 DUP4 SLOAD DIV MUL DUP4 MSTORE SWAP2 PUSH1 0x20 ADD SWAP2 PUSH2 0x19B JUMP JUMPDEST DUP3 ADD SWAP2 SWAP1 PUSH0 MSTORE PUSH1 0x20 PUSH0 KECCAK256 SWAP1 JUMPDEST DUP2 SLOAD DUP2 MSTORE SWAP1 PUSH1 0x1 ADD SWAP1 PUSH1 0x20 ADD DUP1 DUP4 GT PUSH2 0x17E JUMPI DUP3 SWAP1 SUB PUSH1 0x1F AND DUP3 ADD SWAP2 JUMPDEST POP POP POP POP POP SWAP1 DUP1 PUSH1 0x3 ADD SLOAD SWAP1 DUP1 PUSH1 0x4 ADD SLOAD SWAP1 DUP1 PUSH1 0x5 ADD PUSH0 SWAP1 SLOAD SWAP1 PUSH2 0x100 EXP SWAP1 DIV PUSH1 0xFF AND SWAP1 DUP1 PUSH1 0x6 ADD SLOAD SWAP1 POP DUP8 JUMP JUMPDEST PUSH0 PUSH1 0x1 PUSH0 DUP2 SLOAD DUP1 SWAP3 SWAP2 SWAP1 PUSH2 0x1DC SWAP1 PUSH2 0x91C JUMP JUMPDEST SWAP2 SWAP1 POP SSTORE SWAP1 POP PUSH1 0x40 MLOAD DUP1 PUSH1 0xE0 ADD PUSH1 0x40 MSTORE DUP1 DUP3 DUP2 MSTORE PUSH1 0x20 ADD DUP5 PUSH20 0xFFFFFFFFFFFFFFFFFFFFFFFFFFFFFFFFFFFFFFFF AND DUP2 MSTORE PUSH1 0x20 ADD DUP4 DUP2 MSTORE PUSH1 0x20 ADD PUSH0 DUP2 MSTORE PUSH1 0x20 ADD PUSH0 DUP2 MSTORE PUSH1 0x20 ADD PUSH1 0x1 ISZERO ISZERO DUP2 MSTORE PUSH1 0x20 ADD PUSH3 0xD2F00 TIMESTAMP PUSH2 0x239 SWAP2 SWAP1 PUSH2 0x963 JUMP JUMPDEST DUP2 MSTORE POP PUSH1 0x2 PUSH0 DUP4 DUP2 MSTORE PUSH1 0x20 ADD SWAP1 DUP2 MSTORE PUSH1 0x20 ADD PUSH0 KECCAK256 PUSH0 DUP3 ADD MLOAD DUP2 PUSH0 ADD SSTORE PUSH1 0x20 DUP3 ADD MLOAD DUP2 PUSH1 0x1 ADD PUSH0 PUSH2 0x100 EXP DUP2 SLOAD DUP2 PUSH20 0xFFFFFFFFFFFFFFFFFFFFFFFFFFFFFFFFFFFFFFFF MUL NOT AND SWAP1 DUP4 PUSH20 0xFFFFFFFFFFFFFFFFFFFFFFFFFFFFFFFFFFFFFFFF AND MUL OR SWAP1 SSTORE POP PUSH1 0x40 DUP3 ADD MLOAD DUP2 PUSH1 0x2 ADD SWAP1 DUP2 PUSH2 0x2B0 SWAP2 SWAP1 PUSH2 0xB36 JUMP JUMPDEST POP PUSH1 0x60 DUP3 ADD MLOAD DUP2 PUSH1 0x3 ADD SSTORE PUSH1 0x80 DUP3 ADD MLOAD DUP2 PUSH1 0x4 ADD SSTORE PUSH1 0xA0 DUP3 ADD MLOAD DUP2 PUSH1 0x5 ADD PUSH0 PUSH2 0x100 EXP DUP2 SLOAD DUP2 PUSH1 0xFF MUL NOT AND SWAP1 DUP4 ISZERO ISZERO MUL OR SWAP1 SSTORE POP PUSH1 0xC0 DUP3 ADD MLOAD DUP2 PUSH1 0x6 ADD SSTORE SWAP1 POP POP PUSH32 0xE5CBC6737159266B5482FCBBE3C30D303D0DACAA7438E354A46181430F212368 DUP4 DUP4 PUSH1 0x40 MLOAD PUSH2 0x322 SWAP3 SWAP2 SWAP1 PUSH2 0xC05 JUMP JUMPDEST PUSH1 0x40 MLOAD DUP1 SWAP2 SUB SWAP1 LOG1 POP POP POP JUMP JUMPDEST PUSH0 PUSH0 SWAP1 SLOAD SWAP1 PUSH2 0x100 EXP SWAP1 DIV PUSH20 0xFFFFFFFFFFFFFFFFFFFFFFFFFFFFFFFFFFFFFFFF AND DUP2 JUMP JUMPDEST PUSH1 0x2 PUSH0 DUP4 DUP2 MSTORE PUSH1 0x20 ADD SWAP1 DUP2 MSTORE PUSH1 0x20 ADD PUSH0 KECCAK256 PUSH1 0x5 ADD PUSH0 SWAP1 SLOAD SWAP1 PUSH2 0x100 EXP SWAP1 DIV PUSH1 0xFF AND PUSH2 0x3B3 JUMPI PUSH1 0x40 MLOAD PUSH32 0x8C379A000000000000000000000000000000000000000000000000000000000 DUP2 MSTORE PUSH1 0x4 ADD PUSH2 0x3AA SWAP1 PUSH2 0xC7D JUMP JUMPDEST PUSH1 0x40 MLOAD DUP1 SWAP2 SUB SWAP1 REVERT JUMPDEST PUSH1 0x2 PUSH0 DUP4 DUP2 MSTORE PUSH1 0x20 ADD SWAP1 DUP2 MSTORE PUSH1 0x20 ADD PUSH0 KECCAK256 PUSH1 0x6 ADD SLOAD TIMESTAMP LT PUSH2 0x409 JUMPI PUSH1 0x40 MLOAD PUSH32 0x8C379A000000000000000000000000000000000000000000000000000000000 DUP2 MSTORE PUSH1 0x4 ADD PUSH2 0x400 SWAP1 PUSH2 0xCE5 JUMP JUMPDEST PUSH1 0x40 MLOAD DUP1 SWAP2 SUB SWAP1 REVERT JUMPDEST DUP1 ISZERO PUSH2 0x43D JUMPI PUSH1 0x2 PUSH0 DUP4 DUP2 MSTORE PUSH1 0x20 ADD SWAP1 DUP2 MSTORE PUSH1 0x20 ADD PUSH0 KECCAK256 PUSH1 0x3 ADD PUSH0 DUP2 SLOAD DUP1 SWAP3 SWAP2 SWAP1 PUSH2 0x433 SWAP1 PUSH2 0x91C JUMP JUMPDEST SWAP2 SWAP1 POP SSTORE POP PUSH2 0x467 JUMP JUMPDEST PUSH1 0x2 PUSH0 DUP4 DUP2 MSTORE PUSH1 0x20 ADD SWAP1 DUP2 MSTORE PUSH1 0x20 ADD PUSH0 KECCAK256 PUSH1 0x4 ADD PUSH0 DUP2 SLOAD DUP1 SWAP3 SWAP2 SWAP1 PUSH2 0x461 SWAP1 PUSH2 0x91C JUMP JUMPDEST SWAP2 SWAP1 POP SSTORE POP JUMPDEST PUSH32 0x8D85A70FD2C5D140A4A01143492D27FF82CFAD4CEAD313E66C53F39B0FEB5E0F CALLER DUP4 DUP4 PUSH1 0x40 MLOAD PUSH2 0x49A SWAP4 SWAP3 SWAP2 SWAP1 PUSH2 0xD03 JUMP JUMPDEST PUSH1 0x40 MLOAD DUP1 SWAP2 SUB SWAP1 LOG1 POP POP JUMP JUMPDEST PUSH0 PUSH1 0x40 MLOAD SWAP1 POP SWAP1 JUMP JUMPDEST PUSH0 PUSH0 REVERT JUMPDEST PUSH0 PUSH0 REVERT JUMPDEST PUSH0 DUP2 SWAP1 POP SWAP2 SWAP1 POP JUMP JUMPDEST PUSH2 0x4C9 DUP2 PUSH2 0x4B7 JUMP JUMPDEST DUP2 EQ PUSH2 0x4D3 JUMPI PUSH0 PUSH0 REVERT JUMPDEST POP JUMP JUMPDEST PUSH0 DUP2 CALLDATALOAD SWAP1 POP PUSH2 0x4E4 DUP2 PUSH2 0x4C0 JUMP JUMPDEST SWAP3 SWAP2 POP POP JUMP JUMPDEST PUSH0 PUSH1 0x20 DUP3 DUP5 SUB SLT ISZERO PUSH2 0x4FF JUMPI PUSH2 0x4FE PUSH2 0x4AF JUMP JUMPDEST JUMPDEST PUSH0 PUSH2 0x50C DUP5 DUP3 DUP6 ADD PUSH2 0x4D6 JUMP JUMPDEST SWAP2 POP POP SWAP3 SWAP2 POP POP JUMP JUMPDEST PUSH2 0x51E DUP2 PUSH2 0x4B7 JUMP JUMPDEST DUP3 MSTORE POP POP JUMP JUMPDEST PUSH0 PUSH20 0xFFFFFFFFFFFFFFFFFFFFFFFFFFFFFFFFFFFFFFFF DUP3 AND SWAP1 POP SWAP2 SWAP1 POP JUMP JUMPDEST PUSH0 PUSH2 0x54D DUP3 PUSH2 0x524 JUMP JUMPDEST SWAP1 POP SWAP2 SWAP1 POP JUMP JUMPDEST PUSH2 0x55D DUP2 PUSH2 0x543 JUMP JUMPDEST DUP3 MSTORE POP POP JUMP JUMPDEST PUSH0 DUP2 MLOAD SWAP1 POP SWAP2 SWAP1 POP JUMP JUMPDEST PUSH0 DUP3 DUP3 MSTORE PUSH1 0x20 DUP3 ADD SWAP1 POP SWAP3 SWAP2 POP POP JUMP JUMPDEST DUP3 DUP2 DUP4 MCOPY PUSH0 DUP4 DUP4 ADD MSTORE POP POP POP JUMP JUMPDEST PUSH0 PUSH1 0x1F NOT PUSH1 0x1F DUP4 ADD AND SWAP1 POP SWAP2 SWAP1 POP JUMP JUMPDEST PUSH0 PUSH2 0x5A5 DUP3 PUSH2 0x563 JUMP JUMPDEST PUSH2 0x5AF DUP2 DUP6 PUSH2 0x56D JUMP JUMPDEST SWAP4 POP PUSH2 0x5BF DUP2 DUP6 PUSH1 0x20 DUP7 ADD PUSH2 0x57D JUMP JUMPDEST PUSH2 0x5C8 DUP2 PUSH2 0x58B JUMP JUMPDEST DUP5 ADD SWAP2 POP POP SWAP3 SWAP2 POP POP JUMP JUMPDEST PUSH0 DUP2 ISZERO ISZERO SWAP1 POP SWAP2 SWAP1 POP JUMP JUMPDEST PUSH2 0x5E7 DUP2 PUSH2 0x5D3 JUMP JUMPDEST DUP3 MSTORE POP POP JUMP JUMPDEST PUSH0 PUSH1 0xE0 DUP3 ADD SWAP1 POP PUSH2 0x600 PUSH0 DUP4 ADD DUP11 PUSH2 0x515 JUMP JUMPDEST PUSH2 0x60D PUSH1 0x20 DUP4 ADD DUP10 PUSH2 0x554 JUMP JUMPDEST DUP2 DUP2 SUB PUSH1 0x40 DUP4 ADD MSTORE PUSH2 0x61F DUP2 DUP9 PUSH2 0x59B JUMP JUMPDEST SWAP1 POP PUSH2 0x62E PUSH1 0x60 DUP4 ADD DUP8 PUSH2 0x515 JUMP JUMPDEST PUSH2 0x63B PUSH1 0x80 DUP4 ADD DUP7 PUSH2 0x515 JUMP JUMPDEST PUSH2 0x648 PUSH1 0xA0 DUP4 ADD DUP6 PUSH2 0x5DE JUMP JUMPDEST PUSH2 0x655 PUSH1 0xC0 DUP4 ADD DUP5 PUSH2 0x515 JUMP JUMPDEST SWAP9 SWAP8 POP POP POP POP POP POP POP POP JUMP JUMPDEST PUSH2 0x66A DUP2 PUSH2 0x543 JUMP JUMPDEST DUP2 EQ PUSH2 0x674 JUMPI PUSH0 PUSH0 REVERT JUMPDEST POP JUMP JUMPDEST PUSH0 DUP2 CALLDATALOAD SWAP1 POP PUSH2 0x685 DUP2 PUSH2 0x661 JUMP JUMPDEST SWAP3 SWAP2 POP POP JUMP JUMPDEST PUSH0 PUSH0 REVERT JUMPDEST PUSH0 PUSH0 REVERT JUMPDEST PUSH32 0x4E487B7100000000000000000000000000000000000000000000000000000000 PUSH0 MSTORE PUSH1 0x41 PUSH1 0x4 MSTORE PUSH1 0x24 PUSH0 REVERT JUMPDEST PUSH2 0x6C9 DUP3 PUSH2 0x58B JUMP JUMPDEST DUP2 ADD DUP2 DUP2 LT PUSH8 0xFFFFFFFFFFFFFFFF DUP3 GT OR ISZERO PUSH2 0x6E8 JUMPI PUSH2 0x6E7 PUSH2 0x693 JUMP JUMPDEST JUMPDEST DUP1 PUSH1 0x40 MSTORE POP POP POP JUMP JUMPDEST PUSH0 PUSH2 0x6FA PUSH2 0x4A6 JUMP JUMPDEST SWAP1 POP PUSH2 0x706 DUP3 DUP3 PUSH2 0x6C0 JUMP JUMPDEST SWAP2 SWAP1 POP JUMP JUMPDEST PUSH0 PUSH8 0xFFFFFFFFFFFFFFFF DUP3 GT ISZERO PUSH2 0x725 JUMPI PUSH2 0x724 PUSH2 0x693 JUMP JUMPDEST JUMPDEST PUSH2 0x72E DUP3 PUSH2 0x58B JUMP JUMPDEST SWAP1 POP PUSH1 0x20 DUP2 ADD SWAP1 POP SWAP2 SWAP1 POP JUMP JUMPDEST DUP3 DUP2 DUP4 CALLDATACOPY PUSH0 DUP4 DUP4 ADD MSTORE POP POP POP JUMP JUMPDEST PUSH0 PUSH2 0x75B PUSH2 0x756 DUP5 PUSH2 0x70B JUMP JUMPDEST PUSH2 0x6F1 JUMP JUMPDEST SWAP1 POP DUP3 DUP2 MSTORE PUSH1 0x20 DUP2 ADD DUP5 DUP5 DUP5 ADD GT ISZERO PUSH2 0x777 JUMPI PUSH2 0x776 PUSH2 0x68F JUMP JUMPDEST JUMPDEST PUSH2 0x782 DUP5 DUP3 DUP6 PUSH2 0x73B JUMP JUMPDEST POP SWAP4 SWAP3 POP POP POP JUMP JUMPDEST PUSH0 DUP3 PUSH1 0x1F DUP4 ADD SLT PUSH2 0x79E JUMPI PUSH2 0x79D PUSH2 0x68B JUMP JUMPDEST JUMPDEST DUP2 CALLDATALOAD PUSH2 0x7AE DUP5 DUP3 PUSH1 0x20 DUP7 ADD PUSH2 0x749 JUMP JUMPDEST SWAP2 POP POP SWAP3 SWAP2 POP POP JUMP JUMPDEST PUSH0 PUSH0 PUSH1 0x40 DUP4 DUP6 SUB SLT ISZERO PUSH2 0x7CD JUMPI PUSH2 0x7CC PUSH2 0x4AF JUMP JUMPDEST JUMPDEST PUSH0 PUSH2 0x7DA DUP6 DUP3 DUP7 ADD PUSH2 0x677 JUMP JUMPDEST SWAP3 POP POP PUSH1 0x20 DUP4 ADD CALLDATALOAD PUSH8 0xFFFFFFFFFFFFFFFF DUP2 GT ISZERO PUSH2 0x7FB JUMPI PUSH2 0x7FA PUSH2 0x4B3 JUMP JUMPDEST JUMPDEST PUSH2 0x807 DUP6 DUP3 DUP7 ADD PUSH2 0x78A JUMP JUMPDEST SWAP2 POP POP SWAP3 POP SWAP3 SWAP1 POP JUMP JUMPDEST PUSH0 PUSH1 0x20 DUP3 ADD SWAP1 POP PUSH2 0x824 PUSH0 DUP4 ADD DUP5 PUSH2 0x554 JUMP JUMPDEST SWAP3 SWAP2 POP POP JUMP JUMPDEST PUSH2 0x833 DUP2 PUSH2 0x5D3 JUMP JUMPDEST DUP2 EQ PUSH2 0x83D JUMPI PUSH0 PUSH0 REVERT JUMPDEST POP JUMP JUMPDEST PUSH0 DUP2 CALLDATALOAD SWAP1 POP PUSH2 0x84E DUP2 PUSH2 0x82A JUMP JUMPDEST SWAP3 SWAP2 POP POP JUMP JUMPDEST PUSH0 PUSH0 PUSH1 0x40 DUP4 DUP6 SUB SLT ISZERO PUSH2 0x86A JUMPI PUSH2 0x869 PUSH2 0x4AF JUMP JUMPDEST JUMPDEST PUSH0 PUSH2 0x877 DUP6 DUP3 DUP7 ADD PUSH2 0x4D6 JUMP JUMPDEST SWAP3 POP POP PUSH1 0x20 PUSH2 0x888 DUP6 DUP3 DUP7 ADD PUSH2 0x840 JUMP JUMPDEST SWAP2 POP POP SWAP3 POP SWAP3 SWAP1 POP JUMP JUMPDEST PUSH32 0x4E487B7100000000000000000000000000000000000000000000000000000000 PUSH0 MSTORE PUSH1 0x22 PUSH1 0x4 MSTORE PUSH1 0x24 PUSH0 REVERT JUMPDEST PUSH0 PUSH1 0x2 DUP3 DIV SWAP1 POP PUSH1 0x1 DUP3 AND DUP1 PUSH2 0x8D6 JUMPI PUSH1 0x7F DUP3 AND SWAP2 POP JUMPDEST PUSH1 0x20 DUP3 LT DUP2 SUB PUSH2 0x8E9 JUMPI PUSH2 0x8E8 PUSH2 0x892 JUMP JUMPDEST JUMPDEST POP SWAP2 SWAP1 POP JUMP JUMPDEST PUSH32 0x4E487B7100000000000000000000000000000000000000000000000000000000 PUSH0 MSTORE PUSH1 0x11 PUSH1 0x4 MSTORE PUSH1 0x24 PUSH0 REVERT JUMPDEST PUSH0 PUSH2 0x926 DUP3 PUSH2 0x4B7 JUMP JUMPDEST SWAP2 POP PUSH32 0xFFFFFFFFFFFFFFFFFFFFFFFFFFFFFFFFFFFFFFFFFFFFFFFFFFFFFFFFFFFFFFFF DUP3 SUB PUSH2 0x958 JUMPI PUSH2 0x957 PUSH2 0x8EF JUMP JUMPDEST JUMPDEST PUSH1 0x1 DUP3 ADD SWAP1 POP SWAP2 SWAP1 POP JUMP JUMPDEST PUSH0 PUSH2 0x96D DUP3 PUSH2 0x4B7 JUMP JUMPDEST SWAP2 POP PUSH2 0x978 DUP4 PUSH2 0x4B7 JUMP JUMPDEST SWAP3 POP DUP3 DUP3 ADD SWAP1 POP DUP1 DUP3 GT ISZERO PUSH2 0x990 JUMPI PUSH2 0x98F PUSH2 0x8EF JUMP JUMPDEST JUMPDEST SWAP3 SWAP2 POP POP JUMP JUMPDEST PUSH0 DUP2 SWAP1 POP DUP2 PUSH0 MSTORE PUSH1 0x20 PUSH0 KECCAK256 SWAP1 POP SWAP2 SWAP1 POP JUMP JUMPDEST PUSH0 PUSH1 0x20 PUSH1 0x1F DUP4 ADD DIV SWAP1 POP SWAP2 SWAP1 POP JUMP JUMPDEST PUSH0 DUP3 DUP3 SHL SWAP1 POP SWAP3 SWAP2 POP POP JUMP JUMPDEST PUSH0 PUSH1 0x8 DUP4 MUL PUSH2 0x9F2 PUSH32 0xFFFFFFFFFFFFFFFFFFFFFFFFFFFFFFFFFFFFFFFFFFFFFFFFFFFFFFFFFFFFFFFF DUP3 PUSH2 0x9B7 JUMP JUMPDEST PUSH2 0x9FC DUP7 DUP4 PUSH2 0x9B7 JUMP JUMPDEST SWAP6 POP DUP1 NOT DUP5 AND SWAP4 POP DUP1 DUP7 AND DUP5 OR SWAP3 POP POP POP SWAP4 SWAP3 POP POP POP JUMP JUMPDEST PUSH0 DUP2 SWAP1 POP SWAP2 SWAP1 POP JUMP JUMPDEST PUSH0 PUSH2 0xA37 PUSH2 0xA32 PUSH2 0xA2D DUP5 PUSH2 0x4B7 JUMP JUMPDEST PUSH2 0xA14 JUMP JUMPDEST PUSH2 0x4B7 JUMP JUMPDEST SWAP1 POP SWAP2 SWAP1 POP JUMP JUMPDEST PUSH0 DUP2 SWAP1 POP SWAP2 SWAP1 POP JUMP JUMPDEST PUSH2 0xA50 DUP4 PUSH2 0xA1D JUMP JUMPDEST PUSH2 0xA64 PUSH2 0xA5C DUP3 PUSH2 0xA3E JUMP JUMPDEST DUP5 DUP5 SLOAD PUSH2 0x9C3 JUMP JUMPDEST DUP3 SSTORE POP POP POP POP JUMP JUMPDEST PUSH0 PUSH0 SWAP1 POP SWAP1 JUMP JUMPDEST PUSH2 0xA7B PUSH2 0xA6C JUMP JUMPDEST PUSH2 0xA86 DUP2 DUP5 DUP5 PUSH2 0xA47 JUMP JUMPDEST POP POP POP JUMP JUMPDEST JUMPDEST DUP2 DUP2 LT ISZERO PUSH2 0xAA9 JUMPI PUSH2 0xA9E PUSH0 DUP3 PUSH2 0xA73 JUMP JUMPDEST PUSH1 0x1 DUP2 ADD SWAP1 POP PUSH2 0xA8C JUMP JUMPDEST POP POP JUMP JUMPDEST PUSH1 0x1F DUP3 GT ISZERO PUSH2 0xAEE JUMPI PUSH2 0xABF DUP2 PUSH2 0x996 JUMP JUMPDEST PUSH2 0xAC8 DUP5 PUSH2 0x9A8 JUMP JUMPDEST DUP2 ADD PUSH1 0x20 DUP6 LT ISZERO PUSH2 0xAD7 JUMPI DUP2 SWAP1 POP JUMPDEST PUSH2 0xAEB PUSH2 0xAE3 DUP6 PUSH2 0x9A8 JUMP JUMPDEST DUP4 ADD DUP3 PUSH2 0xA8B JUMP JUMPDEST POP POP JUMPDEST POP POP POP JUMP JUMPDEST PUSH0 DUP3 DUP3 SHR SWAP1 POP SWAP3 SWAP2 POP POP JUMP JUMPDEST PUSH0 PUSH2 0xB0E PUSH0 NOT DUP5 PUSH1 0x8 MUL PUSH2 0xAF3 JUMP JUMPDEST NOT DUP1 DUP4 AND SWAP2 POP POP SWAP3 SWAP2 POP POP JUMP JUMPDEST PUSH0 PUSH2 0xB26 DUP4 DUP4 PUSH2 0xAFF JUMP JUMPDEST SWAP2 POP DUP3 PUSH1 0x2 MUL DUP3 OR SWAP1 POP SWAP3 SWAP2 POP POP JUMP JUMPDEST PUSH2 0xB3F DUP3 PUSH2 0x563 JUMP JUMPDEST PUSH8 0xFFFFFFFFFFFFFFFF DUP2 GT ISZERO PUSH2 0xB58 JUMPI PUSH2 0xB57 PUSH2 0x693 JUMP JUMPDEST JUMPDEST PUSH2 0xB62 DUP3 SLOAD PUSH2 0x8BF JUMP JUMPDEST PUSH2 0xB6D DUP3 DUP3 DUP6 PUSH2 0xAAD JUMP JUMPDEST PUSH0 PUSH1 0x20 SWAP1 POP PUSH1 0x1F DUP4 GT PUSH1 0x1 DUP2 EQ PUSH2 0xB9E JUMPI PUSH0 DUP5 ISZERO PUSH2 0xB8C JUMPI DUP3 DUP8 ADD MLOAD SWAP1 POP JUMPDEST PUSH2 0xB96 DUP6 DUP3 PUSH2 0xB1B JUMP JUMPDEST DUP7 SSTORE POP PUSH2 0xBFD JUMP JUMPDEST PUSH1 0x1F NOT DUP5 AND PUSH2 0xBAC DUP7 PUSH2 0x996 JUMP JUMPDEST PUSH0 JUMPDEST DUP3 DUP2 LT ISZERO PUSH2 0xBD3 JUMPI DUP5 DUP10 ADD MLOAD DUP3 SSTORE PUSH1 0x1 DUP3 ADD SWAP2 POP PUSH1 0x20 DUP6 ADD SWAP5 POP PUSH1 0x20 DUP2 ADD SWAP1 POP PUSH2 0xBAE JUMP JUMPDEST DUP7 DUP4 LT ISZERO PUSH2 0xBF0 JUMPI DUP5 DUP10 ADD MLOAD PUSH2 0xBEC PUSH1 0x1F DUP10 AND DUP3 PUSH2 0xAFF JUMP JUMPDEST DUP4 SSTORE POP JUMPDEST PUSH1 0x1 PUSH1 0x2 DUP9 MUL ADD DUP9 SSTORE POP POP POP JUMPDEST POP POP POP POP POP POP JUMP JUMPDEST PUSH0 PUSH1 0x40 DUP3 ADD SWAP1 POP PUSH2 0xC18 PUSH0 DUP4 ADD DUP6 PUSH2 0x554 JUMP JUMPDEST DUP2 DUP2 SUB PUSH1 0x20 DUP4 ADD MSTORE PUSH2 0xC2A DUP2 DUP5 PUSH2 0x59B JUMP JUMPDEST SWAP1 POP SWAP4 SWAP3 POP POP POP JUMP JUMPDEST PUSH32 0x50726F706F73616C206973206E6F742061637469766500000000000000000000 PUSH0 DUP3 ADD MSTORE POP JUMP JUMPDEST PUSH0 PUSH2 0xC67 PUSH1 0x16 DUP4 PUSH2 0x56D JUMP JUMPDEST SWAP2 POP PUSH2 0xC72 DUP3 PUSH2 0xC33 JUMP JUMPDEST PUSH1 0x20 DUP3 ADD SWAP1 POP SWAP2 SWAP1 POP JUMP JUMPDEST PUSH0 PUSH1 0x20 DUP3 ADD SWAP1 POP DUP2 DUP2 SUB PUSH0 DUP4 ADD MSTORE PUSH2 0xC94 DUP2 PUSH2 0xC5B JUMP JUMPDEST SWAP1 POP SWAP2 SWAP1 POP JUMP JUMPDEST PUSH32 0x50726F706F73616C206861732065787069726564000000000000000000000000 PUSH0 DUP3 ADD MSTORE POP JUMP JUMPDEST PUSH0 PUSH2 0xCCF PUSH1 0x14 DUP4 PUSH2 0x56D JUMP JUMPDEST SWAP2 POP PUSH2 0xCDA DUP3 PUSH2 0xC9B JUMP JUMPDEST PUSH1 0x20 DUP3 ADD SWAP1 POP SWAP2 SWAP1 POP JUMP JUMPDEST PUSH0 PUSH1 0x20 DUP3 ADD SWAP1 POP DUP2 DUP2 SUB PUSH0 DUP4 ADD MSTORE PUSH2 0xCFC DUP2 PUSH2 0xCC3 JUMP JUMPDEST SWAP1 POP SWAP2 SWAP1 POP JUMP JUMPDEST PUSH0 PUSH1 0x60 DUP3 ADD SWAP1 POP PUSH2 0xD16 PUSH0 DUP4 ADD DUP7 PUSH2 0x554 JUMP JUMPDEST PUSH2 0xD23 PUSH1 0x20 DUP4 ADD DUP6 PUSH2 0x515 JUMP JUMPDEST PUSH2 0xD30 PUSH1 0x40 DUP4 ADD DUP5 PUSH2 0x5DE JUMP JUMPDEST SWAP5 SWAP4 POP POP POP POP JUMP INVALID LOG2 PUSH5 0x6970667358 0x22 SLT KECCAK256 0xDE PUSH30 0xA45D81204ED9ED1C60BA79FE193A003B7F102FFCE198093911FB40612E36 PUSH5 0x736F6C6343 STOP ADDMOD 0x1E STOP CALLER "
		},
		"gasEstimates": {
			"creation": {
				"codeDepositCost": "687600",
				"executionCost": "719",
				"totalCost": "688319"
			},
			"external": {
				"_newProposal(address,string)": "infinite",
				"owner()": "2529",
				"proposals(uint256)": "infinite",
				"vote(uint256,bool)": "infinite"
			}
		},
		"methodIdentifiers": {
			"_newProposal(address,string)": "3de39f9d",
			"owner()": "8da5cb5b",
			"proposals(uint256)": "013cf08b",
			"vote(uint256,bool)": "c9d27afe"
		}
	},
	"abi": [
		{
			"anonymous": false,
			"inputs": [
				{
					"indexed": false,
					"internalType": "address",
					"name": "creator",
					"type": "address"
				},
				{
					"indexed": false,
					"internalType": "string",
					"name": "description",
					"type": "string"
				}
			],
			"name": "NewProposal",
			"type": "event"
		},
		{
			"anonymous": false,
			"inputs": [
				{
					"indexed": false,
					"internalType": "address",
					"name": "voter",
					"type": "address"
				},
				{
					"indexed": false,
					"internalType": "uint256",
					"name": "proposalId",
					"type": "uint256"
				},
				{
					"indexed": false,
					"internalType": "bool",
					"name": "positive",
					"type": "bool"
				}
			],
			"name": "Vote",
			"type": "event"
		},
		{
			"inputs": [
				{
					"internalType": "address",
					"name": "_creator",
					"type": "address"
				},
				{
					"internalType": "string",
					"name": "_description",
					"type": "string"
				}
			],
			"name": "_newProposal",
			"outputs": [],
			"stateMutability": "nonpayable",
			"type": "function"
		},
		{
			"inputs": [],
			"name": "owner",
			"outputs": [
				{
					"internalType": "address",
					"name": "",
					"type": "address"
				}
			],
			"stateMutability": "view",
			"type": "function"
		},
		{
			"inputs": [
				{
					"internalType": "uint256",
					"name": "",
					"type": "uint256"
				}
			],
			"name": "proposals",
			"outputs": [
				{
					"internalType": "uint256",
					"name": "id",
					"type": "uint256"
				},
				{
					"internalType": "address",
					"name": "creator",
					"type": "address"
				},
				{
					"internalType": "string",
					"name": "desciption",
					"type": "string"
				},
				{
					"internalType": "uint256",
					"name": "positiveVotes",
					"type": "uint256"
				},
				{
					"internalType": "uint256",
					"name": "negativeVotes",
					"type": "uint256"
				},
				{
					"internalType": "bool",
					"name": "isActive",
					"type": "bool"
				},
				{
					"internalType": "uint256",
					"name": "deadline",
					"type": "uint256"
				}
			],
			"stateMutability": "view",
			"type": "function"
		},
		{
			"inputs": [
				{
					"internalType": "uint256",
					"name": "_proposalId",
					"type": "uint256"
				},
				{
					"internalType": "bool",
					"name": "_positive",
					"type": "bool"
				}
			],
			"name": "vote",
			"outputs": [],
			"stateMutability": "nonpayable",
			"type": "function"
		}
	]
}